{
  "contractName": "MyPair",
  "abi": [
    {
      "inputs": [],
      "stateMutability": "nonpayable",
      "type": "constructor"
    },
    {
      "anonymous": false,
      "inputs": [
        {
          "indexed": true,
          "internalType": "address",
          "name": "owner",
          "type": "address"
        },
        {
          "indexed": true,
          "internalType": "address",
          "name": "spender",
          "type": "address"
        },
        {
          "indexed": false,
          "internalType": "uint256",
          "name": "value",
          "type": "uint256"
        }
      ],
      "name": "Approval",
      "type": "event"
    },
    {
      "anonymous": false,
      "inputs": [
        {
          "indexed": true,
          "internalType": "address",
          "name": "sender",
          "type": "address"
        },
        {
          "indexed": false,
          "internalType": "uint256",
          "name": "amount0",
          "type": "uint256"
        },
        {
          "indexed": false,
          "internalType": "uint256",
          "name": "amount1",
          "type": "uint256"
        },
        {
          "indexed": true,
          "internalType": "address",
          "name": "to",
          "type": "address"
        }
      ],
      "name": "Burn",
      "type": "event"
    },
    {
      "anonymous": false,
      "inputs": [
        {
          "indexed": true,
          "internalType": "address",
          "name": "sender",
          "type": "address"
        },
        {
          "indexed": false,
          "internalType": "uint256",
          "name": "amount0",
          "type": "uint256"
        },
        {
          "indexed": false,
          "internalType": "uint256",
          "name": "amount1",
          "type": "uint256"
        }
      ],
      "name": "Mint",
      "type": "event"
    },
    {
      "anonymous": false,
      "inputs": [
        {
          "indexed": true,
          "internalType": "address",
          "name": "sender",
          "type": "address"
        },
        {
          "indexed": false,
          "internalType": "uint256",
          "name": "amount0In",
          "type": "uint256"
        },
        {
          "indexed": false,
          "internalType": "uint256",
          "name": "amount1In",
          "type": "uint256"
        },
        {
          "indexed": false,
          "internalType": "uint256",
          "name": "amount0Out",
          "type": "uint256"
        },
        {
          "indexed": false,
          "internalType": "uint256",
          "name": "amount1Out",
          "type": "uint256"
        },
        {
          "indexed": true,
          "internalType": "address",
          "name": "to",
          "type": "address"
        }
      ],
      "name": "Swap",
      "type": "event"
    },
    {
      "anonymous": false,
      "inputs": [
        {
          "indexed": false,
          "internalType": "uint112",
          "name": "reserve0",
          "type": "uint112"
        },
        {
          "indexed": false,
          "internalType": "uint112",
          "name": "reserve1",
          "type": "uint112"
        }
      ],
      "name": "Sync",
      "type": "event"
    },
    {
      "anonymous": false,
      "inputs": [
        {
          "indexed": true,
          "internalType": "address",
          "name": "from",
          "type": "address"
        },
        {
          "indexed": true,
          "internalType": "address",
          "name": "to",
          "type": "address"
        },
        {
          "indexed": false,
          "internalType": "uint256",
          "name": "value",
          "type": "uint256"
        }
      ],
      "name": "Transfer",
      "type": "event"
    },
    {
      "inputs": [],
      "name": "DOMAIN_SEPARATOR",
      "outputs": [
        {
          "internalType": "bytes32",
          "name": "",
          "type": "bytes32"
        }
      ],
      "stateMutability": "view",
      "type": "function"
    },
    {
      "inputs": [],
      "name": "MINIMUM_LIQUIDITY",
      "outputs": [
        {
          "internalType": "uint256",
          "name": "",
          "type": "uint256"
        }
      ],
      "stateMutability": "view",
      "type": "function"
    },
    {
      "inputs": [],
      "name": "PERMIT_TYPEHASH",
      "outputs": [
        {
          "internalType": "bytes32",
          "name": "",
          "type": "bytes32"
        }
      ],
      "stateMutability": "view",
      "type": "function"
    },
    {
      "inputs": [
        {
          "internalType": "address",
          "name": "",
          "type": "address"
        },
        {
          "internalType": "address",
          "name": "",
          "type": "address"
        }
      ],
      "name": "allowance",
      "outputs": [
        {
          "internalType": "uint256",
          "name": "",
          "type": "uint256"
        }
      ],
      "stateMutability": "view",
      "type": "function"
    },
    {
      "inputs": [
        {
          "internalType": "address",
          "name": "spender",
          "type": "address"
        },
        {
          "internalType": "uint256",
          "name": "value",
          "type": "uint256"
        }
      ],
      "name": "approve",
      "outputs": [
        {
          "internalType": "bool",
          "name": "",
          "type": "bool"
        }
      ],
      "stateMutability": "nonpayable",
      "type": "function"
    },
    {
      "inputs": [
        {
          "internalType": "address",
          "name": "",
          "type": "address"
        }
      ],
      "name": "balanceOf",
      "outputs": [
        {
          "internalType": "uint256",
          "name": "",
          "type": "uint256"
        }
      ],
      "stateMutability": "view",
      "type": "function"
    },
    {
      "inputs": [],
      "name": "decimals",
      "outputs": [
        {
          "internalType": "uint8",
          "name": "",
          "type": "uint8"
        }
      ],
      "stateMutability": "view",
      "type": "function"
    },
    {
      "inputs": [],
      "name": "factory",
      "outputs": [
        {
          "internalType": "address",
          "name": "",
          "type": "address"
        }
      ],
      "stateMutability": "view",
      "type": "function"
    },
    {
      "inputs": [],
      "name": "kLast",
      "outputs": [
        {
          "internalType": "uint256",
          "name": "",
          "type": "uint256"
        }
      ],
      "stateMutability": "view",
      "type": "function"
    },
    {
      "inputs": [],
      "name": "name",
      "outputs": [
        {
          "internalType": "string",
          "name": "",
          "type": "string"
        }
      ],
      "stateMutability": "view",
      "type": "function"
    },
    {
      "inputs": [
        {
          "internalType": "address",
          "name": "",
          "type": "address"
        }
      ],
      "name": "nonces",
      "outputs": [
        {
          "internalType": "uint256",
          "name": "",
          "type": "uint256"
        }
      ],
      "stateMutability": "view",
      "type": "function"
    },
    {
      "inputs": [
        {
          "internalType": "address",
          "name": "owner",
          "type": "address"
        },
        {
          "internalType": "address",
          "name": "spender",
          "type": "address"
        },
        {
          "internalType": "uint256",
          "name": "value",
          "type": "uint256"
        },
        {
          "internalType": "uint256",
          "name": "deadline",
          "type": "uint256"
        },
        {
          "internalType": "uint8",
          "name": "v",
          "type": "uint8"
        },
        {
          "internalType": "bytes32",
          "name": "r",
          "type": "bytes32"
        },
        {
          "internalType": "bytes32",
          "name": "s",
          "type": "bytes32"
        }
      ],
      "name": "permit",
      "outputs": [],
      "stateMutability": "nonpayable",
      "type": "function"
    },
    {
      "inputs": [],
      "name": "price0CumulativeLast",
      "outputs": [
        {
          "internalType": "uint256",
          "name": "",
          "type": "uint256"
        }
      ],
      "stateMutability": "view",
      "type": "function"
    },
    {
      "inputs": [],
      "name": "price1CumulativeLast",
      "outputs": [
        {
          "internalType": "uint256",
          "name": "",
          "type": "uint256"
        }
      ],
      "stateMutability": "view",
      "type": "function"
    },
    {
      "inputs": [],
      "name": "symbol",
      "outputs": [
        {
          "internalType": "string",
          "name": "",
          "type": "string"
        }
      ],
      "stateMutability": "view",
      "type": "function"
    },
    {
      "inputs": [],
      "name": "token0",
      "outputs": [
        {
          "internalType": "address",
          "name": "",
          "type": "address"
        }
      ],
      "stateMutability": "view",
      "type": "function"
    },
    {
      "inputs": [],
      "name": "token1",
      "outputs": [
        {
          "internalType": "address",
          "name": "",
          "type": "address"
        }
      ],
      "stateMutability": "view",
      "type": "function"
    },
    {
      "inputs": [],
      "name": "totalSupply",
      "outputs": [
        {
          "internalType": "uint256",
          "name": "",
          "type": "uint256"
        }
      ],
      "stateMutability": "view",
      "type": "function"
    },
    {
      "inputs": [
        {
          "internalType": "address",
          "name": "to",
          "type": "address"
        },
        {
          "internalType": "uint256",
          "name": "value",
          "type": "uint256"
        }
      ],
      "name": "transfer",
      "outputs": [
        {
          "internalType": "bool",
          "name": "",
          "type": "bool"
        }
      ],
      "stateMutability": "nonpayable",
      "type": "function"
    },
    {
      "inputs": [
        {
          "internalType": "address",
          "name": "from",
          "type": "address"
        },
        {
          "internalType": "address",
          "name": "to",
          "type": "address"
        },
        {
          "internalType": "uint256",
          "name": "value",
          "type": "uint256"
        }
      ],
      "name": "transferFrom",
      "outputs": [
        {
          "internalType": "bool",
          "name": "",
          "type": "bool"
        }
      ],
      "stateMutability": "nonpayable",
      "type": "function"
    },
    {
      "inputs": [
        {
          "internalType": "address",
          "name": "_token0",
          "type": "address"
        },
        {
          "internalType": "address",
          "name": "_token1",
          "type": "address"
        }
      ],
      "name": "initialize",
      "outputs": [],
      "stateMutability": "nonpayable",
      "type": "function"
    },
    {
      "inputs": [
        {
          "internalType": "address",
          "name": "to",
          "type": "address"
        }
      ],
      "name": "skim",
      "outputs": [],
      "stateMutability": "nonpayable",
      "type": "function"
    },
    {
      "inputs": [],
      "name": "sync",
      "outputs": [],
      "stateMutability": "nonpayable",
      "type": "function"
    },
    {
      "inputs": [],
      "name": "getReserves",
      "outputs": [
        {
          "internalType": "uint112",
          "name": "_reserve0",
          "type": "uint112"
        },
        {
          "internalType": "uint112",
          "name": "_reserve1",
          "type": "uint112"
        },
        {
          "internalType": "uint32",
          "name": "_blockTimestampLast",
          "type": "uint32"
        }
      ],
      "stateMutability": "view",
      "type": "function"
    },
    {
      "inputs": [
        {
          "internalType": "address",
          "name": "to",
          "type": "address"
        }
      ],
      "name": "mint",
      "outputs": [
        {
          "internalType": "uint256",
          "name": "liquidity",
          "type": "uint256"
        }
      ],
      "stateMutability": "nonpayable",
      "type": "function"
    },
    {
      "inputs": [
        {
          "internalType": "address",
          "name": "to",
          "type": "address"
        }
      ],
      "name": "burn",
      "outputs": [
        {
          "internalType": "uint256",
          "name": "amount0",
          "type": "uint256"
        },
        {
          "internalType": "uint256",
          "name": "amount1",
          "type": "uint256"
        }
      ],
      "stateMutability": "nonpayable",
      "type": "function"
    },
    {
      "inputs": [
        {
          "internalType": "uint256",
          "name": "amount0Out",
          "type": "uint256"
        },
        {
          "internalType": "uint256",
          "name": "amount1Out",
          "type": "uint256"
        },
        {
          "internalType": "address",
          "name": "to",
          "type": "address"
        }
      ],
      "name": "swap",
      "outputs": [],
      "stateMutability": "nonpayable",
      "type": "function"
    }
  ],
  "bytecode": "0x60806040526001600555348015610014575f80fd5b50604080518082018252600b81526a053696d706c6520537761760ac1b6020918201528151808301835260018152603160f81b9082015281517f8b73c3c69bb8fe3d512ecc4cf759cc79239f7b179b0ffacaa9a75d522b39400f818301527f348da4ad6cf7cdfc5bcd3ff1d6ff5e4052b7c072a4b25f073c69d4e4486f29ff818401527fc89efdaa54c0f20c7adf612882df0950f5a951637e0307cdcb4c672f298b8bc660608201524660808201523060a0808301919091528351808303909101815260c09091019092528151910120600355600680546001600160a01b0319163317905561223e806101065f395ff3fe608060405234801561000f575f80fd5b50600436106101a1575f3560e01c80636d9a640a116100f3578063ba9a7a5611610093578063d21220a71161006e578063d21220a7146103f9578063d505accf1461040c578063dd62ed3e1461041f578063fff6cae914610449575f80fd5b8063ba9a7a56146103ca578063bc25cf77146103d3578063c45a0155146103e6575f80fd5b80637ecebe00116100ce5780637ecebe001461034f57806389afcb441461036e57806395d89b4114610396578063a9059cbb146103b7575f80fd5b80636d9a640a1461031457806370a08231146103275780637464fc3d14610346575f80fd5b806330adf81f1161015e578063485cc95511610139578063485cc955146102da5780635909c0d5146102ef5780635a3d5493146102f85780636a62784214610301575f80fd5b806330adf81f14610290578063313ce567146102b75780633644e515146102d1575f80fd5b806306fdde03146101a55780630902f1ac146101e5578063095ea7b3146102195780630dfe16811461023c57806318160ddd1461026757806323b872dd1461027d575b5f80fd5b6101cf6040518060400160405280600b81526020016a053696d706c6520537761760ac1b81525081565b6040516101dc9190611eb4565b60405180910390f35b6101ed610451565b604080516001600160701b03948516815293909216602084015263ffffffff16908201526060016101dc565b61022c610227366004611efd565b61047b565b60405190151581526020016101dc565b60075461024f906001600160a01b031681565b6040516001600160a01b0390911681526020016101dc565b61026f5f5481565b6040519081526020016101dc565b61022c61028b366004611f27565b610491565b61026f7f6e71edae12b1b97f4d1f60370fef10105fa2faae0126114a169c64845d6126c981565b6102bf601281565b60405160ff90911681526020016101dc565b61026f60035481565b6102ed6102e8366004611f65565b610521565b005b61026f60095481565b61026f600a5481565b61026f61030f366004611f9c565b61059a565b6102ed610322366004611fb7565b610849565b61026f610335366004611f9c565b60016020525f908152604090205481565b61026f600b5481565b61026f61035d366004611f9c565b60046020525f908152604090205481565b61038161037c366004611f9c565b610cd3565b604080519283526020830191909152016101dc565b6101cf6040518060400160405280600281526020016104c560f41b81525081565b61022c6103c5366004611efd565b611018565b61026f6103e881565b6102ed6103e1366004611f9c565b611024565b60065461024f906001600160a01b031681565b60085461024f906001600160a01b031681565b6102ed61041a366004611fed565b611135565b61026f61042d366004611f65565b600260209081525f928352604080842090915290825290205481565b6102ed611336565b600c546001600160701b0380821692600160701b830490911691600160e01b900463ffffffff1690565b5f610487338484611455565b5060015b92915050565b6001600160a01b0383165f9081526002602090815260408083203384529091528120545f191461050c576001600160a01b0384165f9081526002602090815260408083203384529091529020546104e890836114b6565b6001600160a01b0385165f9081526002602090815260408083203384529091529020555b61051784848461150b565b5060019392505050565b6006546001600160a01b0316331461056c5760405162461bcd60e51b81526020600482015260096024820152682327a92124a22222a760b91b60448201526064015b60405180910390fd5b600780546001600160a01b039384166001600160a01b03199182161790915560088054929093169116179055565b5f6005546001146105bd5760405162461bcd60e51b81526004016105639061205e565b5f6005819055806105cc610451565b506007546040516370a0823160e01b81523060048201529294509092505f916001600160a01b03909116906370a0823190602401602060405180830381865afa15801561061b573d5f803e3d5ffd5b505050506040513d601f19601f8201168201806040525081019061063f919061207e565b6008546040516370a0823160e01b81523060048201529192505f916001600160a01b03909116906370a0823190602401602060405180830381865afa15801561068a573d5f803e3d5ffd5b505050506040513d601f19601f820116820180604052508101906106ae919061207e565b90505f6106c4836001600160701b0387166114b6565b90505f6106da836001600160701b0387166114b6565b90505f6106e787876115ae565b5f8054919250819003610725576107126103e861070c61070787876116e0565b611746565b906114b6565b98506107205f6103e86117b4565b61076c565b6107696001600160701b03891661073c86846116e0565b61074691906120bd565b6001600160701b03891661075a86856116e0565b61076491906120bd565b611840565b98505b5f89116107bb5760405162461bcd60e51b815260206004820152601d60248201527f494e53554646494349454e545f4c49515549444954595f4d494e5445440000006044820152606401610563565b6107c58a8a6117b4565b6107d186868a8a611857565b81156107fb57600c546107f7906001600160701b0380821691600160701b9004166116e0565b600b555b604080518581526020810185905233917f4c209b5fc8ad50758f13e2e1088ba56a560dff690a1c6fef26394f4c03821c4f910160405180910390a25050600160055550949695505050505050565b60055460011461086b5760405162461bcd60e51b81526004016105639061205e565b5f6005558215158061087c57505f82115b6108c85760405162461bcd60e51b815260206004820152601a60248201527f494e53554646494349454e545f4f55545055545f414d4f554e540000000000006044820152606401610563565b5f806108d2610451565b5091509150816001600160701b0316851080156108f75750806001600160701b031684105b61093c5760405162461bcd60e51b8152602060048201526016602482015275494e53554646494349454e545f4c495155494449545960501b6044820152606401610563565b6109468585611a33565b6127106109548660056120d0565b61095e91906120bd565b61096890866120e7565b94506127106109788560056120d0565b61098291906120bd565b61098c90856120e7565b6007546008549195505f9182916001600160a01b0390811691811690871682148015906109cb5750806001600160a01b0316876001600160a01b031614155b610a045760405162461bcd60e51b815260206004820152600a602482015269494e56414c49445f544f60b01b6044820152606401610563565b8815610a1557610a1582888b611c53565b8715610a2657610a2681888a611c53565b6040516370a0823160e01b81523060048201526001600160a01b038316906370a0823190602401602060405180830381865afa158015610a68573d5f803e3d5ffd5b505050506040513d601f19601f82011682018060405250810190610a8c919061207e565b6040516370a0823160e01b81523060048201529094506001600160a01b038216906370a0823190602401602060405180830381865afa158015610ad1573d5f803e3d5ffd5b505050506040513d601f19601f82011682018060405250810190610af5919061207e565b925050505f87856001600160701b0316610b0f91906120e7565b8311610b1b575f610b38565b610b2e886001600160701b0387166120e7565b610b3890846120e7565b90505f610b4e886001600160701b0387166120e7565b8311610b5a575f610b77565b610b6d886001600160701b0387166120e7565b610b7790846120e7565b90505f821180610b8657505f81115b610bd25760405162461bcd60e51b815260206004820152601960248201527f494e53554646494349454e545f494e5055545f414d4f554e54000000000000006044820152606401610563565b5f610bed610be184600f6116e0565b61070c876127106116e0565b90505f610bfe610be184600f6116e0565b9050610c246305f5e100610c1e6001600160701b038b8116908b166116e0565b906116e0565b610c2e83836116e0565b1015610c605760405162461bcd60e51b81526020600482015260016024820152604b60f81b6044820152606401610563565b5050610c6e84848888611857565b60408051838152602081018390529081018a9052606081018990526001600160a01b0388169033907fd78ad95fa46c994b6551d0da85fc275fe613ce37657fb8d5e3d130840159d8229060800160405180910390a35050600160055550505050505050565b5f80600554600114610cf75760405162461bcd60e51b81526004016105639061205e565b5f600581905580610d06610451565b506007546008546040516370a0823160e01b81523060048201529395509193506001600160a01b03908116929116905f9083906370a0823190602401602060405180830381865afa158015610d5d573d5f803e3d5ffd5b505050506040513d601f19601f82011682018060405250810190610d81919061207e565b6040516370a0823160e01b81523060048201529091505f906001600160a01b038416906370a0823190602401602060405180830381865afa158015610dc8573d5f803e3d5ffd5b505050506040513d601f19601f82011682018060405250810190610dec919061207e565b305f90815260016020526040812054919250610e0888886115ae565b5f5490915080610e1884876116e0565b610e2291906120bd565b9a5080610e2f84866116e0565b610e3991906120bd565b99505f8b118015610e4957505f8a115b610e955760405162461bcd60e51b815260206004820152601d60248201527f494e53554646494349454e545f4c49515549444954595f4255524e45440000006044820152606401610563565b610e9f3084611d8b565b610eaa878d8d611c53565b610eb5868d8c611c53565b6040516370a0823160e01b81523060048201526001600160a01b038816906370a0823190602401602060405180830381865afa158015610ef7573d5f803e3d5ffd5b505050506040513d601f19601f82011682018060405250810190610f1b919061207e565b6040516370a0823160e01b81523060048201529095506001600160a01b038716906370a0823190602401602060405180830381865afa158015610f60573d5f803e3d5ffd5b505050506040513d601f19601f82011682018060405250810190610f84919061207e565b9350610f9285858b8b611857565b8115610fbc57600c54610fb8906001600160701b0380821691600160701b9004166116e0565b600b555b604080518c8152602081018c90526001600160a01b038e169133917fdccd412f0b1252819cb1fd330b93224ca42612892bb3f4f789976e6d81936496910160405180910390a35050505050505050506001600581905550915091565b5f61048733848461150b565b6005546001146110465760405162461bcd60e51b81526004016105639061205e565b5f600555600754600854600c546040516370a0823160e01b81523060048201526001600160a01b0393841693909216916110de91849186916110d9916001600160701b039091169084906370a08231906024015b602060405180830381865afa1580156110b5573d5f803e3d5ffd5b505050506040513d601f19601f8201168201806040525081019061070c919061207e565b611c53565b600c546040516370a0823160e01b815230600482015261112b91839186916110d991600160701b9091046001600160701b0316906001600160a01b038516906370a082319060240161109a565b5050600160055550565b428410156111735760405162461bcd60e51b815260206004820152600b60248201526a135e4e881156141254915160aa1b6044820152606401610563565b6003546001600160a01b0388165f90815260046020526040812080549192917f6e71edae12b1b97f4d1f60370fef10105fa2faae0126114a169c64845d6126c9918b918b918b9190876111c5836120fa565b909155506040805160208101969096526001600160a01b0394851690860152929091166060840152608083015260a082015260c0810187905260e0016040516020818303038152906040528051906020012060405160200161123e92919061190160f01b81526002810192909252602282015260420190565b60408051601f1981840301815282825280516020918201205f80855291840180845281905260ff88169284019290925260608301869052608083018590529092509060019060a0016020604051602081039080840390855afa1580156112a6573d5f803e3d5ffd5b5050604051601f1901519150506001600160a01b038116158015906112dc5750886001600160a01b0316816001600160a01b0316145b6113205760405162461bcd60e51b81526020600482015260156024820152744d793a20494e56414c49445f5349474e415455524560581b6044820152606401610563565b61132b898989611455565b505050505050505050565b6005546001146113585760405162461bcd60e51b81526004016105639061205e565b5f6005556007546040516370a0823160e01b815230600482015261144e916001600160a01b0316906370a0823190602401602060405180830381865afa1580156113a4573d5f803e3d5ffd5b505050506040513d601f19601f820116820180604052508101906113c8919061207e565b6008546040516370a0823160e01b81523060048201526001600160a01b03909116906370a0823190602401602060405180830381865afa15801561140e573d5f803e3d5ffd5b505050506040513d601f19601f82011682018060405250810190611432919061207e565b600c546001600160701b0380821691600160701b900416611857565b6001600555565b6001600160a01b038381165f8181526002602090815260408083209487168084529482529182902085905590518481527f8c5be1e5ebec7d5bd14f71427d1e84f3dd0314c0f7b2291e5b200ac8c7c3b92591015b60405180910390a3505050565b5f826114c283826120e7565b915081111561048b5760405162461bcd60e51b815260206004820152601560248201527464732d6d6174682d7375622d756e646572666c6f7760581b6044820152606401610563565b6001600160a01b0383165f9081526001602052604090205461152d90826114b6565b6001600160a01b038085165f90815260016020526040808220939093559084168152205461155b9082611e12565b6001600160a01b038084165f8181526001602052604090819020939093559151908516907fddf252ad1be2c89b69c2b068fc378daa952ba7f163c4a11628f55a4df523b3ef906114a99085815260200190565b5f8060065f9054906101000a90046001600160a01b03166001600160a01b031663017e7e586040518163ffffffff1660e01b8152600401602060405180830381865afa158015611600573d5f803e3d5ffd5b505050506040513d601f19601f820116820180604052508101906116249190612112565b600b546001600160a01b0382161580159450919250906116cd5780156116c8575f61165e6107076001600160701b038881169088166116e0565b90505f61166a83611746565b9050808211156116c5575f61168a61168284846114b6565b5f54906116e0565b90505f6116a28361169c8660056116e0565b90611e12565b90505f6116af82846120bd565b905080156116c1576116c187826117b4565b5050505b50505b6116d8565b80156116d8575f600b555b505092915050565b5f811580611703575082826116f581836120d0565b925061170190836120bd565b145b61048b5760405162461bcd60e51b815260206004820152601460248201527364732d6d6174682d6d756c2d6f766572666c6f7760601b6044820152606401610563565b5f60038211156117a55750805f61175e6002836120bd565b61176990600161212d565b90505b8181101561179f5790508060028161178481866120bd565b61178e919061212d565b61179891906120bd565b905061176c565b50919050565b81156117af575060015b919050565b5f546117c09082611e12565b5f9081556001600160a01b0383168152600160205260409020546117e49082611e12565b6001600160a01b0383165f818152600160205260408082209390935591519091907fddf252ad1be2c89b69c2b068fc378daa952ba7f163c4a11628f55a4df523b3ef906118349085815260200190565b60405180910390a35050565b5f81831061184e5781611850565b825b9392505050565b6001600160701b03841180159061187557506001600160701b038311155b6118ac5760405162461bcd60e51b81526020600482015260086024820152674f564552464c4f5760c01b6044820152606401610563565b5f6118bc64010000000042612140565b600c549091505f906118db90600160e01b900463ffffffff1683612153565b90505f8163ffffffff161180156118fa57506001600160701b03841615155b801561190e57506001600160701b03831615155b1561199b578063ffffffff166119368561192786611e66565b6001600160e01b031690611e7e565b6001600160e01b031661194991906120d0565b60095f828254611959919061212d565b909155505063ffffffff81166119728461192787611e66565b6001600160e01b031661198591906120d0565b600a5f828254611995919061212d565b90915550505b600c805463ffffffff8416600160e01b026001600160e01b036001600160701b03898116600160701b9081026001600160e01b03199095168c83161794909417918216831794859055604080519382169282169290921783529290930490911660208201527f1c411e9a96e071241c2f21f7726b17ae89e3cab4c78be50e062b03a9fffbbad1910160405180910390a1505050505050565b60075460085460065460408051622fcfcb60e31b815290516001600160a01b0394851694938416935f93169163017e7e589160048083019260209291908290030181865afa158015611a87573d5f803e3d5ffd5b505050506040513d601f19601f82011682018060405250810190611aab9190612112565b90505f60065f9054906101000a90046001600160a01b03166001600160a01b031663139c83526040518163ffffffff1660e01b8152600401602060405180830381865afa158015611afe573d5f803e3d5ffd5b505050506040513d601f19601f82011682018060405250810190611b229190612112565b90505f60065f9054906101000a90046001600160a01b03166001600160a01b031663c16f7eb46040518163ffffffff1660e01b8152600401602060405180830381865afa158015611b75573d5f803e3d5ffd5b505050506040513d601f19601f82011682018060405250810190611b999190612112565b90505f612710611baa8960056120d0565b611bb491906120bd565b90505f612710611bc58960056120d0565b611bcf91906120bd565b90508815611c1757611bf387866005611be98660016120d0565b6110d991906120bd565b611c0587856005611be98660026120d0565b611c1787846005611be98660026120d0565b871561132b57611c2f86866005611be98560016120d0565b611c4186856005611be98560026120d0565b61132b86846005611be98560026120d0565b604080518082018252601981527f7472616e7366657228616464726573732c75696e74323536290000000000000060209182015281516001600160a01b0385811660248301526044808301869052845180840390910181526064909201845291810180516001600160e01b031663a9059cbb60e01b17905291515f928392871691611cde9190612177565b5f604051808303815f865af19150503d805f8114611d17576040519150601f19603f3d011682016040523d82523d5f602084013e611d1c565b606091505b5091509150818015611d46575080511580611d46575080806020019051810190611d469190612192565b611d845760405162461bcd60e51b815260206004820152600f60248201526e1514905394d1915497d19052531151608a1b6044820152606401610563565b5050505050565b6001600160a01b0382165f90815260016020526040902054611dad90826114b6565b6001600160a01b0383165f9081526001602052604081209190915554611dd390826114b6565b5f9081556040518281526001600160a01b038416907fddf252ad1be2c89b69c2b068fc378daa952ba7f163c4a11628f55a4df523b3ef90602001611834565b5f82611e1e838261212d565b915081101561048b5760405162461bcd60e51b815260206004820152601460248201527364732d6d6174682d6164642d6f766572666c6f7760601b6044820152606401610563565b5f61048b600160701b6001600160701b0384166121b1565b5f6118506001600160701b038316846121e3565b5f5b83811015611eac578181015183820152602001611e94565b50505f910152565b602081525f8251806020840152611ed2816040850160208701611e92565b601f01601f19169190910160400192915050565b6001600160a01b0381168114611efa575f80fd5b50565b5f8060408385031215611f0e575f80fd5b8235611f1981611ee6565b946020939093013593505050565b5f805f60608486031215611f39575f80fd5b8335611f4481611ee6565b92506020840135611f5481611ee6565b929592945050506040919091013590565b5f8060408385031215611f76575f80fd5b8235611f8181611ee6565b91506020830135611f9181611ee6565b809150509250929050565b5f60208284031215611fac575f80fd5b813561185081611ee6565b5f805f60608486031215611fc9575f80fd5b83359250602084013591506040840135611fe281611ee6565b809150509250925092565b5f805f805f805f60e0888a031215612003575f80fd5b873561200e81611ee6565b9650602088013561201e81611ee6565b95506040880135945060608801359350608088013560ff81168114612041575f80fd5b9699959850939692959460a0840135945060c09093013592915050565b6020808252600690820152651313d0d2d15160d21b604082015260600190565b5f6020828403121561208e575f80fd5b5051919050565b634e487b7160e01b5f52601260045260245ffd5b634e487b7160e01b5f52601160045260245ffd5b5f826120cb576120cb612095565b500490565b808202811582820484141761048b5761048b6120a9565b8181038181111561048b5761048b6120a9565b5f6001820161210b5761210b6120a9565b5060010190565b5f60208284031215612122575f80fd5b815161185081611ee6565b8082018082111561048b5761048b6120a9565b5f8261214e5761214e612095565b500690565b63ffffffff828116828216039080821115612170576121706120a9565b5092915050565b5f8251612188818460208701611e92565b9190910192915050565b5f602082840312156121a2575f80fd5b81518015158114611850575f80fd5b6001600160e01b038281168282168181028316929181158285048214176121da576121da6120a9565b50505092915050565b5f6001600160e01b03838116806121fc576121fc612095565b9216919091049291505056fea2646970667358221220e46e6881916a960a9ae13b5ccc8a7780cf5ece59de138354653b7732f32d1fab64736f6c63430008140033",
  "immutableReferences": {},
  "source": "// SPDX-License-Identifier: MIT\r\npragma solidity ^0.8.19;\r\n\r\nimport \"./IERC20.sol\";\r\nimport \"./IMyPair.sol\";\r\nimport \"./IMyFactory.sol\";\r\nimport \"./MyERC20.sol\";\r\nimport \"./Library.sol\";\r\n\r\ncontract MyPair is IMyPair, MyERC20 {\r\n    using UQ112x112 for uint224;\r\n    using SafeMath  for uint;\r\n\r\n    uint private unlocked = 1;\r\n    \r\n    address public factory;\r\n    address public token0;\r\n    address public token1;\r\n\r\n    uint public price0CumulativeLast;\r\n    uint public price1CumulativeLast;\r\n    uint public kLast;\r\n\r\n    uint112 private reserve0;\r\n    uint112 private reserve1;\r\n    uint32  private blockTimestampLast;\r\n\r\n    uint public constant MINIMUM_LIQUIDITY = 10**3;\r\n    bytes4 private constant SELECTOR = bytes4(keccak256(bytes('transfer(address,uint256)')));\r\n\r\n    modifier lock() {\r\n        require(unlocked == 1, 'LOCKED');\r\n        unlocked = 0;\r\n        _;\r\n        unlocked = 1;\r\n    }\r\n\r\n    constructor() {\r\n        factory = msg.sender;\r\n    }\r\n\r\n    function initialize(address _token0, address _token1) external {\r\n        require(msg.sender == factory, 'FORBIDDEN');\r\n        token0 = _token0;\r\n        token1 = _token1;\r\n    }\r\n\r\n    event Mint(address indexed sender, uint amount0, uint amount1);\r\n    event Burn(address indexed sender, uint amount0, uint amount1, address indexed to);\r\n    event Swap(\r\n        address indexed sender,\r\n        uint amount0In,\r\n        uint amount1In,\r\n        uint amount0Out,\r\n        uint amount1Out,\r\n        address indexed to\r\n    );\r\n    event Sync(uint112 reserve0, uint112 reserve1);\r\n\r\n    function skim(address to) external lock {\r\n        address _token0 = token0;\r\n        address _token1 = token1;\r\n        \r\n        _safeTransfer(_token0, to, IERC20(_token0).balanceOf(address(this)).sub(reserve0));\r\n        _safeTransfer(_token1, to, IERC20(_token1).balanceOf(address(this)).sub(reserve1));\r\n    }\r\n\r\n    function sync() external lock {\r\n        _update(IERC20(token0).balanceOf(address(this)), IERC20(token1).balanceOf(address(this)), reserve0, reserve1);\r\n    }\r\n\r\n    function getReserves() public view returns (uint112 _reserve0, uint112 _reserve1, uint32 _blockTimestampLast) {\r\n        _reserve0 = reserve0;\r\n        _reserve1 = reserve1;\r\n        _blockTimestampLast = blockTimestampLast;\r\n    }\r\n\r\n    function _mintFee(uint112 _reserve0, uint112 _reserve1) private returns (bool feeOn) {\r\n        address feeTo = IMyFactory(factory).feeTo();\r\n        feeOn = feeTo != address(0);\r\n        uint _kLast = kLast;\r\n        if (feeOn) {\r\n            if (_kLast != 0) {\r\n                uint rootK = Math.sqrt(uint(_reserve0).mul(_reserve1));\r\n                uint rootKLast = Math.sqrt(_kLast);\r\n                if (rootK > rootKLast) {\r\n                    uint numerator = totalSupply.mul(rootK.sub(rootKLast));\r\n                    uint denominator = rootK.mul(5).add(rootKLast);\r\n                    uint liquidity = numerator / denominator;\r\n                    if (liquidity > 0) _mint(feeTo, liquidity);\r\n                }\r\n            }\r\n        } else if (_kLast != 0) {\r\n            kLast = 0;\r\n        }\r\n    }\r\n\r\n    function _safeTransfer(address token, address to, uint value) private {\r\n        (bool success, bytes memory data) = token.call(abi.encodeWithSelector(SELECTOR, to, value));\r\n        require(success && (data.length == 0 || abi.decode(data, (bool))), 'TRANSFER_FAILED');\r\n    }\r\n\r\n    function _update(uint balance0, uint balance1, uint112 _reserve0, uint112 _reserve1) private {\r\n        require(balance0 <= type(uint112).max && balance1 <= type(uint112).max, 'OVERFLOW');\r\n        uint32 blockTimestamp = uint32(block.timestamp % 2**32);\r\n        uint32 timeElapsed = blockTimestamp - blockTimestampLast;\r\n        if (timeElapsed > 0 && _reserve0 != 0 && _reserve1 != 0) {\r\n            price0CumulativeLast += uint(UQ112x112.encode(_reserve1).uqdiv(_reserve0)) * timeElapsed;\r\n            price1CumulativeLast += uint(UQ112x112.encode(_reserve0).uqdiv(_reserve1)) * timeElapsed;\r\n        }\r\n        reserve0 = uint112(balance0);\r\n        reserve1 = uint112(balance1);\r\n        blockTimestampLast = blockTimestamp;\r\n        emit Sync(reserve0, reserve1);\r\n    }\r\n\r\n    function mint(address to) external lock returns (uint liquidity) {\r\n        (uint112 _reserve0, uint112 _reserve1,) = getReserves();\r\n\r\n        uint balance0 = IERC20(token0).balanceOf(address(this));\r\n        uint balance1 = IERC20(token1).balanceOf(address(this));\r\n\r\n        uint amount0 = balance0.sub(_reserve0);\r\n        uint amount1 = balance1.sub(_reserve1);\r\n\r\n        bool feeOn = _mintFee(_reserve0, _reserve1);\r\n\r\n        uint _totalSupply = totalSupply;\r\n        if (_totalSupply == 0) {\r\n            liquidity = Math.sqrt(amount0.mul(amount1)).sub(MINIMUM_LIQUIDITY);\r\n           _mint(address(0), MINIMUM_LIQUIDITY);\r\n        } else {\r\n            liquidity = Math.min(amount0.mul(_totalSupply) / _reserve0, amount1.mul(_totalSupply) / _reserve1);\r\n        }\r\n\r\n        require(liquidity > 0, 'INSUFFICIENT_LIQUIDITY_MINTED');\r\n        _mint(to, liquidity);\r\n\r\n        _update(balance0, balance1, _reserve0, _reserve1);\r\n        if (feeOn) kLast = uint(reserve0).mul(reserve1);\r\n\r\n        emit Mint(msg.sender, amount0, amount1);\r\n    }\r\n\r\n    function burn(address to) external lock returns (uint amount0, uint amount1) {\r\n        (uint112 _reserve0, uint112 _reserve1,) = getReserves();\r\n        address _token0 = token0;\r\n        address _token1 = token1;\r\n\r\n        uint balance0 = IERC20(_token0).balanceOf(address(this));\r\n        uint balance1 = IERC20(_token1).balanceOf(address(this));\r\n\r\n        uint liquidity = balanceOf[address(this)];\r\n\r\n        bool feeOn = _mintFee(_reserve0, _reserve1);\r\n\r\n        uint _totalSupply = totalSupply;\r\n        amount0 = liquidity.mul(balance0) / _totalSupply;\r\n        amount1 = liquidity.mul(balance1) / _totalSupply;\r\n        require(amount0 > 0 && amount1 > 0, 'INSUFFICIENT_LIQUIDITY_BURNED');\r\n\r\n        _burn(address(this), liquidity);\r\n\r\n        _safeTransfer(_token0, to, amount0);\r\n        _safeTransfer(_token1, to, amount1);\r\n\r\n        balance0 = IERC20(_token0).balanceOf(address(this));\r\n        balance1 = IERC20(_token1).balanceOf(address(this));\r\n\r\n        _update(balance0, balance1, _reserve0, _reserve1);\r\n        if (feeOn) kLast = uint(reserve0).mul(reserve1);\r\n\r\n        emit Burn(msg.sender, amount0, amount1, to);\r\n    }\r\n\r\n    function _rewardFeeTo(\r\n        uint amount0Out,\r\n        uint amount1Out\r\n    ) \r\n        private\r\n    {\r\n        address _token0 = token0;\r\n        address _token1 = token1;\r\n        address _feeTo = IMyFactory(factory).feeTo();\r\n        address _feeTo2 = IMyFactory(factory).feeTo2();\r\n        address _feeTo3 = IMyFactory(factory).feeTo3();\r\n\r\n        // 0.05% fee\r\n        uint _amount0FeeAll = amount0Out * 5 / 10000;\r\n        uint _amount1FeeAll = amount1Out * 5 / 10000;\r\n\r\n        if (amount0Out > 0) {\r\n            // feeTo 0.01%\r\n            _safeTransfer(_token0, _feeTo, _amount0FeeAll * 1 / 5);\r\n            // feeTo2 0.02%\r\n            _safeTransfer(_token0, _feeTo2, _amount0FeeAll * 2 / 5);\r\n            // feeTo3 0.02%\r\n            _safeTransfer(_token0, _feeTo3, _amount0FeeAll * 2 / 5);\r\n        }\r\n        if (amount1Out > 0) {\r\n            _safeTransfer(_token1, _feeTo, _amount1FeeAll * 1 / 5);\r\n            _safeTransfer(_token1, _feeTo2, _amount1FeeAll * 2 / 5);\r\n            _safeTransfer(_token1, _feeTo3, _amount1FeeAll * 2 / 5);\r\n        }\r\n    }\r\n\r\n    function swap(uint amount0Out, uint amount1Out, address to) external lock {\r\n        require(amount0Out > 0 || amount1Out > 0, 'INSUFFICIENT_OUTPUT_AMOUNT');\r\n\r\n        (uint112 _reserve0, uint112 _reserve1,) = getReserves();\r\n        require(amount0Out < _reserve0 && amount1Out < _reserve1, 'INSUFFICIENT_LIQUIDITY');\r\n\r\n        // The translation is: \"In total, it's 0.05%: 0.01% is given to feeTo, 0.02% is given to feeTo2, and 0.02% is given to feeTo3.\"\r\n        _rewardFeeTo(amount0Out, amount1Out);\r\n        amount0Out -= amount0Out * 5 / 10000;\r\n        amount1Out -= amount1Out * 5 / 10000;\r\n\r\n        uint balance0;\r\n        uint balance1;\r\n\r\n        {\r\n        address _token0 = token0;\r\n        address _token1 = token1;\r\n        require(to != _token0 && to != _token1, 'INVALID_TO');\r\n\r\n        if (amount0Out > 0) _safeTransfer(_token0, to, amount0Out);\r\n        if (amount1Out > 0) _safeTransfer(_token1, to, amount1Out);\r\n\r\n        balance0 = IERC20(_token0).balanceOf(address(this));\r\n        balance1 = IERC20(_token1).balanceOf(address(this));\r\n        }\r\n\r\n        uint amount0In = balance0 > _reserve0 - amount0Out ? balance0 - (_reserve0 - amount0Out) : 0;\r\n        uint amount1In = balance1 > _reserve1 - amount1Out ? balance1 - (_reserve1 - amount1Out) : 0;\r\n        require(amount0In > 0 || amount1In > 0, 'INSUFFICIENT_INPUT_AMOUNT');\r\n\r\n        {\r\n        uint balance0Adjusted = balance0.mul(10000).sub(amount0In.mul(15));\r\n        uint balance1Adjusted = balance1.mul(10000).sub(amount1In.mul(15));\r\n        require(balance0Adjusted.mul(balance1Adjusted) >= uint(_reserve0).mul(_reserve1).mul(10000**2), 'K');\r\n        }\r\n\r\n        _update(balance0, balance1, _reserve0, _reserve1);\r\n\r\n        emit Swap(msg.sender, amount0In, amount1In, amount0Out, amount1Out, to);\r\n    }\r\n}",
  "sourcePath": "C:\\Users\\Archie Stevens\\Downloads\\FTGP_0521\\contracts\\MyPair.sol",
  "compiler": {
    "name": "solc",
    "version": "0.8.20+commit.a1b79de6.Emscripten.clang"
  },
  "schemaVersion": "3.4.13",
  "updatedAt": "2023-05-21T15:58:57.270Z",
  "devdoc": {
    "kind": "dev",
    "methods": {},
    "version": 1
  },
  "userdoc": {
    "kind": "user",
    "methods": {},
    "version": 1
  }
}