{
  "contractName": "MyRouter",
  "abi": [
    {
      "inputs": [
        {
          "internalType": "address",
          "name": "_factory",
          "type": "address"
        },
        {
          "internalType": "address",
          "name": "_WETH",
          "type": "address"
        }
      ],
      "stateMutability": "nonpayable",
      "type": "constructor"
    },
    {
      "inputs": [],
      "name": "WETH",
      "outputs": [
        {
          "internalType": "address",
          "name": "",
          "type": "address"
        }
      ],
      "stateMutability": "view",
      "type": "function"
    },
    {
      "inputs": [],
      "name": "factory",
      "outputs": [
        {
          "internalType": "address",
          "name": "",
          "type": "address"
        }
      ],
      "stateMutability": "view",
      "type": "function"
    },
    {
      "stateMutability": "payable",
      "type": "receive"
    },
    {
      "inputs": [
        {
          "internalType": "address",
          "name": "tokenA",
          "type": "address"
        },
        {
          "internalType": "address",
          "name": "tokenB",
          "type": "address"
        },
        {
          "internalType": "uint256",
          "name": "amountADesired",
          "type": "uint256"
        },
        {
          "internalType": "uint256",
          "name": "amountBDesired",
          "type": "uint256"
        },
        {
          "internalType": "uint256",
          "name": "amountAMin",
          "type": "uint256"
        },
        {
          "internalType": "uint256",
          "name": "amountBMin",
          "type": "uint256"
        },
        {
          "internalType": "address",
          "name": "to",
          "type": "address"
        },
        {
          "internalType": "uint256",
          "name": "deadline",
          "type": "uint256"
        }
      ],
      "name": "addLiquidity",
      "outputs": [
        {
          "internalType": "uint256",
          "name": "amountA",
          "type": "uint256"
        },
        {
          "internalType": "uint256",
          "name": "amountB",
          "type": "uint256"
        },
        {
          "internalType": "uint256",
          "name": "liquidity",
          "type": "uint256"
        }
      ],
      "stateMutability": "nonpayable",
      "type": "function"
    },
    {
      "inputs": [
        {
          "internalType": "address",
          "name": "token",
          "type": "address"
        },
        {
          "internalType": "uint256",
          "name": "amountTokenDesired",
          "type": "uint256"
        },
        {
          "internalType": "uint256",
          "name": "amountTokenMin",
          "type": "uint256"
        },
        {
          "internalType": "uint256",
          "name": "amountETHMin",
          "type": "uint256"
        },
        {
          "internalType": "address",
          "name": "to",
          "type": "address"
        },
        {
          "internalType": "uint256",
          "name": "deadline",
          "type": "uint256"
        }
      ],
      "name": "addLiquidityETH",
      "outputs": [
        {
          "internalType": "uint256",
          "name": "amountToken",
          "type": "uint256"
        },
        {
          "internalType": "uint256",
          "name": "amountETH",
          "type": "uint256"
        },
        {
          "internalType": "uint256",
          "name": "liquidity",
          "type": "uint256"
        }
      ],
      "stateMutability": "payable",
      "type": "function"
    },
    {
      "inputs": [
        {
          "internalType": "address",
          "name": "tokenA",
          "type": "address"
        },
        {
          "internalType": "address",
          "name": "tokenB",
          "type": "address"
        },
        {
          "internalType": "uint256",
          "name": "liquidity",
          "type": "uint256"
        },
        {
          "internalType": "uint256",
          "name": "amountAMin",
          "type": "uint256"
        },
        {
          "internalType": "uint256",
          "name": "amountBMin",
          "type": "uint256"
        },
        {
          "internalType": "address",
          "name": "to",
          "type": "address"
        },
        {
          "internalType": "uint256",
          "name": "deadline",
          "type": "uint256"
        }
      ],
      "name": "removeLiquidity",
      "outputs": [
        {
          "internalType": "uint256",
          "name": "amountA",
          "type": "uint256"
        },
        {
          "internalType": "uint256",
          "name": "amountB",
          "type": "uint256"
        }
      ],
      "stateMutability": "nonpayable",
      "type": "function"
    },
    {
      "inputs": [
        {
          "internalType": "address",
          "name": "token",
          "type": "address"
        },
        {
          "internalType": "uint256",
          "name": "liquidity",
          "type": "uint256"
        },
        {
          "internalType": "uint256",
          "name": "amountTokenMin",
          "type": "uint256"
        },
        {
          "internalType": "uint256",
          "name": "amountETHMin",
          "type": "uint256"
        },
        {
          "internalType": "address",
          "name": "to",
          "type": "address"
        },
        {
          "internalType": "uint256",
          "name": "deadline",
          "type": "uint256"
        }
      ],
      "name": "removeLiquidityETH",
      "outputs": [
        {
          "internalType": "uint256",
          "name": "amountToken",
          "type": "uint256"
        },
        {
          "internalType": "uint256",
          "name": "amountETH",
          "type": "uint256"
        }
      ],
      "stateMutability": "nonpayable",
      "type": "function"
    },
    {
      "inputs": [
        {
          "internalType": "address",
          "name": "tokenA",
          "type": "address"
        },
        {
          "internalType": "address",
          "name": "tokenB",
          "type": "address"
        },
        {
          "internalType": "uint256",
          "name": "liquidity",
          "type": "uint256"
        },
        {
          "internalType": "uint256",
          "name": "amountAMin",
          "type": "uint256"
        },
        {
          "internalType": "uint256",
          "name": "amountBMin",
          "type": "uint256"
        },
        {
          "internalType": "address",
          "name": "to",
          "type": "address"
        },
        {
          "internalType": "uint256",
          "name": "deadline",
          "type": "uint256"
        },
        {
          "internalType": "bool",
          "name": "approveMax",
          "type": "bool"
        },
        {
          "internalType": "uint8",
          "name": "v",
          "type": "uint8"
        },
        {
          "internalType": "bytes32",
          "name": "r",
          "type": "bytes32"
        },
        {
          "internalType": "bytes32",
          "name": "s",
          "type": "bytes32"
        }
      ],
      "name": "removeLiquidityWithPermit",
      "outputs": [
        {
          "internalType": "uint256",
          "name": "amountA",
          "type": "uint256"
        },
        {
          "internalType": "uint256",
          "name": "amountB",
          "type": "uint256"
        }
      ],
      "stateMutability": "nonpayable",
      "type": "function"
    },
    {
      "inputs": [
        {
          "internalType": "address",
          "name": "token",
          "type": "address"
        },
        {
          "internalType": "uint256",
          "name": "liquidity",
          "type": "uint256"
        },
        {
          "internalType": "uint256",
          "name": "amountTokenMin",
          "type": "uint256"
        },
        {
          "internalType": "uint256",
          "name": "amountETHMin",
          "type": "uint256"
        },
        {
          "internalType": "address",
          "name": "to",
          "type": "address"
        },
        {
          "internalType": "uint256",
          "name": "deadline",
          "type": "uint256"
        },
        {
          "internalType": "bool",
          "name": "approveMax",
          "type": "bool"
        },
        {
          "internalType": "uint8",
          "name": "v",
          "type": "uint8"
        },
        {
          "internalType": "bytes32",
          "name": "r",
          "type": "bytes32"
        },
        {
          "internalType": "bytes32",
          "name": "s",
          "type": "bytes32"
        }
      ],
      "name": "removeLiquidityETHWithPermit",
      "outputs": [
        {
          "internalType": "uint256",
          "name": "amountToken",
          "type": "uint256"
        },
        {
          "internalType": "uint256",
          "name": "amountETH",
          "type": "uint256"
        }
      ],
      "stateMutability": "nonpayable",
      "type": "function"
    },
    {
      "inputs": [
        {
          "internalType": "uint256",
          "name": "amountIn",
          "type": "uint256"
        },
        {
          "internalType": "uint256",
          "name": "amountOutMin",
          "type": "uint256"
        },
        {
          "internalType": "address[]",
          "name": "path",
          "type": "address[]"
        },
        {
          "internalType": "address",
          "name": "to",
          "type": "address"
        },
        {
          "internalType": "uint256",
          "name": "deadline",
          "type": "uint256"
        }
      ],
      "name": "swapExactTokensForTokens",
      "outputs": [
        {
          "internalType": "uint256[]",
          "name": "amounts",
          "type": "uint256[]"
        }
      ],
      "stateMutability": "nonpayable",
      "type": "function"
    },
    {
      "inputs": [
        {
          "internalType": "uint256",
          "name": "amountOut",
          "type": "uint256"
        },
        {
          "internalType": "uint256",
          "name": "amountInMax",
          "type": "uint256"
        },
        {
          "internalType": "address[]",
          "name": "path",
          "type": "address[]"
        },
        {
          "internalType": "address",
          "name": "to",
          "type": "address"
        },
        {
          "internalType": "uint256",
          "name": "deadline",
          "type": "uint256"
        }
      ],
      "name": "swapTokensForExactTokens",
      "outputs": [
        {
          "internalType": "uint256[]",
          "name": "amounts",
          "type": "uint256[]"
        }
      ],
      "stateMutability": "nonpayable",
      "type": "function"
    },
    {
      "inputs": [
        {
          "internalType": "uint256",
          "name": "amountOutMin",
          "type": "uint256"
        },
        {
          "internalType": "address[]",
          "name": "path",
          "type": "address[]"
        },
        {
          "internalType": "address",
          "name": "to",
          "type": "address"
        },
        {
          "internalType": "uint256",
          "name": "deadline",
          "type": "uint256"
        }
      ],
      "name": "swapExactETHForTokens",
      "outputs": [
        {
          "internalType": "uint256[]",
          "name": "amounts",
          "type": "uint256[]"
        }
      ],
      "stateMutability": "payable",
      "type": "function"
    },
    {
      "inputs": [
        {
          "internalType": "uint256",
          "name": "amountOut",
          "type": "uint256"
        },
        {
          "internalType": "uint256",
          "name": "amountInMax",
          "type": "uint256"
        },
        {
          "internalType": "address[]",
          "name": "path",
          "type": "address[]"
        },
        {
          "internalType": "address",
          "name": "to",
          "type": "address"
        },
        {
          "internalType": "uint256",
          "name": "deadline",
          "type": "uint256"
        }
      ],
      "name": "swapTokensForExactETH",
      "outputs": [
        {
          "internalType": "uint256[]",
          "name": "amounts",
          "type": "uint256[]"
        }
      ],
      "stateMutability": "nonpayable",
      "type": "function"
    },
    {
      "inputs": [
        {
          "internalType": "uint256",
          "name": "amountIn",
          "type": "uint256"
        },
        {
          "internalType": "uint256",
          "name": "amountOutMin",
          "type": "uint256"
        },
        {
          "internalType": "address[]",
          "name": "path",
          "type": "address[]"
        },
        {
          "internalType": "address",
          "name": "to",
          "type": "address"
        },
        {
          "internalType": "uint256",
          "name": "deadline",
          "type": "uint256"
        }
      ],
      "name": "swapExactTokensForETH",
      "outputs": [
        {
          "internalType": "uint256[]",
          "name": "amounts",
          "type": "uint256[]"
        }
      ],
      "stateMutability": "nonpayable",
      "type": "function"
    },
    {
      "inputs": [
        {
          "internalType": "uint256",
          "name": "amountOut",
          "type": "uint256"
        },
        {
          "internalType": "address[]",
          "name": "path",
          "type": "address[]"
        },
        {
          "internalType": "address",
          "name": "to",
          "type": "address"
        },
        {
          "internalType": "uint256",
          "name": "deadline",
          "type": "uint256"
        }
      ],
      "name": "swapETHForExactTokens",
      "outputs": [
        {
          "internalType": "uint256[]",
          "name": "amounts",
          "type": "uint256[]"
        }
      ],
      "stateMutability": "payable",
      "type": "function"
    },
    {
      "inputs": [
        {
          "internalType": "address",
          "name": "tokenA",
          "type": "address"
        },
        {
          "internalType": "address",
          "name": "tokenB",
          "type": "address"
        }
      ],
      "name": "sortTokens",
      "outputs": [
        {
          "internalType": "address",
          "name": "token0",
          "type": "address"
        },
        {
          "internalType": "address",
          "name": "token1",
          "type": "address"
        }
      ],
      "stateMutability": "pure",
      "type": "function"
    },
    {
      "inputs": [
        {
          "internalType": "address",
          "name": "tokenA",
          "type": "address"
        },
        {
          "internalType": "address",
          "name": "tokenB",
          "type": "address"
        }
      ],
      "name": "pairFor",
      "outputs": [
        {
          "internalType": "address",
          "name": "pair",
          "type": "address"
        }
      ],
      "stateMutability": "view",
      "type": "function"
    },
    {
      "inputs": [
        {
          "internalType": "address",
          "name": "tokenA",
          "type": "address"
        },
        {
          "internalType": "address",
          "name": "tokenB",
          "type": "address"
        }
      ],
      "name": "getReserves",
      "outputs": [
        {
          "internalType": "uint256",
          "name": "reserveA",
          "type": "uint256"
        },
        {
          "internalType": "uint256",
          "name": "reserveB",
          "type": "uint256"
        }
      ],
      "stateMutability": "view",
      "type": "function"
    },
    {
      "inputs": [
        {
          "internalType": "uint256",
          "name": "amountA",
          "type": "uint256"
        },
        {
          "internalType": "uint256",
          "name": "reserveA",
          "type": "uint256"
        },
        {
          "internalType": "uint256",
          "name": "reserveB",
          "type": "uint256"
        }
      ],
      "name": "quote",
      "outputs": [
        {
          "internalType": "uint256",
          "name": "amountB",
          "type": "uint256"
        }
      ],
      "stateMutability": "pure",
      "type": "function"
    },
    {
      "inputs": [
        {
          "internalType": "uint256",
          "name": "amountIn",
          "type": "uint256"
        },
        {
          "internalType": "uint256",
          "name": "reserveIn",
          "type": "uint256"
        },
        {
          "internalType": "uint256",
          "name": "reserveOut",
          "type": "uint256"
        }
      ],
      "name": "getAmountOut",
      "outputs": [
        {
          "internalType": "uint256",
          "name": "amountOut",
          "type": "uint256"
        }
      ],
      "stateMutability": "pure",
      "type": "function"
    },
    {
      "inputs": [
        {
          "internalType": "uint256",
          "name": "amountOut",
          "type": "uint256"
        },
        {
          "internalType": "uint256",
          "name": "reserveIn",
          "type": "uint256"
        },
        {
          "internalType": "uint256",
          "name": "reserveOut",
          "type": "uint256"
        }
      ],
      "name": "getAmountIn",
      "outputs": [
        {
          "internalType": "uint256",
          "name": "amountIn",
          "type": "uint256"
        }
      ],
      "stateMutability": "pure",
      "type": "function"
    },
    {
      "inputs": [
        {
          "internalType": "uint256",
          "name": "amountIn",
          "type": "uint256"
        },
        {
          "internalType": "address[]",
          "name": "path",
          "type": "address[]"
        }
      ],
      "name": "getAmountsOut",
      "outputs": [
        {
          "internalType": "uint256[]",
          "name": "amounts",
          "type": "uint256[]"
        }
      ],
      "stateMutability": "view",
      "type": "function"
    },
    {
      "inputs": [
        {
          "internalType": "uint256",
          "name": "amountOut",
          "type": "uint256"
        },
        {
          "internalType": "address[]",
          "name": "path",
          "type": "address[]"
        }
      ],
      "name": "getAmountsIn",
      "outputs": [
        {
          "internalType": "uint256[]",
          "name": "amounts",
          "type": "uint256[]"
        }
      ],
      "stateMutability": "view",
      "type": "function"
    }
  ],
  "bytecode": "0x60c060405234801562000010575f80fd5b50604051620030ca380380620030ca833981016040819052620000339162000067565b6001600160a01b039182166080521660a0526200009d565b80516001600160a01b038116811462000062575f80fd5b919050565b5f806040838503121562000079575f80fd5b62000084836200004b565b915062000094602084016200004b565b90509250929050565b60805160a051612f78620001525f395f81816101440152818161035d015281816104df0152818161052e015281816106940152818161086b01528181610c7d01528181610e5d01528181610f5801528181610fe101528181611833015281816119f401528181611a2801528181611a5c01528181611aed01528181611c2001528181611d0e0152611d9701525f81816103ce0152818161128d015281816112c8015281816124da015261257a0152612f785ff3fe608060405260043610610134575f3560e01c806396ed28f9116100a8578063d06ca61f1161006d578063d06ca61f146103f0578063d52bb6f41461040f578063ded9382a1461042e578063e8e337001461044d578063f305d71914610487578063fb3bdb411461049a575f80fd5b806396ed28f914610315578063ad5c46481461034c578063ad615dec1461037f578063baa2abde1461039e578063c45a0155146103bd575f80fd5b806338ed1739116100f957806338ed1739146102475780634a25d94a14610266578063544caa56146102855780637ff36ab5146102c457806385f8c259146102d75780638803dbee146102f6575f80fd5b806302751cec14610177578063054d50d4146101b057806318cbafe5146101dd5780631f00ca74146102095780632195995c14610228575f80fd5b3661017357336001600160a01b037f00000000000000000000000000000000000000000000000000000000000000001614610171576101716126f6565b005b5f80fd5b348015610182575f80fd5b50610196610191366004612731565b6104ad565b604080519283526020830191909152015b60405180910390f35b3480156101bb575f80fd5b506101cf6101ca36600461278b565b6105a3565b6040519081526020016101a7565b3480156101e8575f80fd5b506101fc6101f73660046127f5565b610667565b6040516101a79190612863565b348015610214575f80fd5b506101fc6102233660046128ba565b610945565b348015610233575f80fd5b506101966102423660046129a3565b610aa7565b348015610252575f80fd5b506101fc6102613660046127f5565b610b56565b348015610271575f80fd5b506101fc6102803660046127f5565b610c50565b348015610290575f80fd5b506102a461029f366004612a46565b610d6b565b604080516001600160a01b039384168152929091166020830152016101a7565b6101fc6102d2366004612a7d565b610e38565b3480156102e2575f80fd5b506101cf6102f136600461278b565b61112a565b348015610301575f80fd5b506101fc6103103660046127f5565b6111b9565b348015610320575f80fd5b5061033461032f366004612a46565b611253565b6040516001600160a01b0390911681526020016101a7565b348015610357575f80fd5b506103347f000000000000000000000000000000000000000000000000000000000000000081565b34801561038a575f80fd5b506101cf61039936600461278b565b6113ab565b3480156103a9575f80fd5b506101966103b8366004612adf565b611438565b3480156103c8575f80fd5b506103347f000000000000000000000000000000000000000000000000000000000000000081565b3480156103fb575f80fd5b506101fc61040a3660046128ba565b611625565b34801561041a575f80fd5b50610196610429366004612a46565b611767565b348015610439575f80fd5b50610196610448366004612b4c565b61182a565b348015610458575f80fd5b5061046c610467366004612bdc565b6118f3565b604080519384526020840192909252908201526060016101a7565b61046c610495366004612731565b6119ca565b6101fc6104a8366004612a7d565b611bfb565b5f8082428110156104d95760405162461bcd60e51b81526004016104d090612c53565b60405180910390fd5b610508897f00000000000000000000000000000000000000000000000000000000000000008a8a8a308a611438565b9093509150610518898685611ef8565b604051632e1a7d4d60e01b8152600481018390527f00000000000000000000000000000000000000000000000000000000000000006001600160a01b031690632e1a7d4d906024015f604051808303815f87803b158015610577575f80fd5b505af1158015610589573d5f803e3d5ffd5b50505050610597858361200e565b50965096945050505050565b5f8084116105f35760405162461bcd60e51b815260206004820152601960248201527f494e53554646494349454e545f494e5055545f414d4f554e540000000000000060448201526064016104d0565b5f8311801561060157505f82115b61061d5760405162461bcd60e51b81526004016104d090612c74565b5f61062a856103e66120d8565b90505f61063782856120d8565b90505f6106508361064a886103e86120d8565b90612144565b905061065c8183612cb8565b979650505050505050565b6060814281101561068a5760405162461bcd60e51b81526004016104d090612c53565b6001600160a01b037f00000000000000000000000000000000000000000000000000000000000000001686866106c1600182612cd7565b8181106106d0576106d0612cea565b90506020020160208101906106e59190612cfe565b6001600160a01b03161461070b5760405162461bcd60e51b81526004016104d090612d20565b610747888787808060200260200160405190810160405280939291908181526020018383602002808284375f9201919091525061162592505050565b91508682600184516107599190612cd7565b8151811061076957610769612cea565b6020026020010151101561078f5760405162461bcd60e51b81526004016104d090612d46565b61082b86865f8181106107a4576107a4612cea565b90506020020160208101906107b99190612cfe565b3361080c89895f8181106107cf576107cf612cea565b90506020020160208101906107e49190612cfe565b8a8a60018181106107f7576107f7612cea565b905060200201602081019061032f9190612cfe565b855f8151811061081e5761081e612cea565b6020026020010151612198565b610869828787808060200260200160405190810160405280939291908181526020018383602002808284375f920191909152503092506122c3915050565b7f00000000000000000000000000000000000000000000000000000000000000006001600160a01b0316632e1a7d4d83600185516108a79190612cd7565b815181106108b7576108b7612cea565b60200260200101516040518263ffffffff1660e01b81526004016108dd91815260200190565b5f604051808303815f87803b1580156108f4575f80fd5b505af1158015610906573d5f803e3d5ffd5b5050505061093a84836001855161091d9190612cd7565b8151811061092d5761092d612cea565b602002602001015161200e565b509695505050505050565b60606002825110156109695760405162461bcd60e51b81526004016104d090612d20565b815167ffffffffffffffff811115610983576109836128a6565b6040519080825280602002602001820160405280156109ac578160200160208202803683370190505b5090508281600183516109bf9190612cd7565b815181106109cf576109cf612cea565b6020026020010181815250505f600183516109ea9190612cd7565b90505b8015610aa0575f80610a3b85610a04600186612cd7565b81518110610a1457610a14612cea565b6020026020010151868581518110610a2e57610a2e612cea565b6020026020010151611767565b91509150610a63848481518110610a5457610a54612cea565b6020026020010151838361112a565b84610a6f600186612cd7565b81518110610a7f57610a7f612cea565b60200260200101818152505050508080610a9890612d7d565b9150506109ed565b5092915050565b5f805f610ab48e8e611253565b90505f87610ac2578c610ac5565b5f195b60405163d505accf60e01b81529091506001600160a01b0383169063d505accf90610b00903390309086908f908e908e908e90600401612d92565b5f604051808303815f87803b158015610b17575f80fd5b505af1158015610b29573d5f803e3d5ffd5b50505050610b3c8f8f8f8f8f8f8f611438565b809450819550505050509b509b9950505050505050505050565b60608142811015610b795760405162461bcd60e51b81526004016104d090612c53565b610bb5888787808060200260200160405190810160405280939291908181526020018383602002808284375f9201919091525061162592505050565b9150868260018451610bc79190612cd7565b81518110610bd757610bd7612cea565b60200260200101511015610bfd5760405162461bcd60e51b81526004016104d090612d46565b610c1286865f8181106107a4576107a4612cea565b61093a828787808060200260200160405190810160405280939291908181526020018383602002808284375f920191909152508992506122c3915050565b60608142811015610c735760405162461bcd60e51b81526004016104d090612c53565b6001600160a01b037f0000000000000000000000000000000000000000000000000000000000000000168686610caa600182612cd7565b818110610cb957610cb9612cea565b9050602002016020810190610cce9190612cfe565b6001600160a01b031614610cf45760405162461bcd60e51b81526004016104d090612d20565b610d30888787808060200260200160405190810160405280939291908181526020018383602002808284375f9201919091525061094592505050565b915086825f81518110610d4557610d45612cea565b6020026020010151111561078f5760405162461bcd60e51b81526004016104d090612dd3565b5f80826001600160a01b0316846001600160a01b031603610dc45760405162461bcd60e51b81526020600482015260136024820152724944454e544943414c5f41444452455353455360681b60448201526064016104d0565b826001600160a01b0316846001600160a01b031610610de4578284610de7565b83835b90925090506001600160a01b038216610e315760405162461bcd60e51b815260206004820152600c60248201526b5a45524f5f4144445245535360a01b60448201526064016104d0565b9250929050565b60608142811015610e5b5760405162461bcd60e51b81526004016104d090612c53565b7f00000000000000000000000000000000000000000000000000000000000000006001600160a01b031686865f818110610e9757610e97612cea565b9050602002016020810190610eac9190612cfe565b6001600160a01b031614610ed25760405162461bcd60e51b81526004016104d090612d20565b610f0e348787808060200260200160405190810160405280939291908181526020018383602002808284375f9201919091525061162592505050565b9150868260018451610f209190612cd7565b81518110610f3057610f30612cea565b60200260200101511015610f565760405162461bcd60e51b81526004016104d090612d46565b7f00000000000000000000000000000000000000000000000000000000000000006001600160a01b031663d0e30db0835f81518110610f9757610f97612cea565b60200260200101516040518263ffffffff1660e01b81526004015f604051808303818588803b158015610fc8575f80fd5b505af1158015610fda573d5f803e3d5ffd5b50505050507f00000000000000000000000000000000000000000000000000000000000000006001600160a01b031663a9059cbb61104b88885f81811061102357611023612cea565b90506020020160208101906110389190612cfe565b898960018181106107f7576107f7612cea565b845f8151811061105d5761105d612cea565b60200260200101516040518363ffffffff1660e01b81526004016110969291906001600160a01b03929092168252602082015260400190565b6020604051808303815f875af11580156110b2573d5f803e3d5ffd5b505050506040513d601f19601f820116820180604052508101906110d69190612e03565b6110e2576110e26126f6565b611120828787808060200260200160405190810160405280939291908181526020018383602002808284375f920191909152508992506122c3915050565b5095945050505050565b5f80841161114a5760405162461bcd60e51b81526004016104d090612d46565b5f8311801561115857505f82115b6111745760405162461bcd60e51b81526004016104d090612c74565b5f61118b6103e861118586886120d8565b906120d8565b90505f61119e6103e66111858689612458565b90506111af600161064a8385612cb8565b9695505050505050565b606081428110156111dc5760405162461bcd60e51b81526004016104d090612c53565b611218888787808060200260200160405190810160405280939291908181526020018383602002808284375f9201919091525061094592505050565b915086825f8151811061122d5761122d612cea565b60200260200101511115610bfd5760405162461bcd60e51b81526004016104d090612dd3565b5f805f6112608585610d6b565b6040516bffffffffffffffffffffffff19606084811b8216602084015283901b16603482015291935091507f000000000000000000000000000000000000000000000000000000000000000090604801604051602081830303815290604052805190602001207f00000000000000000000000000000000000000000000000000000000000000006001600160a01b0316635855a25a6040518163ffffffff1660e01b8152600401602060405180830381865afa158015611322573d5f803e3d5ffd5b505050506040513d601f19601f820116820180604052508101906113469190612e1e565b6040516001600160f81b0319602082015260609390931b6bffffffffffffffffffffffff191660218401526035830191909152605582015260750160408051601f1981840301815291905280516020909101206001600160a01b031695945050505050565b5f8084116113f15760405162461bcd60e51b8152602060048201526013602482015272125394d551919250d251539517d05353d55395606a1b60448201526064016104d0565b5f831180156113ff57505f82115b61141b5760405162461bcd60e51b81526004016104d090612c74565b8261142685846120d8565b6114309190612cb8565b949350505050565b5f80824281101561145b5760405162461bcd60e51b81526004016104d090612c53565b5f6114668b8b611253565b6040516323b872dd60e01b81523360048201526001600160a01b03821660248201819052604482018c90529192506323b872dd906064016020604051808303815f875af11580156114b9573d5f803e3d5ffd5b505050506040513d601f19601f820116820180604052508101906114dd9190612e03565b5060405163226bf2d160e21b81526001600160a01b0387811660048301525f9182918416906389afcb449060240160408051808303815f875af1158015611526573d5f803e3d5ffd5b505050506040513d601f19601f8201168201806040525081019061154a9190612e35565b915091505f6115598e8e610d6b565b509050806001600160a01b03168e6001600160a01b03161461157c57818361157f565b82825b90975095508a8710156115cc5760405162461bcd60e51b8152602060048201526015602482015274125394d551919250d251539517d057d05353d55395605a1b60448201526064016104d0565b898610156116145760405162461bcd60e51b8152602060048201526015602482015274125394d551919250d251539517d097d05353d55395605a1b60448201526064016104d0565b505050505097509795505050505050565b60606002825110156116495760405162461bcd60e51b81526004016104d090612d20565b815167ffffffffffffffff811115611663576116636128a6565b60405190808252806020026020018201604052801561168c578160200160208202803683370190505b50905082815f815181106116a2576116a2612cea565b6020026020010181815250505f5b600183516116be9190612cd7565b811015610aa0575f806117028584815181106116dc576116dc612cea565b6020026020010151868560016116f29190612e57565b81518110610a2e57610a2e612cea565b9150915061172a84848151811061171b5761171b612cea565b602002602001015183836105a3565b84611736856001612e57565b8151811061174657611746612cea565b6020026020010181815250505050808061175f90612e6a565b9150506116b0565b5f805f6117748585610d6b565b5090505f806117838787611253565b6001600160a01b0316630902f1ac6040518163ffffffff1660e01b8152600401606060405180830381865afa1580156117be573d5f803e3d5ffd5b505050506040513d601f19601f820116820180604052508101906117e29190612e98565b506001600160701b031691506001600160701b03169150826001600160a01b0316876001600160a01b03161461181957808261181c565b81815b909890975095505050505050565b5f805f6118578d7f0000000000000000000000000000000000000000000000000000000000000000611253565b90505f87611865578c611868565b5f195b60405163d505accf60e01b81529091506001600160a01b0383169063d505accf906118a3903390309086908f908e908e908e90600401612d92565b5f604051808303815f87803b1580156118ba575f80fd5b505af11580156118cc573d5f803e3d5ffd5b505050506118de8e8e8e8e8e8e6104ad565b909f909e509c50505050505050505050505050565b5f805f83428110156119175760405162461bcd60e51b81526004016104d090612c53565b6119258c8c8c8c8c8c6124ad565b90945092505f6119358d8d611253565b90506119438d338388612198565b61194f8c338387612198565b6040516335313c2160e11b81526001600160a01b038881166004830152821690636a627842906024016020604051808303815f875af1158015611994573d5f803e3d5ffd5b505050506040513d601f19601f820116820180604052508101906119b89190612e1e565b92505050985098509895505050505050565b5f805f83428110156119ee5760405162461bcd60e51b81526004016104d090612c53565b611a1c8a7f00000000000000000000000000000000000000000000000000000000000000008b348c8c6124ad565b90945092505f611a4c8b7f0000000000000000000000000000000000000000000000000000000000000000611253565b9050611a5a8b338388612198565b7f00000000000000000000000000000000000000000000000000000000000000006001600160a01b031663d0e30db0856040518263ffffffff1660e01b81526004015f604051808303818588803b158015611ab3575f80fd5b505af1158015611ac5573d5f803e3d5ffd5b505060405163a9059cbb60e01b81526001600160a01b038581166004830152602482018990527f000000000000000000000000000000000000000000000000000000000000000016935063a9059cbb925060440190506020604051808303815f875af1158015611b37573d5f803e3d5ffd5b505050506040513d601f19601f82011682018060405250810190611b5b9190612e03565b611b6757611b676126f6565b6040516335313c2160e11b81526001600160a01b038881166004830152821690636a627842906024016020604051808303815f875af1158015611bac573d5f803e3d5ffd5b505050506040513d601f19601f82011682018060405250810190611bd09190612e1e565b925083341115611bed57611bed33611be88634612cd7565b61200e565b505096509650969350505050565b60608142811015611c1e5760405162461bcd60e51b81526004016104d090612c53565b7f00000000000000000000000000000000000000000000000000000000000000006001600160a01b031686865f818110611c5a57611c5a612cea565b9050602002016020810190611c6f9190612cfe565b6001600160a01b031614611c955760405162461bcd60e51b81526004016104d090612d20565b611cd1878787808060200260200160405190810160405280939291908181526020018383602002808284375f9201919091525061094592505050565b915034825f81518110611ce657611ce6612cea565b60200260200101511115611d0c5760405162461bcd60e51b81526004016104d090612dd3565b7f00000000000000000000000000000000000000000000000000000000000000006001600160a01b031663d0e30db0835f81518110611d4d57611d4d612cea565b60200260200101516040518263ffffffff1660e01b81526004015f604051808303818588803b158015611d7e575f80fd5b505af1158015611d90573d5f803e3d5ffd5b50505050507f00000000000000000000000000000000000000000000000000000000000000006001600160a01b031663a9059cbb611dd988885f81811061102357611023612cea565b845f81518110611deb57611deb612cea565b60200260200101516040518363ffffffff1660e01b8152600401611e249291906001600160a01b03929092168252602082015260400190565b6020604051808303815f875af1158015611e40573d5f803e3d5ffd5b505050506040513d601f19601f82011682018060405250810190611e649190612e03565b611e7057611e706126f6565b611eae828787808060200260200160405190810160405280939291908181526020018383602002808284375f920191909152508992506122c3915050565b815f81518110611ec057611ec0612cea565b60200260200101513411156111205761112033835f81518110611ee557611ee5612cea565b602002602001015134611be89190612cd7565b604080516001600160a01b038481166024830152604480830185905283518084039091018152606490920183526020820180516001600160e01b031663a9059cbb60e01b17905291515f92839290871691611f539190612ee4565b5f604051808303815f865af19150503d805f8114611f8c576040519150601f19603f3d011682016040523d82523d5f602084013e611f91565b606091505b5091509150818015611fbb575080511580611fbb575080806020019051810190611fbb9190612e03565b6120075760405162461bcd60e51b815260206004820152601f60248201527f5472616e7366657248656c7065723a205452414e534645525f4641494c45440060448201526064016104d0565b5050505050565b604080515f808252602082019092526001600160a01b0384169083906040516120379190612ee4565b5f6040518083038185875af1925050503d805f8114612071576040519150601f19603f3d011682016040523d82523d5f602084013e612076565b606091505b50509050806120d35760405162461bcd60e51b815260206004820152602360248201527f5472616e7366657248656c7065723a204554485f5452414e534645525f46414960448201526213115160ea1b60648201526084016104d0565b505050565b5f8115806120fb575082826120ed8183612f10565b92506120f99083612cb8565b145b61213e5760405162461bcd60e51b815260206004820152601460248201527364732d6d6174682d6d756c2d6f766572666c6f7760601b60448201526064016104d0565b92915050565b5f826121508382612e57565b915081101561213e5760405162461bcd60e51b815260206004820152601460248201527364732d6d6174682d6164642d6f766572666c6f7760601b60448201526064016104d0565b604080516001600160a01b0385811660248301528481166044830152606480830185905283518084039091018152608490920183526020820180516001600160e01b03166323b872dd60e01b17905291515f928392908816916121fb9190612ee4565b5f604051808303815f865af19150503d805f8114612234576040519150601f19603f3d011682016040523d82523d5f602084013e612239565b606091505b50915091508180156122635750805115806122635750808060200190518101906122639190612e03565b6122bb5760405162461bcd60e51b8152602060048201526024808201527f5472616e7366657248656c7065723a205452414e534645525f46524f4d5f46416044820152631253115160e21b60648201526084016104d0565b505050505050565b5f5b600183516122d39190612cd7565b811015612452575f808483815181106122ee576122ee612cea565b6020026020010151858460016123049190612e57565b8151811061231457612314612cea565b6020026020010151915091505f61232b8383610d6b565b5090505f8761233b866001612e57565b8151811061234b5761234b612cea565b602002602001015190505f80836001600160a01b0316866001600160a01b03161461237757825f61237a565b5f835b915091505f60028a5161238d9190612cd7565b881061239957886123c6565b6123c6868b6123a98b6002612e57565b815181106123b9576123b9612cea565b6020026020010151611253565b90506123d28787611253565b6040516336cd320560e11b815260048101859052602481018490526001600160a01b0383811660448301529190911690636d9a640a906064015f604051808303815f87803b158015612422575f80fd5b505af1158015612434573d5f803e3d5ffd5b5050505050505050505050808061244a90612e6a565b9150506122c5565b50505050565b5f826124648382612cd7565b915081111561213e5760405162461bcd60e51b815260206004820152601560248201527464732d6d6174682d7375622d756e646572666c6f7760581b60448201526064016104d0565b60405163e6a4390560e01b81526001600160a01b03878116600483015286811660248301525f91829182917f00000000000000000000000000000000000000000000000000000000000000009091169063e6a4390590604401602060405180830381865afa158015612521573d5f803e3d5ffd5b505050506040513d601f19601f820116820180604052508101906125459190612f27565b6001600160a01b0316036125e6576040516364e329cb60e11b81526001600160a01b03898116600483015288811660248301527f0000000000000000000000000000000000000000000000000000000000000000169063c9c65396906044016020604051808303815f875af11580156125c0573d5f803e3d5ffd5b505050506040513d601f19601f820116820180604052508101906125e49190612f27565b505b5f806125f28a8a611767565b91509150815f148015612603575080155b15612613578793508692506126e9565b5f61261f8984846113ab565b905087811161267b57858110156126705760405162461bcd60e51b8152602060048201526015602482015274125394d551919250d251539517d097d05353d55395605a1b60448201526064016104d0565b8894509250826126e7565b5f6126878984866113ab565b905089811115612699576126996126f6565b878110156126e15760405162461bcd60e51b8152602060048201526015602482015274125394d551919250d251539517d057d05353d55395605a1b60448201526064016104d0565b94508793505b505b5050965096945050505050565b634e487b7160e01b5f52600160045260245ffd5b6001600160a01b038116811461271e575f80fd5b50565b803561272c8161270a565b919050565b5f805f805f8060c08789031215612746575f80fd5b86356127518161270a565b955060208701359450604087013593506060870135925060808701356127768161270a565b8092505060a087013590509295509295509295565b5f805f6060848603121561279d575f80fd5b505081359360208301359350604090920135919050565b5f8083601f8401126127c4575f80fd5b50813567ffffffffffffffff8111156127db575f80fd5b6020830191508360208260051b8501011115610e31575f80fd5b5f805f805f8060a0878903121561280a575f80fd5b8635955060208701359450604087013567ffffffffffffffff81111561282e575f80fd5b61283a89828a016127b4565b909550935050606087013561284e8161270a565b80925050608087013590509295509295509295565b602080825282518282018190525f9190848201906040850190845b8181101561289a5783518352928401929184019160010161287e565b50909695505050505050565b634e487b7160e01b5f52604160045260245ffd5b5f80604083850312156128cb575f80fd5b8235915060208084013567ffffffffffffffff808211156128ea575f80fd5b818601915086601f8301126128fd575f80fd5b81358181111561290f5761290f6128a6565b8060051b604051601f19603f83011681018181108582111715612934576129346128a6565b604052918252848201925083810185019189831115612951575f80fd5b938501935b828510156129765761296785612721565b84529385019392850192612956565b8096505050505050509250929050565b801515811461271e575f80fd5b803560ff8116811461272c575f80fd5b5f805f805f805f805f805f6101608c8e0312156129be575f80fd5b8b356129c98161270a565b9a5060208c01356129d98161270a565b995060408c0135985060608c0135975060808c0135965060a08c01356129fe8161270a565b955060c08c0135945060e08c0135612a1581612986565b9350612a246101008d01612993565b92506101208c013591506101408c013590509295989b509295989b9093969950565b5f8060408385031215612a57575f80fd5b8235612a628161270a565b91506020830135612a728161270a565b809150509250929050565b5f805f805f60808688031215612a91575f80fd5b85359450602086013567ffffffffffffffff811115612aae575f80fd5b612aba888289016127b4565b9095509350506040860135612ace8161270a565b949793965091946060013592915050565b5f805f805f805f60e0888a031215612af5575f80fd5b8735612b008161270a565b96506020880135612b108161270a565b955060408801359450606088013593506080880135925060a0880135612b358161270a565b8092505060c0880135905092959891949750929550565b5f805f805f805f805f806101408b8d031215612b66575f80fd5b8a35612b718161270a565b995060208b0135985060408b0135975060608b0135965060808b0135612b968161270a565b955060a08b0135945060c08b0135612bad81612986565b9350612bbb60e08c01612993565b92506101008b013591506101208b013590509295989b9194979a5092959850565b5f805f805f805f80610100898b031215612bf4575f80fd5b8835612bff8161270a565b97506020890135612c0f8161270a565b965060408901359550606089013594506080890135935060a0890135925060c0890135612c3b8161270a565b8092505060e089013590509295985092959890939650565b6020808252600790820152661156141254915160ca1b604082015260600190565b602080825260169082015275494e53554646494349454e545f4c495155494449545960501b604082015260600190565b634e487b7160e01b5f52601160045260245ffd5b5f82612cd257634e487b7160e01b5f52601260045260245ffd5b500490565b8181038181111561213e5761213e612ca4565b634e487b7160e01b5f52603260045260245ffd5b5f60208284031215612d0e575f80fd5b8135612d198161270a565b9392505050565b6020808252600c908201526b0929cac82989288bea082a8960a31b604082015260600190565b6020808252601a908201527f494e53554646494349454e545f4f55545055545f414d4f554e54000000000000604082015260600190565b5f81612d8b57612d8b612ca4565b505f190190565b6001600160a01b0397881681529590961660208601526040850193909352606084019190915260ff16608083015260a082015260c081019190915260e00190565b602080825260169082015275115610d154d4d2559157d25394155517d05353d5539560521b604082015260600190565b5f60208284031215612e13575f80fd5b8151612d1981612986565b5f60208284031215612e2e575f80fd5b5051919050565b5f8060408385031215612e46575f80fd5b505080516020909101519092909150565b8082018082111561213e5761213e612ca4565b5f60018201612e7b57612e7b612ca4565b5060010190565b80516001600160701b038116811461272c575f80fd5b5f805f60608486031215612eaa575f80fd5b612eb384612e82565b9250612ec160208501612e82565b9150604084015163ffffffff81168114612ed9575f80fd5b809150509250925092565b5f82515f5b81811015612f035760208186018101518583015201612ee9565b505f920191825250919050565b808202811582820484141761213e5761213e612ca4565b5f60208284031215612f37575f80fd5b8151612d198161270a56fea2646970667358221220bf1922d6623c7925a931aabbfdfbaa797bc3656397f66e61a6304bab2728407364736f6c63430008140033",
  "immutableReferences": {
    "3501": [
      {
        "length": 32,
        "start": 974
      },
      {
        "length": 32,
        "start": 4749
      },
      {
        "length": 32,
        "start": 4808
      },
      {
        "length": 32,
        "start": 9434
      },
      {
        "length": 32,
        "start": 9594
      }
    ],
    "3504": [
      {
        "length": 32,
        "start": 324
      },
      {
        "length": 32,
        "start": 861
      },
      {
        "length": 32,
        "start": 1247
      },
      {
        "length": 32,
        "start": 1326
      },
      {
        "length": 32,
        "start": 1684
      },
      {
        "length": 32,
        "start": 2155
      },
      {
        "length": 32,
        "start": 3197
      },
      {
        "length": 32,
        "start": 3677
      },
      {
        "length": 32,
        "start": 3928
      },
      {
        "length": 32,
        "start": 4065
      },
      {
        "length": 32,
        "start": 6195
      },
      {
        "length": 32,
        "start": 6644
      },
      {
        "length": 32,
        "start": 6696
      },
      {
        "length": 32,
        "start": 6748
      },
      {
        "length": 32,
        "start": 6893
      },
      {
        "length": 32,
        "start": 7200
      },
      {
        "length": 32,
        "start": 7438
      },
      {
        "length": 32,
        "start": 7575
      }
    ]
  },
  "source": "// SPDX-License-Identifier: MIT\r\npragma solidity ^0.8.19;\r\n\r\nimport \"./IMyRouter.sol\";\r\nimport \"./Library.sol\";\r\nimport \"./IMyPair.sol\";\r\nimport \"./IMyFactory.sol\";\r\nimport \"./IWETH.sol\";\r\nimport \"./IERC20.sol\";\r\n\r\ncontract MyRouter is IMyRouter {\r\n    using SafeMath for uint;\r\n\r\n    address public immutable override factory;\r\n    address public immutable override WETH;\r\n\r\n    modifier ensure(uint deadline) {\r\n        require(deadline >= block.timestamp, 'EXPIRED');\r\n        _;\r\n    }\r\n\r\n    constructor(address _factory, address _WETH) {\r\n        factory = _factory;\r\n        WETH = _WETH;\r\n    }\r\n\r\n    receive() external payable {\r\n        assert(msg.sender == WETH);\r\n    }\r\n\r\n    function addLiquidity(\r\n        address tokenA,\r\n        address tokenB,\r\n        uint amountADesired,\r\n        uint amountBDesired,\r\n        uint amountAMin,\r\n        uint amountBMin,\r\n        address to,\r\n        uint deadline\r\n    ) external virtual override ensure(deadline) returns (uint amountA, uint amountB, uint liquidity) {\r\n        (amountA, amountB) = _addLiquidity(tokenA, tokenB, amountADesired, amountBDesired, amountAMin, amountBMin);\r\n        address pair = pairFor(tokenA, tokenB);\r\n        TransferHelper.safeTransferFrom(tokenA, msg.sender, pair, amountA);\r\n        TransferHelper.safeTransferFrom(tokenB, msg.sender, pair, amountB);\r\n        liquidity = IMyPair(pair).mint(to);\r\n    }\r\n\r\n    function addLiquidityETH(\r\n        address token,\r\n        uint amountTokenDesired,\r\n        uint amountTokenMin,\r\n        uint amountETHMin,\r\n        address to,\r\n        uint deadline\r\n    ) external virtual override payable ensure(deadline) returns (uint amountToken, uint amountETH, uint liquidity) {\r\n        (amountToken, amountETH) = _addLiquidity(\r\n            token,\r\n            WETH,\r\n            amountTokenDesired,\r\n            msg.value,\r\n            amountTokenMin,\r\n            amountETHMin\r\n        );\r\n        address pair = pairFor(token, WETH);\r\n        TransferHelper.safeTransferFrom(token, msg.sender, pair, amountToken);\r\n        IWETH(WETH).deposit{value: amountETH}();\r\n        assert(IWETH(WETH).transfer(pair, amountETH));\r\n        liquidity = IMyPair(pair).mint(to);\r\n        // refund dust eth, if any\r\n        if (msg.value > amountETH) TransferHelper.safeTransferETH(msg.sender, msg.value - amountETH);\r\n    }\r\n\r\n    function removeLiquidity(\r\n        address tokenA,\r\n        address tokenB,\r\n        uint liquidity,\r\n        uint amountAMin,\r\n        uint amountBMin,\r\n        address to,\r\n        uint deadline\r\n    ) public virtual override ensure(deadline) returns (uint amountA, uint amountB) {\r\n        address pair = pairFor(tokenA, tokenB);\r\n        IMyPair(pair).transferFrom(msg.sender, pair, liquidity);\r\n        (uint amount0, uint amount1) = IMyPair(pair).burn(to);\r\n        (address token0,) = sortTokens(tokenA, tokenB);\r\n        (amountA, amountB) = tokenA == token0 ? (amount0, amount1) : (amount1, amount0);\r\n        require(amountA >= amountAMin, 'INSUFFICIENT_A_AMOUNT');\r\n        require(amountB >= amountBMin, 'INSUFFICIENT_B_AMOUNT');\r\n    }\r\n\r\n    function removeLiquidityETH(\r\n        address token,\r\n        uint liquidity,\r\n        uint amountTokenMin,\r\n        uint amountETHMin,\r\n        address to,\r\n        uint deadline\r\n    ) public virtual override ensure(deadline) returns (uint amountToken, uint amountETH) {\r\n        (amountToken, amountETH) = removeLiquidity(\r\n            token,\r\n            WETH,\r\n            liquidity,\r\n            amountTokenMin,\r\n            amountETHMin,\r\n            address(this),\r\n            deadline\r\n        );\r\n        TransferHelper.safeTransfer(token, to, amountToken);\r\n        IWETH(WETH).withdraw(amountETH);\r\n        TransferHelper.safeTransferETH(to, amountETH);\r\n    }\r\n\r\n    function removeLiquidityWithPermit(\r\n        address tokenA,\r\n        address tokenB,\r\n        uint liquidity,\r\n        uint amountAMin,\r\n        uint amountBMin,\r\n        address to,\r\n        uint deadline,\r\n        bool approveMax, uint8 v, bytes32 r, bytes32 s\r\n    ) external virtual override returns (uint amountA, uint amountB) {\r\n        address pair = pairFor(tokenA, tokenB);\r\n        uint value = approveMax ? type(uint).max : liquidity;\r\n        IMyPair(pair).permit(msg.sender, address(this), value, deadline, v, r, s);\r\n        (amountA, amountB) = removeLiquidity(tokenA, tokenB, liquidity, amountAMin, amountBMin, to, deadline);\r\n    }\r\n\r\n    function removeLiquidityETHWithPermit(\r\n        address token,\r\n        uint liquidity,\r\n        uint amountTokenMin,\r\n        uint amountETHMin,\r\n        address to,\r\n        uint deadline,\r\n        bool approveMax, uint8 v, bytes32 r, bytes32 s\r\n    ) external virtual override returns (uint amountToken, uint amountETH) {\r\n        address pair = pairFor(token, WETH);\r\n        uint value = approveMax ? type(uint).max : liquidity;\r\n        IMyPair(pair).permit(msg.sender, address(this), value, deadline, v, r, s);\r\n        (amountToken, amountETH) = removeLiquidityETH(token, liquidity, amountTokenMin, amountETHMin, to, deadline);\r\n    }\r\n\r\n    function swapExactTokensForTokens(\r\n        uint amountIn,\r\n        uint amountOutMin,\r\n        address[] calldata path,\r\n        address to,\r\n        uint deadline\r\n    ) external virtual override ensure(deadline) returns (uint[] memory amounts) {\r\n        amounts = getAmountsOut(amountIn, path);\r\n        require(amounts[amounts.length - 1] >= amountOutMin, 'INSUFFICIENT_OUTPUT_AMOUNT');\r\n        TransferHelper.safeTransferFrom(\r\n            path[0], msg.sender, pairFor(path[0], path[1]), amounts[0]\r\n        );\r\n        _swap(amounts, path, to);\r\n    }\r\n\r\n    function swapTokensForExactTokens(\r\n        uint amountOut,\r\n        uint amountInMax,\r\n        address[] calldata path,\r\n        address to,\r\n        uint deadline\r\n    ) external virtual override ensure(deadline) returns (uint[] memory amounts) {\r\n        amounts = getAmountsIn(amountOut, path);\r\n        require(amounts[0] <= amountInMax, 'EXCESSIVE_INPUT_AMOUNT');\r\n        TransferHelper.safeTransferFrom(\r\n            path[0], msg.sender, pairFor(path[0], path[1]), amounts[0]\r\n        );\r\n        _swap(amounts, path, to);\r\n    }\r\n\r\n    function swapExactETHForTokens(uint amountOutMin, address[] calldata path, address to, uint deadline)\r\n        external\r\n        virtual\r\n        override\r\n        payable\r\n        ensure(deadline)\r\n        returns (uint[] memory amounts)\r\n    {\r\n        require(path[0] == WETH, 'INVALID_PATH');\r\n        amounts = getAmountsOut(msg.value, path);\r\n        require(amounts[amounts.length - 1] >= amountOutMin, 'INSUFFICIENT_OUTPUT_AMOUNT');\r\n        IWETH(WETH).deposit{value: amounts[0]}();\r\n        assert(IWETH(WETH).transfer(pairFor(path[0], path[1]), amounts[0]));\r\n        _swap(amounts, path, to);\r\n    }\r\n\r\n    function swapTokensForExactETH(uint amountOut, uint amountInMax, address[] calldata path, address to, uint deadline)\r\n        external\r\n        virtual\r\n        override\r\n        ensure(deadline)\r\n        returns (uint[] memory amounts)\r\n    {\r\n        require(path[path.length - 1] == WETH, 'INVALID_PATH');\r\n        amounts = getAmountsIn(amountOut, path);\r\n        require(amounts[0] <= amountInMax, 'EXCESSIVE_INPUT_AMOUNT');\r\n        TransferHelper.safeTransferFrom(\r\n            path[0], msg.sender, pairFor(path[0], path[1]), amounts[0]\r\n        );\r\n        _swap(amounts, path, address(this));\r\n        IWETH(WETH).withdraw(amounts[amounts.length - 1]);\r\n        TransferHelper.safeTransferETH(to, amounts[amounts.length - 1]);\r\n    }\r\n\r\n    function swapExactTokensForETH(uint amountIn, uint amountOutMin, address[] calldata path, address to, uint deadline)\r\n        external\r\n        virtual\r\n        override\r\n        ensure(deadline)\r\n        returns (uint[] memory amounts)\r\n    {\r\n        require(path[path.length - 1] == WETH, 'INVALID_PATH');\r\n        amounts = getAmountsOut(amountIn, path);\r\n        require(amounts[amounts.length - 1] >= amountOutMin, 'INSUFFICIENT_OUTPUT_AMOUNT');\r\n        TransferHelper.safeTransferFrom(\r\n            path[0], msg.sender, pairFor(path[0], path[1]), amounts[0]\r\n        );\r\n        _swap(amounts, path, address(this));\r\n        IWETH(WETH).withdraw(amounts[amounts.length - 1]);\r\n        TransferHelper.safeTransferETH(to, amounts[amounts.length - 1]);\r\n    }\r\n    \r\n    function swapETHForExactTokens(uint amountOut, address[] calldata path, address to, uint deadline)\r\n        external\r\n        virtual\r\n        override\r\n        payable\r\n        ensure(deadline)\r\n        returns (uint[] memory amounts)\r\n    {\r\n        require(path[0] == WETH, 'INVALID_PATH');\r\n        amounts = getAmountsIn(amountOut, path);\r\n        require(amounts[0] <= msg.value, 'EXCESSIVE_INPUT_AMOUNT');\r\n        IWETH(WETH).deposit{value: amounts[0]}();\r\n        assert(IWETH(WETH).transfer(pairFor(path[0], path[1]), amounts[0]));\r\n        _swap(amounts, path, to);\r\n        if (msg.value > amounts[0]) TransferHelper.safeTransferETH(msg.sender, msg.value - amounts[0]);\r\n    }\r\n\r\n    function sortTokens(address tokenA, address tokenB) public pure returns (address token0, address token1) {\r\n        require(tokenA != tokenB, 'IDENTICAL_ADDRESSES');\r\n        (token0, token1) = tokenA < tokenB ? (tokenA, tokenB) : (tokenB, tokenA);\r\n        require(token0 != address(0), 'ZERO_ADDRESS');\r\n    }\r\n\r\n    function pairFor(address tokenA, address tokenB) public view returns (address pair) {\r\n        (address token0, address token1) = sortTokens(tokenA, tokenB);\r\n        pair = address(bytes20(uint160(uint256(keccak256(abi.encodePacked(\r\n            hex'ff',\r\n            factory,\r\n            keccak256(abi.encodePacked(token0, token1)),\r\n            IMyFactory(factory).INIT_CODE_PAIR_HASH()\r\n        ))))));\r\n    }\r\n\r\n    function getReserves(address tokenA, address tokenB) public view returns (uint reserveA, uint reserveB) {\r\n        (address token0,) = sortTokens(tokenA, tokenB);\r\n        (uint reserve0, uint reserve1,) = IMyPair(pairFor(tokenA, tokenB)).getReserves();\r\n        (reserveA, reserveB) = tokenA == token0 ? (reserve0, reserve1) : (reserve1, reserve0);\r\n    }\r\n\r\n    function quote(uint amountA, uint reserveA, uint reserveB) public pure returns (uint amountB) {\r\n        require(amountA > 0, 'INSUFFICIENT_AMOUNT');\r\n        require(reserveA > 0 && reserveB > 0, 'INSUFFICIENT_LIQUIDITY');\r\n        amountB = amountA.mul(reserveB) / reserveA;\r\n    }\r\n\r\n    function getAmountOut(uint amountIn, uint reserveIn, uint reserveOut) public pure returns (uint amountOut) {\r\n        require(amountIn > 0, 'INSUFFICIENT_INPUT_AMOUNT');\r\n        require(reserveIn > 0 && reserveOut > 0, 'INSUFFICIENT_LIQUIDITY');\r\n        uint amountInWithFee = amountIn.mul(998);\r\n        uint numerator = amountInWithFee.mul(reserveOut);\r\n        uint denominator = reserveIn.mul(1000).add(amountInWithFee);\r\n        amountOut = numerator / denominator;\r\n    }\r\n\r\n    function getAmountIn(uint amountOut, uint reserveIn, uint reserveOut) public pure returns (uint amountIn) {\r\n        require(amountOut > 0, 'INSUFFICIENT_OUTPUT_AMOUNT');\r\n        require(reserveIn > 0 && reserveOut > 0, 'INSUFFICIENT_LIQUIDITY');\r\n        uint numerator = reserveIn.mul(amountOut).mul(1000);\r\n        uint denominator = reserveOut.sub(amountOut).mul(998);\r\n        amountIn = (numerator / denominator).add(1);\r\n    }\r\n\r\n    function getAmountsOut(uint amountIn, address[] memory path) public view returns (uint[] memory amounts) {\r\n        require(path.length >= 2, 'INVALID_PATH');\r\n        amounts = new uint[](path.length);\r\n        amounts[0] = amountIn;\r\n        for (uint i; i < path.length - 1; i++) {\r\n            (uint reserveIn, uint reserveOut) = getReserves(path[i], path[i + 1]);\r\n            amounts[i + 1] = getAmountOut(amounts[i], reserveIn, reserveOut);\r\n        }\r\n    }\r\n\r\n    function getAmountsIn(uint amountOut, address[] memory path) public view returns (uint[] memory amounts) {\r\n        require(path.length >= 2, 'INVALID_PATH');\r\n        amounts = new uint[](path.length);\r\n        amounts[amounts.length - 1] = amountOut;\r\n        for (uint i = path.length - 1; i > 0; i--) {\r\n            (uint reserveIn, uint reserveOut) = getReserves(path[i - 1], path[i]);\r\n            amounts[i - 1] = getAmountIn(amounts[i], reserveIn, reserveOut);\r\n        }\r\n    }\r\n\r\n    function _addLiquidity(\r\n        address tokenA,\r\n        address tokenB,\r\n        uint amountADesired,\r\n        uint amountBDesired,\r\n        uint amountAMin,\r\n        uint amountBMin\r\n    ) internal virtual returns (uint amountA, uint amountB) {\r\n        if (IMyFactory(factory).getPair(tokenA, tokenB) == address(0)) {\r\n            IMyFactory(factory).createPair(tokenA, tokenB);\r\n        }\r\n        (uint reserveA, uint reserveB) = getReserves(tokenA, tokenB);\r\n        if (reserveA == 0 && reserveB == 0) {\r\n            (amountA, amountB) = (amountADesired, amountBDesired);\r\n        } else {\r\n            uint amountBOptimal = quote(amountADesired, reserveA, reserveB);\r\n            if (amountBOptimal <= amountBDesired) {\r\n                require(amountBOptimal >= amountBMin, 'INSUFFICIENT_B_AMOUNT');\r\n                (amountA, amountB) = (amountADesired, amountBOptimal);\r\n            } else {\r\n                uint amountAOptimal = quote(amountBDesired, reserveB, reserveA);\r\n                assert(amountAOptimal <= amountADesired);\r\n                require(amountAOptimal >= amountAMin, 'INSUFFICIENT_A_AMOUNT');\r\n                (amountA, amountB) = (amountAOptimal, amountBDesired);\r\n            }\r\n        }\r\n    }\r\n\r\n    function _swap(uint[] memory amounts, address[] memory path, address _to) internal virtual {\r\n        for (uint i; i < path.length - 1; i++) {\r\n            (address input, address output) = (path[i], path[i + 1]);\r\n            (address token0,) = sortTokens(input, output);\r\n            uint amountOut = amounts[i + 1];\r\n            (uint amount0Out, uint amount1Out) = input == token0 ? (uint(0), amountOut) : (amountOut, uint(0));\r\n            address to = i < path.length - 2 ? pairFor(output, path[i + 2]) : _to;\r\n            IMyPair(pairFor(input, output)).swap(\r\n                amount0Out, amount1Out, to\r\n            );\r\n        }\r\n    }\r\n}",
  "sourcePath": "C:\\Users\\Archie Stevens\\Downloads\\FTGP_0521\\contracts\\MyRouter.sol",
  "compiler": {
    "name": "solc",
    "version": "0.8.20+commit.a1b79de6.Emscripten.clang"
  },
  "schemaVersion": "3.4.13",
  "updatedAt": "2023-05-21T15:58:57.284Z",
  "devdoc": {
    "kind": "dev",
    "methods": {},
    "version": 1
  },
  "userdoc": {
    "kind": "user",
    "methods": {},
    "version": 1
  }
}