{
	"data": {
		"bytecode": {
			"linkReferences": {},
			"object": "60c060405234801562000010575f80fd5b5060405162004ece38038062004ece83398181016040528101906200003691906200010b565b8173ffffffffffffffffffffffffffffffffffffffff1660808173ffffffffffffffffffffffffffffffffffffffff16815250508073ffffffffffffffffffffffffffffffffffffffff1660a08173ffffffffffffffffffffffffffffffffffffffff1681525050505062000150565b5f80fd5b5f73ffffffffffffffffffffffffffffffffffffffff82169050919050565b5f620000d582620000aa565b9050919050565b620000e781620000c9565b8114620000f2575f80fd5b50565b5f815190506200010581620000dc565b92915050565b5f8060408385031215620001245762000123620000a6565b5b5f6200013385828601620000f5565b92505060206200014685828601620000f5565b9150509250929050565b60805160a051614cc26200020c5f395f818161013f015281816106d501528181610713015281816108f501528181610b5f015281816110f501528181611352015281816115ab01528181611716015281816117ad01528181611d36015281816122f70152818161254001528181612577015281816125ab01528181612628015281816127bd0152818161291b01526129b201525f8181611c2501528181611c6f0152818161204a015281816131c101526132760152614cc25ff3fe608060405260043610610138575f3560e01c806396ed28f9116100aa578063d06ca61f1161006e578063d06ca61f14610533578063d52bb6f41461056f578063ded9382a146105ac578063e8e33700146105e9578063f305d71914610627578063fb3bdb41146106595761019b565b806396ed28f91461042a578063ad5c464814610466578063ad615dec14610490578063baa2abde146104cc578063c45a0155146105095761019b565b806338ed1739116100fc57806338ed1739146102cd5780634a25d94a14610309578063544caa56146103455780637ff36ab51461038257806385f8c259146103b25780638803dbee146103ee5761019b565b806302751cec1461019f578063054d50d4146101dc57806318cbafe5146102185780631f00ca74146102545780632195995c146102905761019b565b3661019b577f000000000000000000000000000000000000000000000000000000000000000073ffffffffffffffffffffffffffffffffffffffff163373ffffffffffffffffffffffffffffffffffffffff161461019957610198613427565b5b005b5f80fd5b3480156101aa575f80fd5b506101c560048036038101906101c091906134f2565b610689565b6040516101d392919061358a565b60405180910390f35b3480156101e7575f80fd5b5061020260048036038101906101fd91906135b1565b6107ad565b60405161020f9190613601565b60405180910390f35b348015610223575f80fd5b5061023e6004803603810190610239919061367b565b6108ad565b60405161024b91906137c8565b60405180910390f35b34801561025f575f80fd5b5061027a60048036038101906102759190613930565b610c46565b60405161028791906137c8565b60405180910390f35b34801561029b575f80fd5b506102b660048036038101906102b19190613a28565b610ddc565b6040516102c492919061358a565b60405180910390f35b3480156102d8575f80fd5b506102f360048036038101906102ee919061367b565b610eb6565b60405161030091906137c8565b60405180910390f35b348015610314575f80fd5b5061032f600480360381019061032a919061367b565b6110ad565b60405161033c91906137c8565b60405180910390f35b348015610350575f80fd5b5061036b60048036038101906103669190613b15565b611439565b604051610379929190613b62565b60405180910390f35b61039c60048036038101906103979190613b89565b611563565b6040516103a991906137c8565b60405180910390f35b3480156103bd575f80fd5b506103d860048036038101906103d391906135b1565b61191a565b6040516103e59190613601565b60405180910390f35b3480156103f9575f80fd5b50610414600480360381019061040f919061367b565b611a28565b60405161042191906137c8565b60405180910390f35b348015610435575f80fd5b50610450600480360381019061044b9190613b15565b611c12565b60405161045d9190613c0d565b60405180910390f35b348015610471575f80fd5b5061047a611d34565b6040516104879190613c0d565b60405180910390f35b34801561049b575f80fd5b506104b660048036038101906104b191906135b1565b611d58565b6040516104c39190613601565b60405180910390f35b3480156104d7575f80fd5b506104f260048036038101906104ed9190613c26565b611e0f565b60405161050092919061358a565b60405180910390f35b348015610514575f80fd5b5061051d612048565b60405161052a9190613c0d565b60405180910390f35b34801561053e575f80fd5b5061055960048036038101906105549190613930565b61206c565b60405161056691906137c8565b60405180910390f35b34801561057a575f80fd5b5061059560048036038101906105909190613b15565b6121f2565b6040516105a392919061358a565b60405180910390f35b3480156105b7575f80fd5b506105d260048036038101906105cd9190613cc3565b6122ee565b6040516105e092919061358a565b60405180910390f35b3480156105f4575f80fd5b5061060f600480360381019061060a9190613d9c565b6123e6565b60405161061e93929190613e4d565b60405180910390f35b610641600480360381019061063c91906134f2565b6124f3565b60405161065093929190613e4d565b60405180910390f35b610673600480360381019061066e9190613b89565b612775565b60405161068091906137c8565b60405180910390f35b5f8082428110156106cf576040517f08c379a00000000000000000000000000000000000000000000000000000000081526004016106c690613edc565b60405180910390fd5b6106fe897f00000000000000000000000000000000000000000000000000000000000000008a8a8a308a611e0f565b8093508194505050610711898685612b71565b7f000000000000000000000000000000000000000000000000000000000000000073ffffffffffffffffffffffffffffffffffffffff16632e1a7d4d836040518263ffffffff1660e01b815260040161076a9190613601565b5f604051808303815f87803b158015610781575f80fd5b505af1158015610793573d5f803e3d5ffd5b505050506107a18583612ca1565b50965096945050505050565b5f8084116107f0576040517f08c379a00000000000000000000000000000000000000000000000000000000081526004016107e790613f44565b60405180910390fd5b5f831180156107fe57505f82115b61083d576040517f08c379a000000000000000000000000000000000000000000000000000000000815260040161083490613fac565b60405180910390fd5b5f6108536103e686612d9c90919063ffffffff16565b90505f6108698483612d9c90919063ffffffff16565b90505f610893836108856103e889612d9c90919063ffffffff16565b612e0890919063ffffffff16565b905080826108a19190614024565b93505050509392505050565b606081428110156108f3576040517f08c379a00000000000000000000000000000000000000000000000000000000081526004016108ea90613edc565b60405180910390fd5b7f000000000000000000000000000000000000000000000000000000000000000073ffffffffffffffffffffffffffffffffffffffff16868660018989905061093c9190614054565b81811061094c5761094b614087565b5b905060200201602081019061096191906140b4565b73ffffffffffffffffffffffffffffffffffffffff16146109b7576040517f08c379a00000000000000000000000000000000000000000000000000000000081526004016109ae90614129565b60405180910390fd5b610a01888787808060200260200160405190810160405280939291908181526020018383602002808284375f81840152601f19601f8201169050808301925050505050505061206c565b9150868260018451610a139190614054565b81518110610a2457610a23614087565b5b60200260200101511015610a6d576040517f08c379a0000000000000000000000000000000000000000000000000000000008152600401610a6490614191565b60405180910390fd5b610b1286865f818110610a8357610a82614087565b5b9050602002016020810190610a9891906140b4565b33610af289895f818110610aaf57610aae614087565b5b9050602002016020810190610ac491906140b4565b8a8a6001818110610ad857610ad7614087565b5b9050602002016020810190610aed91906140b4565b611c12565b855f81518110610b0557610b04614087565b5b6020026020010151612e60565b610b5d828787808060200260200160405190810160405280939291908181526020018383602002808284375f81840152601f19601f8201169050808301925050505050505030612f93565b7f000000000000000000000000000000000000000000000000000000000000000073ffffffffffffffffffffffffffffffffffffffff16632e1a7d4d8360018551610ba89190614054565b81518110610bb957610bb8614087565b5b60200260200101516040518263ffffffff1660e01b8152600401610bdd9190613601565b5f604051808303815f87803b158015610bf4575f80fd5b505af1158015610c06573d5f803e3d5ffd5b50505050610c3b848360018551610c1d9190614054565b81518110610c2e57610c2d614087565b5b6020026020010151612ca1565b509695505050505050565b6060600282511015610c8d576040517f08c379a0000000000000000000000000000000000000000000000000000000008152600401610c8490614129565b60405180910390fd5b815167ffffffffffffffff811115610ca857610ca76137f8565b5b604051908082528060200260200182016040528015610cd65781602001602082028036833780820191505090505b509050828160018351610ce99190614054565b81518110610cfa57610cf9614087565b5b6020026020010181815250505f60018351610d159190614054565b90505b5f811115610dd5575f80610d6c85600185610d339190614054565b81518110610d4457610d43614087565b5b6020026020010151868581518110610d5f57610d5e614087565b5b60200260200101516121f2565b91509150610d95848481518110610d8657610d85614087565b5b6020026020010151838361191a565b84600185610da39190614054565b81518110610db457610db3614087565b5b60200260200101818152505050508080610dcd906141af565b915050610d18565b5092915050565b5f805f610de98e8e611c12565b90505f87610df7578c610e19565b7fffffffffffffffffffffffffffffffffffffffffffffffffffffffffffffffff5b90508173ffffffffffffffffffffffffffffffffffffffff1663d505accf3330848d8c8c8c6040518863ffffffff1660e01b8152600401610e6097969594939291906141f4565b5f604051808303815f87803b158015610e77575f80fd5b505af1158015610e89573d5f803e3d5ffd5b50505050610e9c8f8f8f8f8f8f8f611e0f565b809450819550505050509b509b9950505050505050505050565b60608142811015610efc576040517f08c379a0000000000000000000000000000000000000000000000000000000008152600401610ef390613edc565b60405180910390fd5b610f46888787808060200260200160405190810160405280939291908181526020018383602002808284375f81840152601f19601f8201169050808301925050505050505061206c565b9150868260018451610f589190614054565b81518110610f6957610f68614087565b5b60200260200101511015610fb2576040517f08c379a0000000000000000000000000000000000000000000000000000000008152600401610fa990614191565b60405180910390fd5b61105786865f818110610fc857610fc7614087565b5b9050602002016020810190610fdd91906140b4565b3361103789895f818110610ff457610ff3614087565b5b905060200201602081019061100991906140b4565b8a8a600181811061101d5761101c614087565b5b905060200201602081019061103291906140b4565b611c12565b855f8151811061104a57611049614087565b5b6020026020010151612e60565b6110a2828787808060200260200160405190810160405280939291908181526020018383602002808284375f81840152601f19601f8201169050808301925050505050505086612f93565b509695505050505050565b606081428110156110f3576040517f08c379a00000000000000000000000000000000000000000000000000000000081526004016110ea90613edc565b60405180910390fd5b7f000000000000000000000000000000000000000000000000000000000000000073ffffffffffffffffffffffffffffffffffffffff16868660018989905061113c9190614054565b81811061114c5761114b614087565b5b905060200201602081019061116191906140b4565b73ffffffffffffffffffffffffffffffffffffffff16146111b7576040517f08c379a00000000000000000000000000000000000000000000000000000000081526004016111ae90614129565b60405180910390fd5b611201888787808060200260200160405190810160405280939291908181526020018383602002808284375f81840152601f19601f82011690508083019250505050505050610c46565b915086825f8151811061121757611216614087565b5b60200260200101511115611260576040517f08c379a0000000000000000000000000000000000000000000000000000000008152600401611257906142ab565b60405180910390fd5b61130586865f81811061127657611275614087565b5b905060200201602081019061128b91906140b4565b336112e589895f8181106112a2576112a1614087565b5b90506020020160208101906112b791906140b4565b8a8a60018181106112cb576112ca614087565b5b90506020020160208101906112e091906140b4565b611c12565b855f815181106112f8576112f7614087565b5b6020026020010151612e60565b611350828787808060200260200160405190810160405280939291908181526020018383602002808284375f81840152601f19601f8201169050808301925050505050505030612f93565b7f000000000000000000000000000000000000000000000000000000000000000073ffffffffffffffffffffffffffffffffffffffff16632e1a7d4d836001855161139b9190614054565b815181106113ac576113ab614087565b5b60200260200101516040518263ffffffff1660e01b81526004016113d09190613601565b5f604051808303815f87803b1580156113e7575f80fd5b505af11580156113f9573d5f803e3d5ffd5b5050505061142e8483600185516114109190614054565b8151811061142157611420614087565b5b6020026020010151612ca1565b509695505050505050565b5f808273ffffffffffffffffffffffffffffffffffffffff168473ffffffffffffffffffffffffffffffffffffffff16036114a9576040517f08c379a00000000000000000000000000000000000000000000000000000000081526004016114a090614313565b60405180910390fd5b8273ffffffffffffffffffffffffffffffffffffffff168473ffffffffffffffffffffffffffffffffffffffff16106114e35782846114e6565b83835b80925081935050505f73ffffffffffffffffffffffffffffffffffffffff168273ffffffffffffffffffffffffffffffffffffffff160361155c576040517f08c379a00000000000000000000000000000000000000000000000000000000081526004016115539061437b565b60405180910390fd5b9250929050565b606081428110156115a9576040517f08c379a00000000000000000000000000000000000000000000000000000000081526004016115a090613edc565b60405180910390fd5b7f000000000000000000000000000000000000000000000000000000000000000073ffffffffffffffffffffffffffffffffffffffff1686865f8181106115f3576115f2614087565b5b905060200201602081019061160891906140b4565b73ffffffffffffffffffffffffffffffffffffffff161461165e576040517f08c379a000000000000000000000000000000000000000000000000000000000815260040161165590614129565b60405180910390fd5b6116a8348787808060200260200160405190810160405280939291908181526020018383602002808284375f81840152601f19601f8201169050808301925050505050505061206c565b91508682600184516116ba9190614054565b815181106116cb576116ca614087565b5b60200260200101511015611714576040517f08c379a000000000000000000000000000000000000000000000000000000000815260040161170b90614191565b60405180910390fd5b7f000000000000000000000000000000000000000000000000000000000000000073ffffffffffffffffffffffffffffffffffffffff1663d0e30db0835f8151811061176357611762614087565b5b60200260200101516040518263ffffffff1660e01b81526004015f604051808303818588803b158015611794575f80fd5b505af11580156117a6573d5f803e3d5ffd5b50505050507f000000000000000000000000000000000000000000000000000000000000000073ffffffffffffffffffffffffffffffffffffffff1663a9059cbb61184088885f8181106117fd576117fc614087565b5b905060200201602081019061181291906140b4565b8989600181811061182657611825614087565b5b905060200201602081019061183b91906140b4565b611c12565b845f8151811061185357611852614087565b5b60200260200101516040518363ffffffff1660e01b8152600401611878929190614399565b6020604051808303815f875af1158015611894573d5f803e3d5ffd5b505050506040513d601f19601f820116820180604052508101906118b891906143d4565b6118c5576118c4613427565b5b611910828787808060200260200160405190810160405280939291908181526020018383602002808284375f81840152601f19601f8201169050808301925050505050505086612f93565b5095945050505050565b5f80841161195d576040517f08c379a000000000000000000000000000000000000000000000000000000000815260040161195490614191565b60405180910390fd5b5f8311801561196b57505f82115b6119aa576040517f08c379a00000000000000000000000000000000000000000000000000000000081526004016119a190613fac565b60405180910390fd5b5f6119d26103e86119c48787612d9c90919063ffffffff16565b612d9c90919063ffffffff16565b90505f6119fc6103e66119ee888761314e90919063ffffffff16565b612d9c90919063ffffffff16565b9050611a1d60018284611a0f9190614024565b612e0890919063ffffffff16565b925050509392505050565b60608142811015611a6e576040517f08c379a0000000000000000000000000000000000000000000000000000000008152600401611a6590613edc565b60405180910390fd5b611ab8888787808060200260200160405190810160405280939291908181526020018383602002808284375f81840152601f19601f82011690508083019250505050505050610c46565b915086825f81518110611ace57611acd614087565b5b60200260200101511115611b17576040517f08c379a0000000000000000000000000000000000000000000000000000000008152600401611b0e906142ab565b60405180910390fd5b611bbc86865f818110611b2d57611b2c614087565b5b9050602002016020810190611b4291906140b4565b33611b9c89895f818110611b5957611b58614087565b5b9050602002016020810190611b6e91906140b4565b8a8a6001818110611b8257611b81614087565b5b9050602002016020810190611b9791906140b4565b611c12565b855f81518110611baf57611bae614087565b5b6020026020010151612e60565b611c07828787808060200260200160405190810160405280939291908181526020018383602002808284375f81840152601f19601f8201169050808301925050505050505086612f93565b509695505050505050565b5f805f611c1f8585611439565b915091507f00000000000000000000000000000000000000000000000000000000000000008282604051602001611c57929190614444565b604051602081830303815290604052805190602001207f000000000000000000000000000000000000000000000000000000000000000073ffffffffffffffffffffffffffffffffffffffff16635855a25a6040518163ffffffff1660e01b8152600401602060405180830381865afa158015611cd6573d5f803e3d5ffd5b505050506040513d601f19601f82011682018060405250810190611cfa9190614483565b604051602001611d0c93929190614522565b604051602081830303815290604052805190602001205f1c60601b60601c9250505092915050565b7f000000000000000000000000000000000000000000000000000000000000000081565b5f808411611d9b576040517f08c379a0000000000000000000000000000000000000000000000000000000008152600401611d92906145b3565b60405180910390fd5b5f83118015611da957505f82115b611de8576040517f08c379a0000000000000000000000000000000000000000000000000000000008152600401611ddf90613fac565b60405180910390fd5b82611dfc8386612d9c90919063ffffffff16565b611e069190614024565b90509392505050565b5f808242811015611e55576040517f08c379a0000000000000000000000000000000000000000000000000000000008152600401611e4c90613edc565b60405180910390fd5b5f611e608b8b611c12565b90508073ffffffffffffffffffffffffffffffffffffffff166323b872dd33838c6040518463ffffffff1660e01b8152600401611e9f939291906145d1565b6020604051808303815f875af1158015611ebb573d5f803e3d5ffd5b505050506040513d601f19601f82011682018060405250810190611edf91906143d4565b505f808273ffffffffffffffffffffffffffffffffffffffff166389afcb44896040518263ffffffff1660e01b8152600401611f1b9190613c0d565b60408051808303815f875af1158015611f36573d5f803e3d5ffd5b505050506040513d601f19601f82011682018060405250810190611f5a919061461a565b915091505f611f698e8e611439565b5090508073ffffffffffffffffffffffffffffffffffffffff168e73ffffffffffffffffffffffffffffffffffffffff1614611fa6578183611fa9565b82825b80975081985050508a871015611ff4576040517f08c379a0000000000000000000000000000000000000000000000000000000008152600401611feb906146a2565b60405180910390fd5b89861015612037576040517f08c379a000000000000000000000000000000000000000000000000000000000815260040161202e9061470a565b60405180910390fd5b505050505097509795505050505050565b7f000000000000000000000000000000000000000000000000000000000000000081565b60606002825110156120b3576040517f08c379a00000000000000000000000000000000000000000000000000000000081526004016120aa90614129565b60405180910390fd5b815167ffffffffffffffff8111156120ce576120cd6137f8565b5b6040519080825280602002602001820160405280156120fc5781602001602082028036833780820191505090505b50905082815f8151811061211357612112614087565b5b6020026020010181815250505f5b6001835161212f9190614054565b8110156121eb575f8061218285848151811061214e5761214d614087565b5b6020026020010151866001866121649190614728565b8151811061217557612174614087565b5b60200260200101516121f2565b915091506121ab84848151811061219c5761219b614087565b5b602002602001015183836107ad565b846001856121b99190614728565b815181106121ca576121c9614087565b5b602002602001018181525050505080806121e39061475b565b915050612121565b5092915050565b5f805f6121ff8585611439565b5090505f8061220e8787611c12565b73ffffffffffffffffffffffffffffffffffffffff16630902f1ac6040518163ffffffff1660e01b8152600401606060405180830381865afa158015612256573d5f803e3d5ffd5b505050506040513d601f19601f8201168201806040525081019061227a919061481e565b506dffffffffffffffffffffffffffff1691506dffffffffffffffffffffffffffff1691508273ffffffffffffffffffffffffffffffffffffffff168773ffffffffffffffffffffffffffffffffffffffff16146122d95780826122dc565b81815b80955081965050505050509250929050565b5f805f61231b8d7f0000000000000000000000000000000000000000000000000000000000000000611c12565b90505f87612329578c61234b565b7fffffffffffffffffffffffffffffffffffffffffffffffffffffffffffffffff5b90508173ffffffffffffffffffffffffffffffffffffffff1663d505accf3330848d8c8c8c6040518863ffffffff1660e01b815260040161239297969594939291906141f4565b5f604051808303815f87803b1580156123a9575f80fd5b505af11580156123bb573d5f803e3d5ffd5b505050506123cd8e8e8e8e8e8e610689565b809450819550505050509a509a98505050505050505050565b5f805f834281101561242d576040517f08c379a000000000000000000000000000000000000000000000000000000000815260040161242490613edc565b60405180910390fd5b61243b8c8c8c8c8c8c6131a6565b80945081955050505f61244e8d8d611c12565b905061245c8d338388612e60565b6124688c338387612e60565b8073ffffffffffffffffffffffffffffffffffffffff16636a627842886040518263ffffffff1660e01b81526004016124a19190613c0d565b6020604051808303815f875af11580156124bd573d5f803e3d5ffd5b505050506040513d601f19601f820116820180604052508101906124e1919061486e565b92505050985098509895505050505050565b5f805f834281101561253a576040517f08c379a000000000000000000000000000000000000000000000000000000000815260040161253190613edc565b60405180910390fd5b6125688a7f00000000000000000000000000000000000000000000000000000000000000008b348c8c6131a6565b80945081955050505f61259b8b7f0000000000000000000000000000000000000000000000000000000000000000611c12565b90506125a98b338388612e60565b7f000000000000000000000000000000000000000000000000000000000000000073ffffffffffffffffffffffffffffffffffffffff1663d0e30db0856040518263ffffffff1660e01b81526004015f604051808303818588803b15801561260f575f80fd5b505af1158015612621573d5f803e3d5ffd5b50505050507f000000000000000000000000000000000000000000000000000000000000000073ffffffffffffffffffffffffffffffffffffffff1663a9059cbb82866040518363ffffffff1660e01b8152600401612681929190614399565b6020604051808303815f875af115801561269d573d5f803e3d5ffd5b505050506040513d601f19601f820116820180604052508101906126c191906143d4565b6126ce576126cd613427565b5b8073ffffffffffffffffffffffffffffffffffffffff16636a627842886040518263ffffffff1660e01b81526004016127079190613c0d565b6020604051808303815f875af1158015612723573d5f803e3d5ffd5b505050506040513d601f19601f82011682018060405250810190612747919061486e565b925083341115612767576127663385346127619190614054565b612ca1565b5b505096509650969350505050565b606081428110156127bb576040517f08c379a00000000000000000000000000000000000000000000000000000000081526004016127b290613edc565b60405180910390fd5b7f000000000000000000000000000000000000000000000000000000000000000073ffffffffffffffffffffffffffffffffffffffff1686865f81811061280557612804614087565b5b905060200201602081019061281a91906140b4565b73ffffffffffffffffffffffffffffffffffffffff1614612870576040517f08c379a000000000000000000000000000000000000000000000000000000000815260040161286790614129565b60405180910390fd5b6128ba878787808060200260200160405190810160405280939291908181526020018383602002808284375f81840152601f19601f82011690508083019250505050505050610c46565b915034825f815181106128d0576128cf614087565b5b60200260200101511115612919576040517f08c379a0000000000000000000000000000000000000000000000000000000008152600401612910906142ab565b60405180910390fd5b7f000000000000000000000000000000000000000000000000000000000000000073ffffffffffffffffffffffffffffffffffffffff1663d0e30db0835f8151811061296857612967614087565b5b60200260200101516040518263ffffffff1660e01b81526004015f604051808303818588803b158015612999575f80fd5b505af11580156129ab573d5f803e3d5ffd5b50505050507f000000000000000000000000000000000000000000000000000000000000000073ffffffffffffffffffffffffffffffffffffffff1663a9059cbb612a4588885f818110612a0257612a01614087565b5b9050602002016020810190612a1791906140b4565b89896001818110612a2b57612a2a614087565b5b9050602002016020810190612a4091906140b4565b611c12565b845f81518110612a5857612a57614087565b5b60200260200101516040518363ffffffff1660e01b8152600401612a7d929190614399565b6020604051808303815f875af1158015612a99573d5f803e3d5ffd5b505050506040513d601f19601f82011682018060405250810190612abd91906143d4565b612aca57612ac9613427565b5b612b15828787808060200260200160405190810160405280939291908181526020018383602002808284375f81840152601f19601f8201169050808301925050505050505086612f93565b815f81518110612b2857612b27614087565b5b6020026020010151341115612b6757612b6633835f81518110612b4e57612b4d614087565b5b602002602001015134612b619190614054565b612ca1565b5b5095945050505050565b5f808473ffffffffffffffffffffffffffffffffffffffff1663a9059cbb8585604051602401612ba2929190614399565b6040516020818303038152906040529060e01b6020820180517bffffffffffffffffffffffffffffffffffffffffffffffffffffffff8381831617835250505050604051612bf09190614905565b5f604051808303815f865af19150503d805f8114612c29576040519150601f19603f3d011682016040523d82523d5f602084013e612c2e565b606091505b5091509150818015612c5b57505f81511480612c5a575080806020019051810190612c5991906143d4565b5b5b612c9a576040517f08c379a0000000000000000000000000000000000000000000000000000000008152600401612c9190614965565b60405180910390fd5b5050505050565b5f8273ffffffffffffffffffffffffffffffffffffffff16825f67ffffffffffffffff811115612cd457612cd36137f8565b5b6040519080825280601f01601f191660200182016040528015612d065781602001600182028036833780820191505090505b50604051612d149190614905565b5f6040518083038185875af1925050503d805f8114612d4e576040519150601f19603f3d011682016040523d82523d5f602084013e612d53565b606091505b5050905080612d97576040517f08c379a0000000000000000000000000000000000000000000000000000000008152600401612d8e906149f3565b60405180910390fd5b505050565b5f80821480612dc3575082828385612db49190614a11565b925082612dc19190614024565b145b612e02576040517f08c379a0000000000000000000000000000000000000000000000000000000008152600401612df990614a9c565b60405180910390fd5b92915050565b5f828284612e169190614728565b9150811015612e5a576040517f08c379a0000000000000000000000000000000000000000000000000000000008152600401612e5190614b04565b60405180910390fd5b92915050565b5f808573ffffffffffffffffffffffffffffffffffffffff166323b872dd868686604051602401612e93939291906145d1565b6040516020818303038152906040529060e01b6020820180517bffffffffffffffffffffffffffffffffffffffffffffffffffffffff8381831617835250505050604051612ee19190614905565b5f604051808303815f865af19150503d805f8114612f1a576040519150601f19603f3d011682016040523d82523d5f602084013e612f1f565b606091505b5091509150818015612f4c57505f81511480612f4b575080806020019051810190612f4a91906143d4565b5b5b612f8b576040517f08c379a0000000000000000000000000000000000000000000000000000000008152600401612f8290614b92565b60405180910390fd5b505050505050565b5f5b60018351612fa39190614054565b811015613148575f80848381518110612fbf57612fbe614087565b5b602002602001015185600185612fd59190614728565b81518110612fe657612fe5614087565b5b6020026020010151915091505f612ffd8383611439565b5090505f8760018661300f9190614728565b815181106130205761301f614087565b5b602002602001015190505f808373ffffffffffffffffffffffffffffffffffffffff168673ffffffffffffffffffffffffffffffffffffffff161461306657825f613069565b5f835b915091505f60028a5161307c9190614054565b881061308857886130b9565b6130b8868b60028b61309a9190614728565b815181106130ab576130aa614087565b5b6020026020010151611c12565b5b90506130c58787611c12565b73ffffffffffffffffffffffffffffffffffffffff16636d9a640a8484846040518463ffffffff1660e01b815260040161310193929190614bb0565b5f604051808303815f87803b158015613118575f80fd5b505af115801561312a573d5f803e3d5ffd5b505050505050505050505080806131409061475b565b915050612f95565b50505050565b5f82828461315c9190614054565b91508111156131a0576040517f08c379a000000000000000000000000000000000000000000000000000000000815260040161319790614c2f565b60405180910390fd5b92915050565b5f805f73ffffffffffffffffffffffffffffffffffffffff167f000000000000000000000000000000000000000000000000000000000000000073ffffffffffffffffffffffffffffffffffffffff1663e6a439058a8a6040518363ffffffff1660e01b815260040161321a929190613b62565b602060405180830381865afa158015613235573d5f803e3d5ffd5b505050506040513d601f19601f820116820180604052508101906132599190614c61565b73ffffffffffffffffffffffffffffffffffffffff1603613311577f000000000000000000000000000000000000000000000000000000000000000073ffffffffffffffffffffffffffffffffffffffff1663c9c6539689896040518363ffffffff1660e01b81526004016132cf929190613b62565b6020604051808303815f875af11580156132eb573d5f803e3d5ffd5b505050506040513d601f19601f8201168201806040525081019061330f9190614c61565b505b5f8061331d8a8a6121f2565b915091505f8214801561332f57505f81145b15613343578787809450819550505061341a565b5f61334f898484611d58565b90508781116133aa578581101561339b576040517f08c379a00000000000000000000000000000000000000000000000000000000081526004016133929061470a565b60405180910390fd5b88818095508196505050613418565b5f6133b6898486611d58565b9050898111156133c9576133c8613427565b5b8781101561340c576040517f08c379a0000000000000000000000000000000000000000000000000000000008152600401613403906146a2565b60405180910390fd5b80898096508197505050505b505b5050965096945050505050565b7f4e487b71000000000000000000000000000000000000000000000000000000005f52600160045260245ffd5b5f604051905090565b5f80fd5b5f80fd5b5f73ffffffffffffffffffffffffffffffffffffffff82169050919050565b5f61348e82613465565b9050919050565b61349e81613484565b81146134a8575f80fd5b50565b5f813590506134b981613495565b92915050565b5f819050919050565b6134d1816134bf565b81146134db575f80fd5b50565b5f813590506134ec816134c8565b92915050565b5f805f805f8060c0878903121561350c5761350b61345d565b5b5f61351989828a016134ab565b965050602061352a89828a016134de565b955050604061353b89828a016134de565b945050606061354c89828a016134de565b935050608061355d89828a016134ab565b92505060a061356e89828a016134de565b9150509295509295509295565b613584816134bf565b82525050565b5f60408201905061359d5f83018561357b565b6135aa602083018461357b565b9392505050565b5f805f606084860312156135c8576135c761345d565b5b5f6135d5868287016134de565b93505060206135e6868287016134de565b92505060406135f7868287016134de565b9150509250925092565b5f6020820190506136145f83018461357b565b92915050565b5f80fd5b5f80fd5b5f80fd5b5f8083601f84011261363b5761363a61361a565b5b8235905067ffffffffffffffff8111156136585761365761361e565b5b60208301915083602082028301111561367457613673613622565b5b9250929050565b5f805f805f8060a087890312156136955761369461345d565b5b5f6136a289828a016134de565b96505060206136b389828a016134de565b955050604087013567ffffffffffffffff8111156136d4576136d3613461565b5b6136e089828a01613626565b945094505060606136f389828a016134ab565b925050608061370489828a016134de565b9150509295509295509295565b5f81519050919050565b5f82825260208201905092915050565b5f819050602082019050919050565b613743816134bf565b82525050565b5f613754838361373a565b60208301905092915050565b5f602082019050919050565b5f61377682613711565b613780818561371b565b935061378b8361372b565b805f5b838110156137bb5781516137a28882613749565b97506137ad83613760565b92505060018101905061378e565b5085935050505092915050565b5f6020820190508181035f8301526137e0818461376c565b905092915050565b5f601f19601f8301169050919050565b7f4e487b71000000000000000000000000000000000000000000000000000000005f52604160045260245ffd5b61382e826137e8565b810181811067ffffffffffffffff8211171561384d5761384c6137f8565b5b80604052505050565b5f61385f613454565b905061386b8282613825565b919050565b5f67ffffffffffffffff82111561388a576138896137f8565b5b602082029050602081019050919050565b5f6138ad6138a884613870565b613856565b905080838252602082019050602084028301858111156138d0576138cf613622565b5b835b818110156138f957806138e588826134ab565b8452602084019350506020810190506138d2565b5050509392505050565b5f82601f8301126139175761391661361a565b5b813561392784826020860161389b565b91505092915050565b5f80604083850312156139465761394561345d565b5b5f613953858286016134de565b925050602083013567ffffffffffffffff81111561397457613973613461565b5b61398085828601613903565b9150509250929050565b5f8115159050919050565b61399e8161398a565b81146139a8575f80fd5b50565b5f813590506139b981613995565b92915050565b5f60ff82169050919050565b6139d4816139bf565b81146139de575f80fd5b50565b5f813590506139ef816139cb565b92915050565b5f819050919050565b613a07816139f5565b8114613a11575f80fd5b50565b5f81359050613a22816139fe565b92915050565b5f805f805f805f805f805f6101608c8e031215613a4857613a4761345d565b5b5f613a558e828f016134ab565b9b50506020613a668e828f016134ab565b9a50506040613a778e828f016134de565b9950506060613a888e828f016134de565b9850506080613a998e828f016134de565b97505060a0613aaa8e828f016134ab565b96505060c0613abb8e828f016134de565b95505060e0613acc8e828f016139ab565b945050610100613ade8e828f016139e1565b935050610120613af08e828f01613a14565b925050610140613b028e828f01613a14565b9150509295989b509295989b9093969950565b5f8060408385031215613b2b57613b2a61345d565b5b5f613b38858286016134ab565b9250506020613b49858286016134ab565b9150509250929050565b613b5c81613484565b82525050565b5f604082019050613b755f830185613b53565b613b826020830184613b53565b9392505050565b5f805f805f60808688031215613ba257613ba161345d565b5b5f613baf888289016134de565b955050602086013567ffffffffffffffff811115613bd057613bcf613461565b5b613bdc88828901613626565b94509450506040613bef888289016134ab565b9250506060613c00888289016134de565b9150509295509295909350565b5f602082019050613c205f830184613b53565b92915050565b5f805f805f805f60e0888a031215613c4157613c4061345d565b5b5f613c4e8a828b016134ab565b9750506020613c5f8a828b016134ab565b9650506040613c708a828b016134de565b9550506060613c818a828b016134de565b9450506080613c928a828b016134de565b93505060a0613ca38a828b016134ab565b92505060c0613cb48a828b016134de565b91505092959891949750929550565b5f805f805f805f805f806101408b8d031215613ce257613ce161345d565b5b5f613cef8d828e016134ab565b9a50506020613d008d828e016134de565b9950506040613d118d828e016134de565b9850506060613d228d828e016134de565b9750506080613d338d828e016134ab565b96505060a0613d448d828e016134de565b95505060c0613d558d828e016139ab565b94505060e0613d668d828e016139e1565b935050610100613d788d828e01613a14565b925050610120613d8a8d828e01613a14565b9150509295989b9194979a5092959850565b5f805f805f805f80610100898b031215613db957613db861345d565b5b5f613dc68b828c016134ab565b9850506020613dd78b828c016134ab565b9750506040613de88b828c016134de565b9650506060613df98b828c016134de565b9550506080613e0a8b828c016134de565b94505060a0613e1b8b828c016134de565b93505060c0613e2c8b828c016134ab565b92505060e0613e3d8b828c016134de565b9150509295985092959890939650565b5f606082019050613e605f83018661357b565b613e6d602083018561357b565b613e7a604083018461357b565b949350505050565b5f82825260208201905092915050565b7f45585049524544000000000000000000000000000000000000000000000000005f82015250565b5f613ec6600783613e82565b9150613ed182613e92565b602082019050919050565b5f6020820190508181035f830152613ef381613eba565b9050919050565b7f494e53554646494349454e545f494e5055545f414d4f554e54000000000000005f82015250565b5f613f2e601983613e82565b9150613f3982613efa565b602082019050919050565b5f6020820190508181035f830152613f5b81613f22565b9050919050565b7f494e53554646494349454e545f4c4951554944495459000000000000000000005f82015250565b5f613f96601683613e82565b9150613fa182613f62565b602082019050919050565b5f6020820190508181035f830152613fc381613f8a565b9050919050565b7f4e487b71000000000000000000000000000000000000000000000000000000005f52601260045260245ffd5b7f4e487b71000000000000000000000000000000000000000000000000000000005f52601160045260245ffd5b5f61402e826134bf565b9150614039836134bf565b92508261404957614048613fca565b5b828204905092915050565b5f61405e826134bf565b9150614069836134bf565b925082820390508181111561408157614080613ff7565b5b92915050565b7f4e487b71000000000000000000000000000000000000000000000000000000005f52603260045260245ffd5b5f602082840312156140c9576140c861345d565b5b5f6140d6848285016134ab565b91505092915050565b7f494e56414c49445f5041544800000000000000000000000000000000000000005f82015250565b5f614113600c83613e82565b915061411e826140df565b602082019050919050565b5f6020820190508181035f83015261414081614107565b9050919050565b7f494e53554646494349454e545f4f55545055545f414d4f554e540000000000005f82015250565b5f61417b601a83613e82565b915061418682614147565b602082019050919050565b5f6020820190508181035f8301526141a88161416f565b9050919050565b5f6141b9826134bf565b91505f82036141cb576141ca613ff7565b5b600182039050919050565b6141df816139bf565b82525050565b6141ee816139f5565b82525050565b5f60e0820190506142075f83018a613b53565b6142146020830189613b53565b614221604083018861357b565b61422e606083018761357b565b61423b60808301866141d6565b61424860a08301856141e5565b61425560c08301846141e5565b98975050505050505050565b7f4558434553534956455f494e5055545f414d4f554e54000000000000000000005f82015250565b5f614295601683613e82565b91506142a082614261565b602082019050919050565b5f6020820190508181035f8301526142c281614289565b9050919050565b7f4944454e544943414c5f414444524553534553000000000000000000000000005f82015250565b5f6142fd601383613e82565b9150614308826142c9565b602082019050919050565b5f6020820190508181035f83015261432a816142f1565b9050919050565b7f5a45524f5f4144445245535300000000000000000000000000000000000000005f82015250565b5f614365600c83613e82565b915061437082614331565b602082019050919050565b5f6020820190508181035f83015261439281614359565b9050919050565b5f6040820190506143ac5f830185613b53565b6143b9602083018461357b565b9392505050565b5f815190506143ce81613995565b92915050565b5f602082840312156143e9576143e861345d565b5b5f6143f6848285016143c0565b91505092915050565b5f8160601b9050919050565b5f614415826143ff565b9050919050565b5f6144268261440b565b9050919050565b61443e61443982613484565b61441c565b82525050565b5f61444f828561442d565b60148201915061445f828461442d565b6014820191508190509392505050565b5f8151905061447d816139fe565b92915050565b5f602082840312156144985761449761345d565b5b5f6144a58482850161446f565b91505092915050565b5f81905092915050565b7fff000000000000000000000000000000000000000000000000000000000000005f82015250565b5f6144ec6001836144ae565b91506144f7826144b8565b600182019050919050565b5f819050919050565b61451c614517826139f5565b614502565b82525050565b5f61452c826144e0565b9150614538828661442d565b601482019150614548828561450b565b602082019150614558828461450b565b602082019150819050949350505050565b7f494e53554646494349454e545f414d4f554e54000000000000000000000000005f82015250565b5f61459d601383613e82565b91506145a882614569565b602082019050919050565b5f6020820190508181035f8301526145ca81614591565b9050919050565b5f6060820190506145e45f830186613b53565b6145f16020830185613b53565b6145fe604083018461357b565b949350505050565b5f81519050614614816134c8565b92915050565b5f80604083850312156146305761462f61345d565b5b5f61463d85828601614606565b925050602061464e85828601614606565b9150509250929050565b7f494e53554646494349454e545f415f414d4f554e5400000000000000000000005f82015250565b5f61468c601583613e82565b915061469782614658565b602082019050919050565b5f6020820190508181035f8301526146b981614680565b9050919050565b7f494e53554646494349454e545f425f414d4f554e5400000000000000000000005f82015250565b5f6146f4601583613e82565b91506146ff826146c0565b602082019050919050565b5f6020820190508181035f830152614721816146e8565b9050919050565b5f614732826134bf565b915061473d836134bf565b925082820190508082111561475557614754613ff7565b5b92915050565b5f614765826134bf565b91507fffffffffffffffffffffffffffffffffffffffffffffffffffffffffffffffff820361479757614796613ff7565b5b600182019050919050565b5f6dffffffffffffffffffffffffffff82169050919050565b6147c4816147a2565b81146147ce575f80fd5b50565b5f815190506147df816147bb565b92915050565b5f63ffffffff82169050919050565b6147fd816147e5565b8114614807575f80fd5b50565b5f81519050614818816147f4565b92915050565b5f805f606084860312156148355761483461345d565b5b5f614842868287016147d1565b9350506020614853868287016147d1565b92505060406148648682870161480a565b9150509250925092565b5f602082840312156148835761488261345d565b5b5f61489084828501614606565b91505092915050565b5f81519050919050565b5f81905092915050565b5f5b838110156148ca5780820151818401526020810190506148af565b5f8484015250505050565b5f6148df82614899565b6148e981856148a3565b93506148f98185602086016148ad565b80840191505092915050565b5f61491082846148d5565b915081905092915050565b7f5472616e7366657248656c7065723a205452414e534645525f4641494c4544005f82015250565b5f61494f601f83613e82565b915061495a8261491b565b602082019050919050565b5f6020820190508181035f83015261497c81614943565b9050919050565b7f5472616e7366657248656c7065723a204554485f5452414e534645525f4641495f8201527f4c45440000000000000000000000000000000000000000000000000000000000602082015250565b5f6149dd602383613e82565b91506149e882614983565b604082019050919050565b5f6020820190508181035f830152614a0a816149d1565b9050919050565b5f614a1b826134bf565b9150614a26836134bf565b9250828202614a34816134bf565b91508282048414831517614a4b57614a4a613ff7565b5b5092915050565b7f64732d6d6174682d6d756c2d6f766572666c6f770000000000000000000000005f82015250565b5f614a86601483613e82565b9150614a9182614a52565b602082019050919050565b5f6020820190508181035f830152614ab381614a7a565b9050919050565b7f64732d6d6174682d6164642d6f766572666c6f770000000000000000000000005f82015250565b5f614aee601483613e82565b9150614af982614aba565b602082019050919050565b5f6020820190508181035f830152614b1b81614ae2565b9050919050565b7f5472616e7366657248656c7065723a205452414e534645525f46524f4d5f46415f8201527f494c454400000000000000000000000000000000000000000000000000000000602082015250565b5f614b7c602483613e82565b9150614b8782614b22565b604082019050919050565b5f6020820190508181035f830152614ba981614b70565b9050919050565b5f606082019050614bc35f83018661357b565b614bd0602083018561357b565b614bdd6040830184613b53565b949350505050565b7f64732d6d6174682d7375622d756e646572666c6f7700000000000000000000005f82015250565b5f614c19601583613e82565b9150614c2482614be5565b602082019050919050565b5f6020820190508181035f830152614c4681614c0d565b9050919050565b5f81519050614c5b81613495565b92915050565b5f60208284031215614c7657614c7561345d565b5b5f614c8384828501614c4d565b9150509291505056fea264697066735822122093c1043be085426c34807d375642c71b4ac827e74432b921b19327349cccae0e64736f6c63430008140033",
			"opcodes": "PUSH1 0xC0 PUSH1 0x40 MSTORE CALLVALUE DUP1 ISZERO PUSH3 0x10 JUMPI PUSH0 DUP1 REVERT JUMPDEST POP PUSH1 0x40 MLOAD PUSH3 0x4ECE CODESIZE SUB DUP1 PUSH3 0x4ECE DUP4 CODECOPY DUP2 DUP2 ADD PUSH1 0x40 MSTORE DUP2 ADD SWAP1 PUSH3 0x36 SWAP2 SWAP1 PUSH3 0x10B JUMP JUMPDEST DUP2 PUSH20 0xFFFFFFFFFFFFFFFFFFFFFFFFFFFFFFFFFFFFFFFF AND PUSH1 0x80 DUP2 PUSH20 0xFFFFFFFFFFFFFFFFFFFFFFFFFFFFFFFFFFFFFFFF AND DUP2 MSTORE POP POP DUP1 PUSH20 0xFFFFFFFFFFFFFFFFFFFFFFFFFFFFFFFFFFFFFFFF AND PUSH1 0xA0 DUP2 PUSH20 0xFFFFFFFFFFFFFFFFFFFFFFFFFFFFFFFFFFFFFFFF AND DUP2 MSTORE POP POP POP POP PUSH3 0x150 JUMP JUMPDEST PUSH0 DUP1 REVERT JUMPDEST PUSH0 PUSH20 0xFFFFFFFFFFFFFFFFFFFFFFFFFFFFFFFFFFFFFFFF DUP3 AND SWAP1 POP SWAP2 SWAP1 POP JUMP JUMPDEST PUSH0 PUSH3 0xD5 DUP3 PUSH3 0xAA JUMP JUMPDEST SWAP1 POP SWAP2 SWAP1 POP JUMP JUMPDEST PUSH3 0xE7 DUP2 PUSH3 0xC9 JUMP JUMPDEST DUP2 EQ PUSH3 0xF2 JUMPI PUSH0 DUP1 REVERT JUMPDEST POP JUMP JUMPDEST PUSH0 DUP2 MLOAD SWAP1 POP PUSH3 0x105 DUP2 PUSH3 0xDC JUMP JUMPDEST SWAP3 SWAP2 POP POP JUMP JUMPDEST PUSH0 DUP1 PUSH1 0x40 DUP4 DUP6 SUB SLT ISZERO PUSH3 0x124 JUMPI PUSH3 0x123 PUSH3 0xA6 JUMP JUMPDEST JUMPDEST PUSH0 PUSH3 0x133 DUP6 DUP3 DUP7 ADD PUSH3 0xF5 JUMP JUMPDEST SWAP3 POP POP PUSH1 0x20 PUSH3 0x146 DUP6 DUP3 DUP7 ADD PUSH3 0xF5 JUMP JUMPDEST SWAP2 POP POP SWAP3 POP SWAP3 SWAP1 POP JUMP JUMPDEST PUSH1 0x80 MLOAD PUSH1 0xA0 MLOAD PUSH2 0x4CC2 PUSH3 0x20C PUSH0 CODECOPY PUSH0 DUP2 DUP2 PUSH2 0x13F ADD MSTORE DUP2 DUP2 PUSH2 0x6D5 ADD MSTORE DUP2 DUP2 PUSH2 0x713 ADD MSTORE DUP2 DUP2 PUSH2 0x8F5 ADD MSTORE DUP2 DUP2 PUSH2 0xB5F ADD MSTORE DUP2 DUP2 PUSH2 0x10F5 ADD MSTORE DUP2 DUP2 PUSH2 0x1352 ADD MSTORE DUP2 DUP2 PUSH2 0x15AB ADD MSTORE DUP2 DUP2 PUSH2 0x1716 ADD MSTORE DUP2 DUP2 PUSH2 0x17AD ADD MSTORE DUP2 DUP2 PUSH2 0x1D36 ADD MSTORE DUP2 DUP2 PUSH2 0x22F7 ADD MSTORE DUP2 DUP2 PUSH2 0x2540 ADD MSTORE DUP2 DUP2 PUSH2 0x2577 ADD MSTORE DUP2 DUP2 PUSH2 0x25AB ADD MSTORE DUP2 DUP2 PUSH2 0x2628 ADD MSTORE DUP2 DUP2 PUSH2 0x27BD ADD MSTORE DUP2 DUP2 PUSH2 0x291B ADD MSTORE PUSH2 0x29B2 ADD MSTORE PUSH0 DUP2 DUP2 PUSH2 0x1C25 ADD MSTORE DUP2 DUP2 PUSH2 0x1C6F ADD MSTORE DUP2 DUP2 PUSH2 0x204A ADD MSTORE DUP2 DUP2 PUSH2 0x31C1 ADD MSTORE PUSH2 0x3276 ADD MSTORE PUSH2 0x4CC2 PUSH0 RETURN INVALID PUSH1 0x80 PUSH1 0x40 MSTORE PUSH1 0x4 CALLDATASIZE LT PUSH2 0x138 JUMPI PUSH0 CALLDATALOAD PUSH1 0xE0 SHR DUP1 PUSH4 0x96ED28F9 GT PUSH2 0xAA JUMPI DUP1 PUSH4 0xD06CA61F GT PUSH2 0x6E JUMPI DUP1 PUSH4 0xD06CA61F EQ PUSH2 0x533 JUMPI DUP1 PUSH4 0xD52BB6F4 EQ PUSH2 0x56F JUMPI DUP1 PUSH4 0xDED9382A EQ PUSH2 0x5AC JUMPI DUP1 PUSH4 0xE8E33700 EQ PUSH2 0x5E9 JUMPI DUP1 PUSH4 0xF305D719 EQ PUSH2 0x627 JUMPI DUP1 PUSH4 0xFB3BDB41 EQ PUSH2 0x659 JUMPI PUSH2 0x19B JUMP JUMPDEST DUP1 PUSH4 0x96ED28F9 EQ PUSH2 0x42A JUMPI DUP1 PUSH4 0xAD5C4648 EQ PUSH2 0x466 JUMPI DUP1 PUSH4 0xAD615DEC EQ PUSH2 0x490 JUMPI DUP1 PUSH4 0xBAA2ABDE EQ PUSH2 0x4CC JUMPI DUP1 PUSH4 0xC45A0155 EQ PUSH2 0x509 JUMPI PUSH2 0x19B JUMP JUMPDEST DUP1 PUSH4 0x38ED1739 GT PUSH2 0xFC JUMPI DUP1 PUSH4 0x38ED1739 EQ PUSH2 0x2CD JUMPI DUP1 PUSH4 0x4A25D94A EQ PUSH2 0x309 JUMPI DUP1 PUSH4 0x544CAA56 EQ PUSH2 0x345 JUMPI DUP1 PUSH4 0x7FF36AB5 EQ PUSH2 0x382 JUMPI DUP1 PUSH4 0x85F8C259 EQ PUSH2 0x3B2 JUMPI DUP1 PUSH4 0x8803DBEE EQ PUSH2 0x3EE JUMPI PUSH2 0x19B JUMP JUMPDEST DUP1 PUSH4 0x2751CEC EQ PUSH2 0x19F JUMPI DUP1 PUSH4 0x54D50D4 EQ PUSH2 0x1DC JUMPI DUP1 PUSH4 0x18CBAFE5 EQ PUSH2 0x218 JUMPI DUP1 PUSH4 0x1F00CA74 EQ PUSH2 0x254 JUMPI DUP1 PUSH4 0x2195995C EQ PUSH2 0x290 JUMPI PUSH2 0x19B JUMP JUMPDEST CALLDATASIZE PUSH2 0x19B JUMPI PUSH32 0x0 PUSH20 0xFFFFFFFFFFFFFFFFFFFFFFFFFFFFFFFFFFFFFFFF AND CALLER PUSH20 0xFFFFFFFFFFFFFFFFFFFFFFFFFFFFFFFFFFFFFFFF AND EQ PUSH2 0x199 JUMPI PUSH2 0x198 PUSH2 0x3427 JUMP JUMPDEST JUMPDEST STOP JUMPDEST PUSH0 DUP1 REVERT JUMPDEST CALLVALUE DUP1 ISZERO PUSH2 0x1AA JUMPI PUSH0 DUP1 REVERT JUMPDEST POP PUSH2 0x1C5 PUSH1 0x4 DUP1 CALLDATASIZE SUB DUP2 ADD SWAP1 PUSH2 0x1C0 SWAP2 SWAP1 PUSH2 0x34F2 JUMP JUMPDEST PUSH2 0x689 JUMP JUMPDEST PUSH1 0x40 MLOAD PUSH2 0x1D3 SWAP3 SWAP2 SWAP1 PUSH2 0x358A JUMP JUMPDEST PUSH1 0x40 MLOAD DUP1 SWAP2 SUB SWAP1 RETURN JUMPDEST CALLVALUE DUP1 ISZERO PUSH2 0x1E7 JUMPI PUSH0 DUP1 REVERT JUMPDEST POP PUSH2 0x202 PUSH1 0x4 DUP1 CALLDATASIZE SUB DUP2 ADD SWAP1 PUSH2 0x1FD SWAP2 SWAP1 PUSH2 0x35B1 JUMP JUMPDEST PUSH2 0x7AD JUMP JUMPDEST PUSH1 0x40 MLOAD PUSH2 0x20F SWAP2 SWAP1 PUSH2 0x3601 JUMP JUMPDEST PUSH1 0x40 MLOAD DUP1 SWAP2 SUB SWAP1 RETURN JUMPDEST CALLVALUE DUP1 ISZERO PUSH2 0x223 JUMPI PUSH0 DUP1 REVERT JUMPDEST POP PUSH2 0x23E PUSH1 0x4 DUP1 CALLDATASIZE SUB DUP2 ADD SWAP1 PUSH2 0x239 SWAP2 SWAP1 PUSH2 0x367B JUMP JUMPDEST PUSH2 0x8AD JUMP JUMPDEST PUSH1 0x40 MLOAD PUSH2 0x24B SWAP2 SWAP1 PUSH2 0x37C8 JUMP JUMPDEST PUSH1 0x40 MLOAD DUP1 SWAP2 SUB SWAP1 RETURN JUMPDEST CALLVALUE DUP1 ISZERO PUSH2 0x25F JUMPI PUSH0 DUP1 REVERT JUMPDEST POP PUSH2 0x27A PUSH1 0x4 DUP1 CALLDATASIZE SUB DUP2 ADD SWAP1 PUSH2 0x275 SWAP2 SWAP1 PUSH2 0x3930 JUMP JUMPDEST PUSH2 0xC46 JUMP JUMPDEST PUSH1 0x40 MLOAD PUSH2 0x287 SWAP2 SWAP1 PUSH2 0x37C8 JUMP JUMPDEST PUSH1 0x40 MLOAD DUP1 SWAP2 SUB SWAP1 RETURN JUMPDEST CALLVALUE DUP1 ISZERO PUSH2 0x29B JUMPI PUSH0 DUP1 REVERT JUMPDEST POP PUSH2 0x2B6 PUSH1 0x4 DUP1 CALLDATASIZE SUB DUP2 ADD SWAP1 PUSH2 0x2B1 SWAP2 SWAP1 PUSH2 0x3A28 JUMP JUMPDEST PUSH2 0xDDC JUMP JUMPDEST PUSH1 0x40 MLOAD PUSH2 0x2C4 SWAP3 SWAP2 SWAP1 PUSH2 0x358A JUMP JUMPDEST PUSH1 0x40 MLOAD DUP1 SWAP2 SUB SWAP1 RETURN JUMPDEST CALLVALUE DUP1 ISZERO PUSH2 0x2D8 JUMPI PUSH0 DUP1 REVERT JUMPDEST POP PUSH2 0x2F3 PUSH1 0x4 DUP1 CALLDATASIZE SUB DUP2 ADD SWAP1 PUSH2 0x2EE SWAP2 SWAP1 PUSH2 0x367B JUMP JUMPDEST PUSH2 0xEB6 JUMP JUMPDEST PUSH1 0x40 MLOAD PUSH2 0x300 SWAP2 SWAP1 PUSH2 0x37C8 JUMP JUMPDEST PUSH1 0x40 MLOAD DUP1 SWAP2 SUB SWAP1 RETURN JUMPDEST CALLVALUE DUP1 ISZERO PUSH2 0x314 JUMPI PUSH0 DUP1 REVERT JUMPDEST POP PUSH2 0x32F PUSH1 0x4 DUP1 CALLDATASIZE SUB DUP2 ADD SWAP1 PUSH2 0x32A SWAP2 SWAP1 PUSH2 0x367B JUMP JUMPDEST PUSH2 0x10AD JUMP JUMPDEST PUSH1 0x40 MLOAD PUSH2 0x33C SWAP2 SWAP1 PUSH2 0x37C8 JUMP JUMPDEST PUSH1 0x40 MLOAD DUP1 SWAP2 SUB SWAP1 RETURN JUMPDEST CALLVALUE DUP1 ISZERO PUSH2 0x350 JUMPI PUSH0 DUP1 REVERT JUMPDEST POP PUSH2 0x36B PUSH1 0x4 DUP1 CALLDATASIZE SUB DUP2 ADD SWAP1 PUSH2 0x366 SWAP2 SWAP1 PUSH2 0x3B15 JUMP JUMPDEST PUSH2 0x1439 JUMP JUMPDEST PUSH1 0x40 MLOAD PUSH2 0x379 SWAP3 SWAP2 SWAP1 PUSH2 0x3B62 JUMP JUMPDEST PUSH1 0x40 MLOAD DUP1 SWAP2 SUB SWAP1 RETURN JUMPDEST PUSH2 0x39C PUSH1 0x4 DUP1 CALLDATASIZE SUB DUP2 ADD SWAP1 PUSH2 0x397 SWAP2 SWAP1 PUSH2 0x3B89 JUMP JUMPDEST PUSH2 0x1563 JUMP JUMPDEST PUSH1 0x40 MLOAD PUSH2 0x3A9 SWAP2 SWAP1 PUSH2 0x37C8 JUMP JUMPDEST PUSH1 0x40 MLOAD DUP1 SWAP2 SUB SWAP1 RETURN JUMPDEST CALLVALUE DUP1 ISZERO PUSH2 0x3BD JUMPI PUSH0 DUP1 REVERT JUMPDEST POP PUSH2 0x3D8 PUSH1 0x4 DUP1 CALLDATASIZE SUB DUP2 ADD SWAP1 PUSH2 0x3D3 SWAP2 SWAP1 PUSH2 0x35B1 JUMP JUMPDEST PUSH2 0x191A JUMP JUMPDEST PUSH1 0x40 MLOAD PUSH2 0x3E5 SWAP2 SWAP1 PUSH2 0x3601 JUMP JUMPDEST PUSH1 0x40 MLOAD DUP1 SWAP2 SUB SWAP1 RETURN JUMPDEST CALLVALUE DUP1 ISZERO PUSH2 0x3F9 JUMPI PUSH0 DUP1 REVERT JUMPDEST POP PUSH2 0x414 PUSH1 0x4 DUP1 CALLDATASIZE SUB DUP2 ADD SWAP1 PUSH2 0x40F SWAP2 SWAP1 PUSH2 0x367B JUMP JUMPDEST PUSH2 0x1A28 JUMP JUMPDEST PUSH1 0x40 MLOAD PUSH2 0x421 SWAP2 SWAP1 PUSH2 0x37C8 JUMP JUMPDEST PUSH1 0x40 MLOAD DUP1 SWAP2 SUB SWAP1 RETURN JUMPDEST CALLVALUE DUP1 ISZERO PUSH2 0x435 JUMPI PUSH0 DUP1 REVERT JUMPDEST POP PUSH2 0x450 PUSH1 0x4 DUP1 CALLDATASIZE SUB DUP2 ADD SWAP1 PUSH2 0x44B SWAP2 SWAP1 PUSH2 0x3B15 JUMP JUMPDEST PUSH2 0x1C12 JUMP JUMPDEST PUSH1 0x40 MLOAD PUSH2 0x45D SWAP2 SWAP1 PUSH2 0x3C0D JUMP JUMPDEST PUSH1 0x40 MLOAD DUP1 SWAP2 SUB SWAP1 RETURN JUMPDEST CALLVALUE DUP1 ISZERO PUSH2 0x471 JUMPI PUSH0 DUP1 REVERT JUMPDEST POP PUSH2 0x47A PUSH2 0x1D34 JUMP JUMPDEST PUSH1 0x40 MLOAD PUSH2 0x487 SWAP2 SWAP1 PUSH2 0x3C0D JUMP JUMPDEST PUSH1 0x40 MLOAD DUP1 SWAP2 SUB SWAP1 RETURN JUMPDEST CALLVALUE DUP1 ISZERO PUSH2 0x49B JUMPI PUSH0 DUP1 REVERT JUMPDEST POP PUSH2 0x4B6 PUSH1 0x4 DUP1 CALLDATASIZE SUB DUP2 ADD SWAP1 PUSH2 0x4B1 SWAP2 SWAP1 PUSH2 0x35B1 JUMP JUMPDEST PUSH2 0x1D58 JUMP JUMPDEST PUSH1 0x40 MLOAD PUSH2 0x4C3 SWAP2 SWAP1 PUSH2 0x3601 JUMP JUMPDEST PUSH1 0x40 MLOAD DUP1 SWAP2 SUB SWAP1 RETURN JUMPDEST CALLVALUE DUP1 ISZERO PUSH2 0x4D7 JUMPI PUSH0 DUP1 REVERT JUMPDEST POP PUSH2 0x4F2 PUSH1 0x4 DUP1 CALLDATASIZE SUB DUP2 ADD SWAP1 PUSH2 0x4ED SWAP2 SWAP1 PUSH2 0x3C26 JUMP JUMPDEST PUSH2 0x1E0F JUMP JUMPDEST PUSH1 0x40 MLOAD PUSH2 0x500 SWAP3 SWAP2 SWAP1 PUSH2 0x358A JUMP JUMPDEST PUSH1 0x40 MLOAD DUP1 SWAP2 SUB SWAP1 RETURN JUMPDEST CALLVALUE DUP1 ISZERO PUSH2 0x514 JUMPI PUSH0 DUP1 REVERT JUMPDEST POP PUSH2 0x51D PUSH2 0x2048 JUMP JUMPDEST PUSH1 0x40 MLOAD PUSH2 0x52A SWAP2 SWAP1 PUSH2 0x3C0D JUMP JUMPDEST PUSH1 0x40 MLOAD DUP1 SWAP2 SUB SWAP1 RETURN JUMPDEST CALLVALUE DUP1 ISZERO PUSH2 0x53E JUMPI PUSH0 DUP1 REVERT JUMPDEST POP PUSH2 0x559 PUSH1 0x4 DUP1 CALLDATASIZE SUB DUP2 ADD SWAP1 PUSH2 0x554 SWAP2 SWAP1 PUSH2 0x3930 JUMP JUMPDEST PUSH2 0x206C JUMP JUMPDEST PUSH1 0x40 MLOAD PUSH2 0x566 SWAP2 SWAP1 PUSH2 0x37C8 JUMP JUMPDEST PUSH1 0x40 MLOAD DUP1 SWAP2 SUB SWAP1 RETURN JUMPDEST CALLVALUE DUP1 ISZERO PUSH2 0x57A JUMPI PUSH0 DUP1 REVERT JUMPDEST POP PUSH2 0x595 PUSH1 0x4 DUP1 CALLDATASIZE SUB DUP2 ADD SWAP1 PUSH2 0x590 SWAP2 SWAP1 PUSH2 0x3B15 JUMP JUMPDEST PUSH2 0x21F2 JUMP JUMPDEST PUSH1 0x40 MLOAD PUSH2 0x5A3 SWAP3 SWAP2 SWAP1 PUSH2 0x358A JUMP JUMPDEST PUSH1 0x40 MLOAD DUP1 SWAP2 SUB SWAP1 RETURN JUMPDEST CALLVALUE DUP1 ISZERO PUSH2 0x5B7 JUMPI PUSH0 DUP1 REVERT JUMPDEST POP PUSH2 0x5D2 PUSH1 0x4 DUP1 CALLDATASIZE SUB DUP2 ADD SWAP1 PUSH2 0x5CD SWAP2 SWAP1 PUSH2 0x3CC3 JUMP JUMPDEST PUSH2 0x22EE JUMP JUMPDEST PUSH1 0x40 MLOAD PUSH2 0x5E0 SWAP3 SWAP2 SWAP1 PUSH2 0x358A JUMP JUMPDEST PUSH1 0x40 MLOAD DUP1 SWAP2 SUB SWAP1 RETURN JUMPDEST CALLVALUE DUP1 ISZERO PUSH2 0x5F4 JUMPI PUSH0 DUP1 REVERT JUMPDEST POP PUSH2 0x60F PUSH1 0x4 DUP1 CALLDATASIZE SUB DUP2 ADD SWAP1 PUSH2 0x60A SWAP2 SWAP1 PUSH2 0x3D9C JUMP JUMPDEST PUSH2 0x23E6 JUMP JUMPDEST PUSH1 0x40 MLOAD PUSH2 0x61E SWAP4 SWAP3 SWAP2 SWAP1 PUSH2 0x3E4D JUMP JUMPDEST PUSH1 0x40 MLOAD DUP1 SWAP2 SUB SWAP1 RETURN JUMPDEST PUSH2 0x641 PUSH1 0x4 DUP1 CALLDATASIZE SUB DUP2 ADD SWAP1 PUSH2 0x63C SWAP2 SWAP1 PUSH2 0x34F2 JUMP JUMPDEST PUSH2 0x24F3 JUMP JUMPDEST PUSH1 0x40 MLOAD PUSH2 0x650 SWAP4 SWAP3 SWAP2 SWAP1 PUSH2 0x3E4D JUMP JUMPDEST PUSH1 0x40 MLOAD DUP1 SWAP2 SUB SWAP1 RETURN JUMPDEST PUSH2 0x673 PUSH1 0x4 DUP1 CALLDATASIZE SUB DUP2 ADD SWAP1 PUSH2 0x66E SWAP2 SWAP1 PUSH2 0x3B89 JUMP JUMPDEST PUSH2 0x2775 JUMP JUMPDEST PUSH1 0x40 MLOAD PUSH2 0x680 SWAP2 SWAP1 PUSH2 0x37C8 JUMP JUMPDEST PUSH1 0x40 MLOAD DUP1 SWAP2 SUB SWAP1 RETURN JUMPDEST PUSH0 DUP1 DUP3 TIMESTAMP DUP2 LT ISZERO PUSH2 0x6CF JUMPI PUSH1 0x40 MLOAD PUSH32 0x8C379A000000000000000000000000000000000000000000000000000000000 DUP2 MSTORE PUSH1 0x4 ADD PUSH2 0x6C6 SWAP1 PUSH2 0x3EDC JUMP JUMPDEST PUSH1 0x40 MLOAD DUP1 SWAP2 SUB SWAP1 REVERT JUMPDEST PUSH2 0x6FE DUP10 PUSH32 0x0 DUP11 DUP11 DUP11 ADDRESS DUP11 PUSH2 0x1E0F JUMP JUMPDEST DUP1 SWAP4 POP DUP2 SWAP5 POP POP POP PUSH2 0x711 DUP10 DUP7 DUP6 PUSH2 0x2B71 JUMP JUMPDEST PUSH32 0x0 PUSH20 0xFFFFFFFFFFFFFFFFFFFFFFFFFFFFFFFFFFFFFFFF AND PUSH4 0x2E1A7D4D DUP4 PUSH1 0x40 MLOAD DUP3 PUSH4 0xFFFFFFFF AND PUSH1 0xE0 SHL DUP2 MSTORE PUSH1 0x4 ADD PUSH2 0x76A SWAP2 SWAP1 PUSH2 0x3601 JUMP JUMPDEST PUSH0 PUSH1 0x40 MLOAD DUP1 DUP4 SUB DUP2 PUSH0 DUP8 DUP1 EXTCODESIZE ISZERO DUP1 ISZERO PUSH2 0x781 JUMPI PUSH0 DUP1 REVERT JUMPDEST POP GAS CALL ISZERO DUP1 ISZERO PUSH2 0x793 JUMPI RETURNDATASIZE PUSH0 DUP1 RETURNDATACOPY RETURNDATASIZE PUSH0 REVERT JUMPDEST POP POP POP POP PUSH2 0x7A1 DUP6 DUP4 PUSH2 0x2CA1 JUMP JUMPDEST POP SWAP7 POP SWAP7 SWAP5 POP POP POP POP POP JUMP JUMPDEST PUSH0 DUP1 DUP5 GT PUSH2 0x7F0 JUMPI PUSH1 0x40 MLOAD PUSH32 0x8C379A000000000000000000000000000000000000000000000000000000000 DUP2 MSTORE PUSH1 0x4 ADD PUSH2 0x7E7 SWAP1 PUSH2 0x3F44 JUMP JUMPDEST PUSH1 0x40 MLOAD DUP1 SWAP2 SUB SWAP1 REVERT JUMPDEST PUSH0 DUP4 GT DUP1 ISZERO PUSH2 0x7FE JUMPI POP PUSH0 DUP3 GT JUMPDEST PUSH2 0x83D JUMPI PUSH1 0x40 MLOAD PUSH32 0x8C379A000000000000000000000000000000000000000000000000000000000 DUP2 MSTORE PUSH1 0x4 ADD PUSH2 0x834 SWAP1 PUSH2 0x3FAC JUMP JUMPDEST PUSH1 0x40 MLOAD DUP1 SWAP2 SUB SWAP1 REVERT JUMPDEST PUSH0 PUSH2 0x853 PUSH2 0x3E6 DUP7 PUSH2 0x2D9C SWAP1 SWAP2 SWAP1 PUSH4 0xFFFFFFFF AND JUMP JUMPDEST SWAP1 POP PUSH0 PUSH2 0x869 DUP5 DUP4 PUSH2 0x2D9C SWAP1 SWAP2 SWAP1 PUSH4 0xFFFFFFFF AND JUMP JUMPDEST SWAP1 POP PUSH0 PUSH2 0x893 DUP4 PUSH2 0x885 PUSH2 0x3E8 DUP10 PUSH2 0x2D9C SWAP1 SWAP2 SWAP1 PUSH4 0xFFFFFFFF AND JUMP JUMPDEST PUSH2 0x2E08 SWAP1 SWAP2 SWAP1 PUSH4 0xFFFFFFFF AND JUMP JUMPDEST SWAP1 POP DUP1 DUP3 PUSH2 0x8A1 SWAP2 SWAP1 PUSH2 0x4024 JUMP JUMPDEST SWAP4 POP POP POP POP SWAP4 SWAP3 POP POP POP JUMP JUMPDEST PUSH1 0x60 DUP2 TIMESTAMP DUP2 LT ISZERO PUSH2 0x8F3 JUMPI PUSH1 0x40 MLOAD PUSH32 0x8C379A000000000000000000000000000000000000000000000000000000000 DUP2 MSTORE PUSH1 0x4 ADD PUSH2 0x8EA SWAP1 PUSH2 0x3EDC JUMP JUMPDEST PUSH1 0x40 MLOAD DUP1 SWAP2 SUB SWAP1 REVERT JUMPDEST PUSH32 0x0 PUSH20 0xFFFFFFFFFFFFFFFFFFFFFFFFFFFFFFFFFFFFFFFF AND DUP7 DUP7 PUSH1 0x1 DUP10 DUP10 SWAP1 POP PUSH2 0x93C SWAP2 SWAP1 PUSH2 0x4054 JUMP JUMPDEST DUP2 DUP2 LT PUSH2 0x94C JUMPI PUSH2 0x94B PUSH2 0x4087 JUMP JUMPDEST JUMPDEST SWAP1 POP PUSH1 0x20 MUL ADD PUSH1 0x20 DUP2 ADD SWAP1 PUSH2 0x961 SWAP2 SWAP1 PUSH2 0x40B4 JUMP JUMPDEST PUSH20 0xFFFFFFFFFFFFFFFFFFFFFFFFFFFFFFFFFFFFFFFF AND EQ PUSH2 0x9B7 JUMPI PUSH1 0x40 MLOAD PUSH32 0x8C379A000000000000000000000000000000000000000000000000000000000 DUP2 MSTORE PUSH1 0x4 ADD PUSH2 0x9AE SWAP1 PUSH2 0x4129 JUMP JUMPDEST PUSH1 0x40 MLOAD DUP1 SWAP2 SUB SWAP1 REVERT JUMPDEST PUSH2 0xA01 DUP9 DUP8 DUP8 DUP1 DUP1 PUSH1 0x20 MUL PUSH1 0x20 ADD PUSH1 0x40 MLOAD SWAP1 DUP2 ADD PUSH1 0x40 MSTORE DUP1 SWAP4 SWAP3 SWAP2 SWAP1 DUP2 DUP2 MSTORE PUSH1 0x20 ADD DUP4 DUP4 PUSH1 0x20 MUL DUP1 DUP3 DUP5 CALLDATACOPY PUSH0 DUP2 DUP5 ADD MSTORE PUSH1 0x1F NOT PUSH1 0x1F DUP3 ADD AND SWAP1 POP DUP1 DUP4 ADD SWAP3 POP POP POP POP POP POP POP PUSH2 0x206C JUMP JUMPDEST SWAP2 POP DUP7 DUP3 PUSH1 0x1 DUP5 MLOAD PUSH2 0xA13 SWAP2 SWAP1 PUSH2 0x4054 JUMP JUMPDEST DUP2 MLOAD DUP2 LT PUSH2 0xA24 JUMPI PUSH2 0xA23 PUSH2 0x4087 JUMP JUMPDEST JUMPDEST PUSH1 0x20 MUL PUSH1 0x20 ADD ADD MLOAD LT ISZERO PUSH2 0xA6D JUMPI PUSH1 0x40 MLOAD PUSH32 0x8C379A000000000000000000000000000000000000000000000000000000000 DUP2 MSTORE PUSH1 0x4 ADD PUSH2 0xA64 SWAP1 PUSH2 0x4191 JUMP JUMPDEST PUSH1 0x40 MLOAD DUP1 SWAP2 SUB SWAP1 REVERT JUMPDEST PUSH2 0xB12 DUP7 DUP7 PUSH0 DUP2 DUP2 LT PUSH2 0xA83 JUMPI PUSH2 0xA82 PUSH2 0x4087 JUMP JUMPDEST JUMPDEST SWAP1 POP PUSH1 0x20 MUL ADD PUSH1 0x20 DUP2 ADD SWAP1 PUSH2 0xA98 SWAP2 SWAP1 PUSH2 0x40B4 JUMP JUMPDEST CALLER PUSH2 0xAF2 DUP10 DUP10 PUSH0 DUP2 DUP2 LT PUSH2 0xAAF JUMPI PUSH2 0xAAE PUSH2 0x4087 JUMP JUMPDEST JUMPDEST SWAP1 POP PUSH1 0x20 MUL ADD PUSH1 0x20 DUP2 ADD SWAP1 PUSH2 0xAC4 SWAP2 SWAP1 PUSH2 0x40B4 JUMP JUMPDEST DUP11 DUP11 PUSH1 0x1 DUP2 DUP2 LT PUSH2 0xAD8 JUMPI PUSH2 0xAD7 PUSH2 0x4087 JUMP JUMPDEST JUMPDEST SWAP1 POP PUSH1 0x20 MUL ADD PUSH1 0x20 DUP2 ADD SWAP1 PUSH2 0xAED SWAP2 SWAP1 PUSH2 0x40B4 JUMP JUMPDEST PUSH2 0x1C12 JUMP JUMPDEST DUP6 PUSH0 DUP2 MLOAD DUP2 LT PUSH2 0xB05 JUMPI PUSH2 0xB04 PUSH2 0x4087 JUMP JUMPDEST JUMPDEST PUSH1 0x20 MUL PUSH1 0x20 ADD ADD MLOAD PUSH2 0x2E60 JUMP JUMPDEST PUSH2 0xB5D DUP3 DUP8 DUP8 DUP1 DUP1 PUSH1 0x20 MUL PUSH1 0x20 ADD PUSH1 0x40 MLOAD SWAP1 DUP2 ADD PUSH1 0x40 MSTORE DUP1 SWAP4 SWAP3 SWAP2 SWAP1 DUP2 DUP2 MSTORE PUSH1 0x20 ADD DUP4 DUP4 PUSH1 0x20 MUL DUP1 DUP3 DUP5 CALLDATACOPY PUSH0 DUP2 DUP5 ADD MSTORE PUSH1 0x1F NOT PUSH1 0x1F DUP3 ADD AND SWAP1 POP DUP1 DUP4 ADD SWAP3 POP POP POP POP POP POP POP ADDRESS PUSH2 0x2F93 JUMP JUMPDEST PUSH32 0x0 PUSH20 0xFFFFFFFFFFFFFFFFFFFFFFFFFFFFFFFFFFFFFFFF AND PUSH4 0x2E1A7D4D DUP4 PUSH1 0x1 DUP6 MLOAD PUSH2 0xBA8 SWAP2 SWAP1 PUSH2 0x4054 JUMP JUMPDEST DUP2 MLOAD DUP2 LT PUSH2 0xBB9 JUMPI PUSH2 0xBB8 PUSH2 0x4087 JUMP JUMPDEST JUMPDEST PUSH1 0x20 MUL PUSH1 0x20 ADD ADD MLOAD PUSH1 0x40 MLOAD DUP3 PUSH4 0xFFFFFFFF AND PUSH1 0xE0 SHL DUP2 MSTORE PUSH1 0x4 ADD PUSH2 0xBDD SWAP2 SWAP1 PUSH2 0x3601 JUMP JUMPDEST PUSH0 PUSH1 0x40 MLOAD DUP1 DUP4 SUB DUP2 PUSH0 DUP8 DUP1 EXTCODESIZE ISZERO DUP1 ISZERO PUSH2 0xBF4 JUMPI PUSH0 DUP1 REVERT JUMPDEST POP GAS CALL ISZERO DUP1 ISZERO PUSH2 0xC06 JUMPI RETURNDATASIZE PUSH0 DUP1 RETURNDATACOPY RETURNDATASIZE PUSH0 REVERT JUMPDEST POP POP POP POP PUSH2 0xC3B DUP5 DUP4 PUSH1 0x1 DUP6 MLOAD PUSH2 0xC1D SWAP2 SWAP1 PUSH2 0x4054 JUMP JUMPDEST DUP2 MLOAD DUP2 LT PUSH2 0xC2E JUMPI PUSH2 0xC2D PUSH2 0x4087 JUMP JUMPDEST JUMPDEST PUSH1 0x20 MUL PUSH1 0x20 ADD ADD MLOAD PUSH2 0x2CA1 JUMP JUMPDEST POP SWAP7 SWAP6 POP POP POP POP POP POP JUMP JUMPDEST PUSH1 0x60 PUSH1 0x2 DUP3 MLOAD LT ISZERO PUSH2 0xC8D JUMPI PUSH1 0x40 MLOAD PUSH32 0x8C379A000000000000000000000000000000000000000000000000000000000 DUP2 MSTORE PUSH1 0x4 ADD PUSH2 0xC84 SWAP1 PUSH2 0x4129 JUMP JUMPDEST PUSH1 0x40 MLOAD DUP1 SWAP2 SUB SWAP1 REVERT JUMPDEST DUP2 MLOAD PUSH8 0xFFFFFFFFFFFFFFFF DUP2 GT ISZERO PUSH2 0xCA8 JUMPI PUSH2 0xCA7 PUSH2 0x37F8 JUMP JUMPDEST JUMPDEST PUSH1 0x40 MLOAD SWAP1 DUP1 DUP3 MSTORE DUP1 PUSH1 0x20 MUL PUSH1 0x20 ADD DUP3 ADD PUSH1 0x40 MSTORE DUP1 ISZERO PUSH2 0xCD6 JUMPI DUP2 PUSH1 0x20 ADD PUSH1 0x20 DUP3 MUL DUP1 CALLDATASIZE DUP4 CALLDATACOPY DUP1 DUP3 ADD SWAP2 POP POP SWAP1 POP JUMPDEST POP SWAP1 POP DUP3 DUP2 PUSH1 0x1 DUP4 MLOAD PUSH2 0xCE9 SWAP2 SWAP1 PUSH2 0x4054 JUMP JUMPDEST DUP2 MLOAD DUP2 LT PUSH2 0xCFA JUMPI PUSH2 0xCF9 PUSH2 0x4087 JUMP JUMPDEST JUMPDEST PUSH1 0x20 MUL PUSH1 0x20 ADD ADD DUP2 DUP2 MSTORE POP POP PUSH0 PUSH1 0x1 DUP4 MLOAD PUSH2 0xD15 SWAP2 SWAP1 PUSH2 0x4054 JUMP JUMPDEST SWAP1 POP JUMPDEST PUSH0 DUP2 GT ISZERO PUSH2 0xDD5 JUMPI PUSH0 DUP1 PUSH2 0xD6C DUP6 PUSH1 0x1 DUP6 PUSH2 0xD33 SWAP2 SWAP1 PUSH2 0x4054 JUMP JUMPDEST DUP2 MLOAD DUP2 LT PUSH2 0xD44 JUMPI PUSH2 0xD43 PUSH2 0x4087 JUMP JUMPDEST JUMPDEST PUSH1 0x20 MUL PUSH1 0x20 ADD ADD MLOAD DUP7 DUP6 DUP2 MLOAD DUP2 LT PUSH2 0xD5F JUMPI PUSH2 0xD5E PUSH2 0x4087 JUMP JUMPDEST JUMPDEST PUSH1 0x20 MUL PUSH1 0x20 ADD ADD MLOAD PUSH2 0x21F2 JUMP JUMPDEST SWAP2 POP SWAP2 POP PUSH2 0xD95 DUP5 DUP5 DUP2 MLOAD DUP2 LT PUSH2 0xD86 JUMPI PUSH2 0xD85 PUSH2 0x4087 JUMP JUMPDEST JUMPDEST PUSH1 0x20 MUL PUSH1 0x20 ADD ADD MLOAD DUP4 DUP4 PUSH2 0x191A JUMP JUMPDEST DUP5 PUSH1 0x1 DUP6 PUSH2 0xDA3 SWAP2 SWAP1 PUSH2 0x4054 JUMP JUMPDEST DUP2 MLOAD DUP2 LT PUSH2 0xDB4 JUMPI PUSH2 0xDB3 PUSH2 0x4087 JUMP JUMPDEST JUMPDEST PUSH1 0x20 MUL PUSH1 0x20 ADD ADD DUP2 DUP2 MSTORE POP POP POP POP DUP1 DUP1 PUSH2 0xDCD SWAP1 PUSH2 0x41AF JUMP JUMPDEST SWAP2 POP POP PUSH2 0xD18 JUMP JUMPDEST POP SWAP3 SWAP2 POP POP JUMP JUMPDEST PUSH0 DUP1 PUSH0 PUSH2 0xDE9 DUP15 DUP15 PUSH2 0x1C12 JUMP JUMPDEST SWAP1 POP PUSH0 DUP8 PUSH2 0xDF7 JUMPI DUP13 PUSH2 0xE19 JUMP JUMPDEST PUSH32 0xFFFFFFFFFFFFFFFFFFFFFFFFFFFFFFFFFFFFFFFFFFFFFFFFFFFFFFFFFFFFFFFF JUMPDEST SWAP1 POP DUP2 PUSH20 0xFFFFFFFFFFFFFFFFFFFFFFFFFFFFFFFFFFFFFFFF AND PUSH4 0xD505ACCF CALLER ADDRESS DUP5 DUP14 DUP13 DUP13 DUP13 PUSH1 0x40 MLOAD DUP9 PUSH4 0xFFFFFFFF AND PUSH1 0xE0 SHL DUP2 MSTORE PUSH1 0x4 ADD PUSH2 0xE60 SWAP8 SWAP7 SWAP6 SWAP5 SWAP4 SWAP3 SWAP2 SWAP1 PUSH2 0x41F4 JUMP JUMPDEST PUSH0 PUSH1 0x40 MLOAD DUP1 DUP4 SUB DUP2 PUSH0 DUP8 DUP1 EXTCODESIZE ISZERO DUP1 ISZERO PUSH2 0xE77 JUMPI PUSH0 DUP1 REVERT JUMPDEST POP GAS CALL ISZERO DUP1 ISZERO PUSH2 0xE89 JUMPI RETURNDATASIZE PUSH0 DUP1 RETURNDATACOPY RETURNDATASIZE PUSH0 REVERT JUMPDEST POP POP POP POP PUSH2 0xE9C DUP16 DUP16 DUP16 DUP16 DUP16 DUP16 DUP16 PUSH2 0x1E0F JUMP JUMPDEST DUP1 SWAP5 POP DUP2 SWAP6 POP POP POP POP POP SWAP12 POP SWAP12 SWAP10 POP POP POP POP POP POP POP POP POP POP JUMP JUMPDEST PUSH1 0x60 DUP2 TIMESTAMP DUP2 LT ISZERO PUSH2 0xEFC JUMPI PUSH1 0x40 MLOAD PUSH32 0x8C379A000000000000000000000000000000000000000000000000000000000 DUP2 MSTORE PUSH1 0x4 ADD PUSH2 0xEF3 SWAP1 PUSH2 0x3EDC JUMP JUMPDEST PUSH1 0x40 MLOAD DUP1 SWAP2 SUB SWAP1 REVERT JUMPDEST PUSH2 0xF46 DUP9 DUP8 DUP8 DUP1 DUP1 PUSH1 0x20 MUL PUSH1 0x20 ADD PUSH1 0x40 MLOAD SWAP1 DUP2 ADD PUSH1 0x40 MSTORE DUP1 SWAP4 SWAP3 SWAP2 SWAP1 DUP2 DUP2 MSTORE PUSH1 0x20 ADD DUP4 DUP4 PUSH1 0x20 MUL DUP1 DUP3 DUP5 CALLDATACOPY PUSH0 DUP2 DUP5 ADD MSTORE PUSH1 0x1F NOT PUSH1 0x1F DUP3 ADD AND SWAP1 POP DUP1 DUP4 ADD SWAP3 POP POP POP POP POP POP POP PUSH2 0x206C JUMP JUMPDEST SWAP2 POP DUP7 DUP3 PUSH1 0x1 DUP5 MLOAD PUSH2 0xF58 SWAP2 SWAP1 PUSH2 0x4054 JUMP JUMPDEST DUP2 MLOAD DUP2 LT PUSH2 0xF69 JUMPI PUSH2 0xF68 PUSH2 0x4087 JUMP JUMPDEST JUMPDEST PUSH1 0x20 MUL PUSH1 0x20 ADD ADD MLOAD LT ISZERO PUSH2 0xFB2 JUMPI PUSH1 0x40 MLOAD PUSH32 0x8C379A000000000000000000000000000000000000000000000000000000000 DUP2 MSTORE PUSH1 0x4 ADD PUSH2 0xFA9 SWAP1 PUSH2 0x4191 JUMP JUMPDEST PUSH1 0x40 MLOAD DUP1 SWAP2 SUB SWAP1 REVERT JUMPDEST PUSH2 0x1057 DUP7 DUP7 PUSH0 DUP2 DUP2 LT PUSH2 0xFC8 JUMPI PUSH2 0xFC7 PUSH2 0x4087 JUMP JUMPDEST JUMPDEST SWAP1 POP PUSH1 0x20 MUL ADD PUSH1 0x20 DUP2 ADD SWAP1 PUSH2 0xFDD SWAP2 SWAP1 PUSH2 0x40B4 JUMP JUMPDEST CALLER PUSH2 0x1037 DUP10 DUP10 PUSH0 DUP2 DUP2 LT PUSH2 0xFF4 JUMPI PUSH2 0xFF3 PUSH2 0x4087 JUMP JUMPDEST JUMPDEST SWAP1 POP PUSH1 0x20 MUL ADD PUSH1 0x20 DUP2 ADD SWAP1 PUSH2 0x1009 SWAP2 SWAP1 PUSH2 0x40B4 JUMP JUMPDEST DUP11 DUP11 PUSH1 0x1 DUP2 DUP2 LT PUSH2 0x101D JUMPI PUSH2 0x101C PUSH2 0x4087 JUMP JUMPDEST JUMPDEST SWAP1 POP PUSH1 0x20 MUL ADD PUSH1 0x20 DUP2 ADD SWAP1 PUSH2 0x1032 SWAP2 SWAP1 PUSH2 0x40B4 JUMP JUMPDEST PUSH2 0x1C12 JUMP JUMPDEST DUP6 PUSH0 DUP2 MLOAD DUP2 LT PUSH2 0x104A JUMPI PUSH2 0x1049 PUSH2 0x4087 JUMP JUMPDEST JUMPDEST PUSH1 0x20 MUL PUSH1 0x20 ADD ADD MLOAD PUSH2 0x2E60 JUMP JUMPDEST PUSH2 0x10A2 DUP3 DUP8 DUP8 DUP1 DUP1 PUSH1 0x20 MUL PUSH1 0x20 ADD PUSH1 0x40 MLOAD SWAP1 DUP2 ADD PUSH1 0x40 MSTORE DUP1 SWAP4 SWAP3 SWAP2 SWAP1 DUP2 DUP2 MSTORE PUSH1 0x20 ADD DUP4 DUP4 PUSH1 0x20 MUL DUP1 DUP3 DUP5 CALLDATACOPY PUSH0 DUP2 DUP5 ADD MSTORE PUSH1 0x1F NOT PUSH1 0x1F DUP3 ADD AND SWAP1 POP DUP1 DUP4 ADD SWAP3 POP POP POP POP POP POP POP DUP7 PUSH2 0x2F93 JUMP JUMPDEST POP SWAP7 SWAP6 POP POP POP POP POP POP JUMP JUMPDEST PUSH1 0x60 DUP2 TIMESTAMP DUP2 LT ISZERO PUSH2 0x10F3 JUMPI PUSH1 0x40 MLOAD PUSH32 0x8C379A000000000000000000000000000000000000000000000000000000000 DUP2 MSTORE PUSH1 0x4 ADD PUSH2 0x10EA SWAP1 PUSH2 0x3EDC JUMP JUMPDEST PUSH1 0x40 MLOAD DUP1 SWAP2 SUB SWAP1 REVERT JUMPDEST PUSH32 0x0 PUSH20 0xFFFFFFFFFFFFFFFFFFFFFFFFFFFFFFFFFFFFFFFF AND DUP7 DUP7 PUSH1 0x1 DUP10 DUP10 SWAP1 POP PUSH2 0x113C SWAP2 SWAP1 PUSH2 0x4054 JUMP JUMPDEST DUP2 DUP2 LT PUSH2 0x114C JUMPI PUSH2 0x114B PUSH2 0x4087 JUMP JUMPDEST JUMPDEST SWAP1 POP PUSH1 0x20 MUL ADD PUSH1 0x20 DUP2 ADD SWAP1 PUSH2 0x1161 SWAP2 SWAP1 PUSH2 0x40B4 JUMP JUMPDEST PUSH20 0xFFFFFFFFFFFFFFFFFFFFFFFFFFFFFFFFFFFFFFFF AND EQ PUSH2 0x11B7 JUMPI PUSH1 0x40 MLOAD PUSH32 0x8C379A000000000000000000000000000000000000000000000000000000000 DUP2 MSTORE PUSH1 0x4 ADD PUSH2 0x11AE SWAP1 PUSH2 0x4129 JUMP JUMPDEST PUSH1 0x40 MLOAD DUP1 SWAP2 SUB SWAP1 REVERT JUMPDEST PUSH2 0x1201 DUP9 DUP8 DUP8 DUP1 DUP1 PUSH1 0x20 MUL PUSH1 0x20 ADD PUSH1 0x40 MLOAD SWAP1 DUP2 ADD PUSH1 0x40 MSTORE DUP1 SWAP4 SWAP3 SWAP2 SWAP1 DUP2 DUP2 MSTORE PUSH1 0x20 ADD DUP4 DUP4 PUSH1 0x20 MUL DUP1 DUP3 DUP5 CALLDATACOPY PUSH0 DUP2 DUP5 ADD MSTORE PUSH1 0x1F NOT PUSH1 0x1F DUP3 ADD AND SWAP1 POP DUP1 DUP4 ADD SWAP3 POP POP POP POP POP POP POP PUSH2 0xC46 JUMP JUMPDEST SWAP2 POP DUP7 DUP3 PUSH0 DUP2 MLOAD DUP2 LT PUSH2 0x1217 JUMPI PUSH2 0x1216 PUSH2 0x4087 JUMP JUMPDEST JUMPDEST PUSH1 0x20 MUL PUSH1 0x20 ADD ADD MLOAD GT ISZERO PUSH2 0x1260 JUMPI PUSH1 0x40 MLOAD PUSH32 0x8C379A000000000000000000000000000000000000000000000000000000000 DUP2 MSTORE PUSH1 0x4 ADD PUSH2 0x1257 SWAP1 PUSH2 0x42AB JUMP JUMPDEST PUSH1 0x40 MLOAD DUP1 SWAP2 SUB SWAP1 REVERT JUMPDEST PUSH2 0x1305 DUP7 DUP7 PUSH0 DUP2 DUP2 LT PUSH2 0x1276 JUMPI PUSH2 0x1275 PUSH2 0x4087 JUMP JUMPDEST JUMPDEST SWAP1 POP PUSH1 0x20 MUL ADD PUSH1 0x20 DUP2 ADD SWAP1 PUSH2 0x128B SWAP2 SWAP1 PUSH2 0x40B4 JUMP JUMPDEST CALLER PUSH2 0x12E5 DUP10 DUP10 PUSH0 DUP2 DUP2 LT PUSH2 0x12A2 JUMPI PUSH2 0x12A1 PUSH2 0x4087 JUMP JUMPDEST JUMPDEST SWAP1 POP PUSH1 0x20 MUL ADD PUSH1 0x20 DUP2 ADD SWAP1 PUSH2 0x12B7 SWAP2 SWAP1 PUSH2 0x40B4 JUMP JUMPDEST DUP11 DUP11 PUSH1 0x1 DUP2 DUP2 LT PUSH2 0x12CB JUMPI PUSH2 0x12CA PUSH2 0x4087 JUMP JUMPDEST JUMPDEST SWAP1 POP PUSH1 0x20 MUL ADD PUSH1 0x20 DUP2 ADD SWAP1 PUSH2 0x12E0 SWAP2 SWAP1 PUSH2 0x40B4 JUMP JUMPDEST PUSH2 0x1C12 JUMP JUMPDEST DUP6 PUSH0 DUP2 MLOAD DUP2 LT PUSH2 0x12F8 JUMPI PUSH2 0x12F7 PUSH2 0x4087 JUMP JUMPDEST JUMPDEST PUSH1 0x20 MUL PUSH1 0x20 ADD ADD MLOAD PUSH2 0x2E60 JUMP JUMPDEST PUSH2 0x1350 DUP3 DUP8 DUP8 DUP1 DUP1 PUSH1 0x20 MUL PUSH1 0x20 ADD PUSH1 0x40 MLOAD SWAP1 DUP2 ADD PUSH1 0x40 MSTORE DUP1 SWAP4 SWAP3 SWAP2 SWAP1 DUP2 DUP2 MSTORE PUSH1 0x20 ADD DUP4 DUP4 PUSH1 0x20 MUL DUP1 DUP3 DUP5 CALLDATACOPY PUSH0 DUP2 DUP5 ADD MSTORE PUSH1 0x1F NOT PUSH1 0x1F DUP3 ADD AND SWAP1 POP DUP1 DUP4 ADD SWAP3 POP POP POP POP POP POP POP ADDRESS PUSH2 0x2F93 JUMP JUMPDEST PUSH32 0x0 PUSH20 0xFFFFFFFFFFFFFFFFFFFFFFFFFFFFFFFFFFFFFFFF AND PUSH4 0x2E1A7D4D DUP4 PUSH1 0x1 DUP6 MLOAD PUSH2 0x139B SWAP2 SWAP1 PUSH2 0x4054 JUMP JUMPDEST DUP2 MLOAD DUP2 LT PUSH2 0x13AC JUMPI PUSH2 0x13AB PUSH2 0x4087 JUMP JUMPDEST JUMPDEST PUSH1 0x20 MUL PUSH1 0x20 ADD ADD MLOAD PUSH1 0x40 MLOAD DUP3 PUSH4 0xFFFFFFFF AND PUSH1 0xE0 SHL DUP2 MSTORE PUSH1 0x4 ADD PUSH2 0x13D0 SWAP2 SWAP1 PUSH2 0x3601 JUMP JUMPDEST PUSH0 PUSH1 0x40 MLOAD DUP1 DUP4 SUB DUP2 PUSH0 DUP8 DUP1 EXTCODESIZE ISZERO DUP1 ISZERO PUSH2 0x13E7 JUMPI PUSH0 DUP1 REVERT JUMPDEST POP GAS CALL ISZERO DUP1 ISZERO PUSH2 0x13F9 JUMPI RETURNDATASIZE PUSH0 DUP1 RETURNDATACOPY RETURNDATASIZE PUSH0 REVERT JUMPDEST POP POP POP POP PUSH2 0x142E DUP5 DUP4 PUSH1 0x1 DUP6 MLOAD PUSH2 0x1410 SWAP2 SWAP1 PUSH2 0x4054 JUMP JUMPDEST DUP2 MLOAD DUP2 LT PUSH2 0x1421 JUMPI PUSH2 0x1420 PUSH2 0x4087 JUMP JUMPDEST JUMPDEST PUSH1 0x20 MUL PUSH1 0x20 ADD ADD MLOAD PUSH2 0x2CA1 JUMP JUMPDEST POP SWAP7 SWAP6 POP POP POP POP POP POP JUMP JUMPDEST PUSH0 DUP1 DUP3 PUSH20 0xFFFFFFFFFFFFFFFFFFFFFFFFFFFFFFFFFFFFFFFF AND DUP5 PUSH20 0xFFFFFFFFFFFFFFFFFFFFFFFFFFFFFFFFFFFFFFFF AND SUB PUSH2 0x14A9 JUMPI PUSH1 0x40 MLOAD PUSH32 0x8C379A000000000000000000000000000000000000000000000000000000000 DUP2 MSTORE PUSH1 0x4 ADD PUSH2 0x14A0 SWAP1 PUSH2 0x4313 JUMP JUMPDEST PUSH1 0x40 MLOAD DUP1 SWAP2 SUB SWAP1 REVERT JUMPDEST DUP3 PUSH20 0xFFFFFFFFFFFFFFFFFFFFFFFFFFFFFFFFFFFFFFFF AND DUP5 PUSH20 0xFFFFFFFFFFFFFFFFFFFFFFFFFFFFFFFFFFFFFFFF AND LT PUSH2 0x14E3 JUMPI DUP3 DUP5 PUSH2 0x14E6 JUMP JUMPDEST DUP4 DUP4 JUMPDEST DUP1 SWAP3 POP DUP2 SWAP4 POP POP POP PUSH0 PUSH20 0xFFFFFFFFFFFFFFFFFFFFFFFFFFFFFFFFFFFFFFFF AND DUP3 PUSH20 0xFFFFFFFFFFFFFFFFFFFFFFFFFFFFFFFFFFFFFFFF AND SUB PUSH2 0x155C JUMPI PUSH1 0x40 MLOAD PUSH32 0x8C379A000000000000000000000000000000000000000000000000000000000 DUP2 MSTORE PUSH1 0x4 ADD PUSH2 0x1553 SWAP1 PUSH2 0x437B JUMP JUMPDEST PUSH1 0x40 MLOAD DUP1 SWAP2 SUB SWAP1 REVERT JUMPDEST SWAP3 POP SWAP3 SWAP1 POP JUMP JUMPDEST PUSH1 0x60 DUP2 TIMESTAMP DUP2 LT ISZERO PUSH2 0x15A9 JUMPI PUSH1 0x40 MLOAD PUSH32 0x8C379A000000000000000000000000000000000000000000000000000000000 DUP2 MSTORE PUSH1 0x4 ADD PUSH2 0x15A0 SWAP1 PUSH2 0x3EDC JUMP JUMPDEST PUSH1 0x40 MLOAD DUP1 SWAP2 SUB SWAP1 REVERT JUMPDEST PUSH32 0x0 PUSH20 0xFFFFFFFFFFFFFFFFFFFFFFFFFFFFFFFFFFFFFFFF AND DUP7 DUP7 PUSH0 DUP2 DUP2 LT PUSH2 0x15F3 JUMPI PUSH2 0x15F2 PUSH2 0x4087 JUMP JUMPDEST JUMPDEST SWAP1 POP PUSH1 0x20 MUL ADD PUSH1 0x20 DUP2 ADD SWAP1 PUSH2 0x1608 SWAP2 SWAP1 PUSH2 0x40B4 JUMP JUMPDEST PUSH20 0xFFFFFFFFFFFFFFFFFFFFFFFFFFFFFFFFFFFFFFFF AND EQ PUSH2 0x165E JUMPI PUSH1 0x40 MLOAD PUSH32 0x8C379A000000000000000000000000000000000000000000000000000000000 DUP2 MSTORE PUSH1 0x4 ADD PUSH2 0x1655 SWAP1 PUSH2 0x4129 JUMP JUMPDEST PUSH1 0x40 MLOAD DUP1 SWAP2 SUB SWAP1 REVERT JUMPDEST PUSH2 0x16A8 CALLVALUE DUP8 DUP8 DUP1 DUP1 PUSH1 0x20 MUL PUSH1 0x20 ADD PUSH1 0x40 MLOAD SWAP1 DUP2 ADD PUSH1 0x40 MSTORE DUP1 SWAP4 SWAP3 SWAP2 SWAP1 DUP2 DUP2 MSTORE PUSH1 0x20 ADD DUP4 DUP4 PUSH1 0x20 MUL DUP1 DUP3 DUP5 CALLDATACOPY PUSH0 DUP2 DUP5 ADD MSTORE PUSH1 0x1F NOT PUSH1 0x1F DUP3 ADD AND SWAP1 POP DUP1 DUP4 ADD SWAP3 POP POP POP POP POP POP POP PUSH2 0x206C JUMP JUMPDEST SWAP2 POP DUP7 DUP3 PUSH1 0x1 DUP5 MLOAD PUSH2 0x16BA SWAP2 SWAP1 PUSH2 0x4054 JUMP JUMPDEST DUP2 MLOAD DUP2 LT PUSH2 0x16CB JUMPI PUSH2 0x16CA PUSH2 0x4087 JUMP JUMPDEST JUMPDEST PUSH1 0x20 MUL PUSH1 0x20 ADD ADD MLOAD LT ISZERO PUSH2 0x1714 JUMPI PUSH1 0x40 MLOAD PUSH32 0x8C379A000000000000000000000000000000000000000000000000000000000 DUP2 MSTORE PUSH1 0x4 ADD PUSH2 0x170B SWAP1 PUSH2 0x4191 JUMP JUMPDEST PUSH1 0x40 MLOAD DUP1 SWAP2 SUB SWAP1 REVERT JUMPDEST PUSH32 0x0 PUSH20 0xFFFFFFFFFFFFFFFFFFFFFFFFFFFFFFFFFFFFFFFF AND PUSH4 0xD0E30DB0 DUP4 PUSH0 DUP2 MLOAD DUP2 LT PUSH2 0x1763 JUMPI PUSH2 0x1762 PUSH2 0x4087 JUMP JUMPDEST JUMPDEST PUSH1 0x20 MUL PUSH1 0x20 ADD ADD MLOAD PUSH1 0x40 MLOAD DUP3 PUSH4 0xFFFFFFFF AND PUSH1 0xE0 SHL DUP2 MSTORE PUSH1 0x4 ADD PUSH0 PUSH1 0x40 MLOAD DUP1 DUP4 SUB DUP2 DUP6 DUP9 DUP1 EXTCODESIZE ISZERO DUP1 ISZERO PUSH2 0x1794 JUMPI PUSH0 DUP1 REVERT JUMPDEST POP GAS CALL ISZERO DUP1 ISZERO PUSH2 0x17A6 JUMPI RETURNDATASIZE PUSH0 DUP1 RETURNDATACOPY RETURNDATASIZE PUSH0 REVERT JUMPDEST POP POP POP POP POP PUSH32 0x0 PUSH20 0xFFFFFFFFFFFFFFFFFFFFFFFFFFFFFFFFFFFFFFFF AND PUSH4 0xA9059CBB PUSH2 0x1840 DUP9 DUP9 PUSH0 DUP2 DUP2 LT PUSH2 0x17FD JUMPI PUSH2 0x17FC PUSH2 0x4087 JUMP JUMPDEST JUMPDEST SWAP1 POP PUSH1 0x20 MUL ADD PUSH1 0x20 DUP2 ADD SWAP1 PUSH2 0x1812 SWAP2 SWAP1 PUSH2 0x40B4 JUMP JUMPDEST DUP10 DUP10 PUSH1 0x1 DUP2 DUP2 LT PUSH2 0x1826 JUMPI PUSH2 0x1825 PUSH2 0x4087 JUMP JUMPDEST JUMPDEST SWAP1 POP PUSH1 0x20 MUL ADD PUSH1 0x20 DUP2 ADD SWAP1 PUSH2 0x183B SWAP2 SWAP1 PUSH2 0x40B4 JUMP JUMPDEST PUSH2 0x1C12 JUMP JUMPDEST DUP5 PUSH0 DUP2 MLOAD DUP2 LT PUSH2 0x1853 JUMPI PUSH2 0x1852 PUSH2 0x4087 JUMP JUMPDEST JUMPDEST PUSH1 0x20 MUL PUSH1 0x20 ADD ADD MLOAD PUSH1 0x40 MLOAD DUP4 PUSH4 0xFFFFFFFF AND PUSH1 0xE0 SHL DUP2 MSTORE PUSH1 0x4 ADD PUSH2 0x1878 SWAP3 SWAP2 SWAP1 PUSH2 0x4399 JUMP JUMPDEST PUSH1 0x20 PUSH1 0x40 MLOAD DUP1 DUP4 SUB DUP2 PUSH0 DUP8 GAS CALL ISZERO DUP1 ISZERO PUSH2 0x1894 JUMPI RETURNDATASIZE PUSH0 DUP1 RETURNDATACOPY RETURNDATASIZE PUSH0 REVERT JUMPDEST POP POP POP POP PUSH1 0x40 MLOAD RETURNDATASIZE PUSH1 0x1F NOT PUSH1 0x1F DUP3 ADD AND DUP3 ADD DUP1 PUSH1 0x40 MSTORE POP DUP2 ADD SWAP1 PUSH2 0x18B8 SWAP2 SWAP1 PUSH2 0x43D4 JUMP JUMPDEST PUSH2 0x18C5 JUMPI PUSH2 0x18C4 PUSH2 0x3427 JUMP JUMPDEST JUMPDEST PUSH2 0x1910 DUP3 DUP8 DUP8 DUP1 DUP1 PUSH1 0x20 MUL PUSH1 0x20 ADD PUSH1 0x40 MLOAD SWAP1 DUP2 ADD PUSH1 0x40 MSTORE DUP1 SWAP4 SWAP3 SWAP2 SWAP1 DUP2 DUP2 MSTORE PUSH1 0x20 ADD DUP4 DUP4 PUSH1 0x20 MUL DUP1 DUP3 DUP5 CALLDATACOPY PUSH0 DUP2 DUP5 ADD MSTORE PUSH1 0x1F NOT PUSH1 0x1F DUP3 ADD AND SWAP1 POP DUP1 DUP4 ADD SWAP3 POP POP POP POP POP POP POP DUP7 PUSH2 0x2F93 JUMP JUMPDEST POP SWAP6 SWAP5 POP POP POP POP POP JUMP JUMPDEST PUSH0 DUP1 DUP5 GT PUSH2 0x195D JUMPI PUSH1 0x40 MLOAD PUSH32 0x8C379A000000000000000000000000000000000000000000000000000000000 DUP2 MSTORE PUSH1 0x4 ADD PUSH2 0x1954 SWAP1 PUSH2 0x4191 JUMP JUMPDEST PUSH1 0x40 MLOAD DUP1 SWAP2 SUB SWAP1 REVERT JUMPDEST PUSH0 DUP4 GT DUP1 ISZERO PUSH2 0x196B JUMPI POP PUSH0 DUP3 GT JUMPDEST PUSH2 0x19AA JUMPI PUSH1 0x40 MLOAD PUSH32 0x8C379A000000000000000000000000000000000000000000000000000000000 DUP2 MSTORE PUSH1 0x4 ADD PUSH2 0x19A1 SWAP1 PUSH2 0x3FAC JUMP JUMPDEST PUSH1 0x40 MLOAD DUP1 SWAP2 SUB SWAP1 REVERT JUMPDEST PUSH0 PUSH2 0x19D2 PUSH2 0x3E8 PUSH2 0x19C4 DUP8 DUP8 PUSH2 0x2D9C SWAP1 SWAP2 SWAP1 PUSH4 0xFFFFFFFF AND JUMP JUMPDEST PUSH2 0x2D9C SWAP1 SWAP2 SWAP1 PUSH4 0xFFFFFFFF AND JUMP JUMPDEST SWAP1 POP PUSH0 PUSH2 0x19FC PUSH2 0x3E6 PUSH2 0x19EE DUP9 DUP8 PUSH2 0x314E SWAP1 SWAP2 SWAP1 PUSH4 0xFFFFFFFF AND JUMP JUMPDEST PUSH2 0x2D9C SWAP1 SWAP2 SWAP1 PUSH4 0xFFFFFFFF AND JUMP JUMPDEST SWAP1 POP PUSH2 0x1A1D PUSH1 0x1 DUP3 DUP5 PUSH2 0x1A0F SWAP2 SWAP1 PUSH2 0x4024 JUMP JUMPDEST PUSH2 0x2E08 SWAP1 SWAP2 SWAP1 PUSH4 0xFFFFFFFF AND JUMP JUMPDEST SWAP3 POP POP POP SWAP4 SWAP3 POP POP POP JUMP JUMPDEST PUSH1 0x60 DUP2 TIMESTAMP DUP2 LT ISZERO PUSH2 0x1A6E JUMPI PUSH1 0x40 MLOAD PUSH32 0x8C379A000000000000000000000000000000000000000000000000000000000 DUP2 MSTORE PUSH1 0x4 ADD PUSH2 0x1A65 SWAP1 PUSH2 0x3EDC JUMP JUMPDEST PUSH1 0x40 MLOAD DUP1 SWAP2 SUB SWAP1 REVERT JUMPDEST PUSH2 0x1AB8 DUP9 DUP8 DUP8 DUP1 DUP1 PUSH1 0x20 MUL PUSH1 0x20 ADD PUSH1 0x40 MLOAD SWAP1 DUP2 ADD PUSH1 0x40 MSTORE DUP1 SWAP4 SWAP3 SWAP2 SWAP1 DUP2 DUP2 MSTORE PUSH1 0x20 ADD DUP4 DUP4 PUSH1 0x20 MUL DUP1 DUP3 DUP5 CALLDATACOPY PUSH0 DUP2 DUP5 ADD MSTORE PUSH1 0x1F NOT PUSH1 0x1F DUP3 ADD AND SWAP1 POP DUP1 DUP4 ADD SWAP3 POP POP POP POP POP POP POP PUSH2 0xC46 JUMP JUMPDEST SWAP2 POP DUP7 DUP3 PUSH0 DUP2 MLOAD DUP2 LT PUSH2 0x1ACE JUMPI PUSH2 0x1ACD PUSH2 0x4087 JUMP JUMPDEST JUMPDEST PUSH1 0x20 MUL PUSH1 0x20 ADD ADD MLOAD GT ISZERO PUSH2 0x1B17 JUMPI PUSH1 0x40 MLOAD PUSH32 0x8C379A000000000000000000000000000000000000000000000000000000000 DUP2 MSTORE PUSH1 0x4 ADD PUSH2 0x1B0E SWAP1 PUSH2 0x42AB JUMP JUMPDEST PUSH1 0x40 MLOAD DUP1 SWAP2 SUB SWAP1 REVERT JUMPDEST PUSH2 0x1BBC DUP7 DUP7 PUSH0 DUP2 DUP2 LT PUSH2 0x1B2D JUMPI PUSH2 0x1B2C PUSH2 0x4087 JUMP JUMPDEST JUMPDEST SWAP1 POP PUSH1 0x20 MUL ADD PUSH1 0x20 DUP2 ADD SWAP1 PUSH2 0x1B42 SWAP2 SWAP1 PUSH2 0x40B4 JUMP JUMPDEST CALLER PUSH2 0x1B9C DUP10 DUP10 PUSH0 DUP2 DUP2 LT PUSH2 0x1B59 JUMPI PUSH2 0x1B58 PUSH2 0x4087 JUMP JUMPDEST JUMPDEST SWAP1 POP PUSH1 0x20 MUL ADD PUSH1 0x20 DUP2 ADD SWAP1 PUSH2 0x1B6E SWAP2 SWAP1 PUSH2 0x40B4 JUMP JUMPDEST DUP11 DUP11 PUSH1 0x1 DUP2 DUP2 LT PUSH2 0x1B82 JUMPI PUSH2 0x1B81 PUSH2 0x4087 JUMP JUMPDEST JUMPDEST SWAP1 POP PUSH1 0x20 MUL ADD PUSH1 0x20 DUP2 ADD SWAP1 PUSH2 0x1B97 SWAP2 SWAP1 PUSH2 0x40B4 JUMP JUMPDEST PUSH2 0x1C12 JUMP JUMPDEST DUP6 PUSH0 DUP2 MLOAD DUP2 LT PUSH2 0x1BAF JUMPI PUSH2 0x1BAE PUSH2 0x4087 JUMP JUMPDEST JUMPDEST PUSH1 0x20 MUL PUSH1 0x20 ADD ADD MLOAD PUSH2 0x2E60 JUMP JUMPDEST PUSH2 0x1C07 DUP3 DUP8 DUP8 DUP1 DUP1 PUSH1 0x20 MUL PUSH1 0x20 ADD PUSH1 0x40 MLOAD SWAP1 DUP2 ADD PUSH1 0x40 MSTORE DUP1 SWAP4 SWAP3 SWAP2 SWAP1 DUP2 DUP2 MSTORE PUSH1 0x20 ADD DUP4 DUP4 PUSH1 0x20 MUL DUP1 DUP3 DUP5 CALLDATACOPY PUSH0 DUP2 DUP5 ADD MSTORE PUSH1 0x1F NOT PUSH1 0x1F DUP3 ADD AND SWAP1 POP DUP1 DUP4 ADD SWAP3 POP POP POP POP POP POP POP DUP7 PUSH2 0x2F93 JUMP JUMPDEST POP SWAP7 SWAP6 POP POP POP POP POP POP JUMP JUMPDEST PUSH0 DUP1 PUSH0 PUSH2 0x1C1F DUP6 DUP6 PUSH2 0x1439 JUMP JUMPDEST SWAP2 POP SWAP2 POP PUSH32 0x0 DUP3 DUP3 PUSH1 0x40 MLOAD PUSH1 0x20 ADD PUSH2 0x1C57 SWAP3 SWAP2 SWAP1 PUSH2 0x4444 JUMP JUMPDEST PUSH1 0x40 MLOAD PUSH1 0x20 DUP2 DUP4 SUB SUB DUP2 MSTORE SWAP1 PUSH1 0x40 MSTORE DUP1 MLOAD SWAP1 PUSH1 0x20 ADD KECCAK256 PUSH32 0x0 PUSH20 0xFFFFFFFFFFFFFFFFFFFFFFFFFFFFFFFFFFFFFFFF AND PUSH4 0x5855A25A PUSH1 0x40 MLOAD DUP2 PUSH4 0xFFFFFFFF AND PUSH1 0xE0 SHL DUP2 MSTORE PUSH1 0x4 ADD PUSH1 0x20 PUSH1 0x40 MLOAD DUP1 DUP4 SUB DUP2 DUP7 GAS STATICCALL ISZERO DUP1 ISZERO PUSH2 0x1CD6 JUMPI RETURNDATASIZE PUSH0 DUP1 RETURNDATACOPY RETURNDATASIZE PUSH0 REVERT JUMPDEST POP POP POP POP PUSH1 0x40 MLOAD RETURNDATASIZE PUSH1 0x1F NOT PUSH1 0x1F DUP3 ADD AND DUP3 ADD DUP1 PUSH1 0x40 MSTORE POP DUP2 ADD SWAP1 PUSH2 0x1CFA SWAP2 SWAP1 PUSH2 0x4483 JUMP JUMPDEST PUSH1 0x40 MLOAD PUSH1 0x20 ADD PUSH2 0x1D0C SWAP4 SWAP3 SWAP2 SWAP1 PUSH2 0x4522 JUMP JUMPDEST PUSH1 0x40 MLOAD PUSH1 0x20 DUP2 DUP4 SUB SUB DUP2 MSTORE SWAP1 PUSH1 0x40 MSTORE DUP1 MLOAD SWAP1 PUSH1 0x20 ADD KECCAK256 PUSH0 SHR PUSH1 0x60 SHL PUSH1 0x60 SHR SWAP3 POP POP POP SWAP3 SWAP2 POP POP JUMP JUMPDEST PUSH32 0x0 DUP2 JUMP JUMPDEST PUSH0 DUP1 DUP5 GT PUSH2 0x1D9B JUMPI PUSH1 0x40 MLOAD PUSH32 0x8C379A000000000000000000000000000000000000000000000000000000000 DUP2 MSTORE PUSH1 0x4 ADD PUSH2 0x1D92 SWAP1 PUSH2 0x45B3 JUMP JUMPDEST PUSH1 0x40 MLOAD DUP1 SWAP2 SUB SWAP1 REVERT JUMPDEST PUSH0 DUP4 GT DUP1 ISZERO PUSH2 0x1DA9 JUMPI POP PUSH0 DUP3 GT JUMPDEST PUSH2 0x1DE8 JUMPI PUSH1 0x40 MLOAD PUSH32 0x8C379A000000000000000000000000000000000000000000000000000000000 DUP2 MSTORE PUSH1 0x4 ADD PUSH2 0x1DDF SWAP1 PUSH2 0x3FAC JUMP JUMPDEST PUSH1 0x40 MLOAD DUP1 SWAP2 SUB SWAP1 REVERT JUMPDEST DUP3 PUSH2 0x1DFC DUP4 DUP7 PUSH2 0x2D9C SWAP1 SWAP2 SWAP1 PUSH4 0xFFFFFFFF AND JUMP JUMPDEST PUSH2 0x1E06 SWAP2 SWAP1 PUSH2 0x4024 JUMP JUMPDEST SWAP1 POP SWAP4 SWAP3 POP POP POP JUMP JUMPDEST PUSH0 DUP1 DUP3 TIMESTAMP DUP2 LT ISZERO PUSH2 0x1E55 JUMPI PUSH1 0x40 MLOAD PUSH32 0x8C379A000000000000000000000000000000000000000000000000000000000 DUP2 MSTORE PUSH1 0x4 ADD PUSH2 0x1E4C SWAP1 PUSH2 0x3EDC JUMP JUMPDEST PUSH1 0x40 MLOAD DUP1 SWAP2 SUB SWAP1 REVERT JUMPDEST PUSH0 PUSH2 0x1E60 DUP12 DUP12 PUSH2 0x1C12 JUMP JUMPDEST SWAP1 POP DUP1 PUSH20 0xFFFFFFFFFFFFFFFFFFFFFFFFFFFFFFFFFFFFFFFF AND PUSH4 0x23B872DD CALLER DUP4 DUP13 PUSH1 0x40 MLOAD DUP5 PUSH4 0xFFFFFFFF AND PUSH1 0xE0 SHL DUP2 MSTORE PUSH1 0x4 ADD PUSH2 0x1E9F SWAP4 SWAP3 SWAP2 SWAP1 PUSH2 0x45D1 JUMP JUMPDEST PUSH1 0x20 PUSH1 0x40 MLOAD DUP1 DUP4 SUB DUP2 PUSH0 DUP8 GAS CALL ISZERO DUP1 ISZERO PUSH2 0x1EBB JUMPI RETURNDATASIZE PUSH0 DUP1 RETURNDATACOPY RETURNDATASIZE PUSH0 REVERT JUMPDEST POP POP POP POP PUSH1 0x40 MLOAD RETURNDATASIZE PUSH1 0x1F NOT PUSH1 0x1F DUP3 ADD AND DUP3 ADD DUP1 PUSH1 0x40 MSTORE POP DUP2 ADD SWAP1 PUSH2 0x1EDF SWAP2 SWAP1 PUSH2 0x43D4 JUMP JUMPDEST POP PUSH0 DUP1 DUP3 PUSH20 0xFFFFFFFFFFFFFFFFFFFFFFFFFFFFFFFFFFFFFFFF AND PUSH4 0x89AFCB44 DUP10 PUSH1 0x40 MLOAD DUP3 PUSH4 0xFFFFFFFF AND PUSH1 0xE0 SHL DUP2 MSTORE PUSH1 0x4 ADD PUSH2 0x1F1B SWAP2 SWAP1 PUSH2 0x3C0D JUMP JUMPDEST PUSH1 0x40 DUP1 MLOAD DUP1 DUP4 SUB DUP2 PUSH0 DUP8 GAS CALL ISZERO DUP1 ISZERO PUSH2 0x1F36 JUMPI RETURNDATASIZE PUSH0 DUP1 RETURNDATACOPY RETURNDATASIZE PUSH0 REVERT JUMPDEST POP POP POP POP PUSH1 0x40 MLOAD RETURNDATASIZE PUSH1 0x1F NOT PUSH1 0x1F DUP3 ADD AND DUP3 ADD DUP1 PUSH1 0x40 MSTORE POP DUP2 ADD SWAP1 PUSH2 0x1F5A SWAP2 SWAP1 PUSH2 0x461A JUMP JUMPDEST SWAP2 POP SWAP2 POP PUSH0 PUSH2 0x1F69 DUP15 DUP15 PUSH2 0x1439 JUMP JUMPDEST POP SWAP1 POP DUP1 PUSH20 0xFFFFFFFFFFFFFFFFFFFFFFFFFFFFFFFFFFFFFFFF AND DUP15 PUSH20 0xFFFFFFFFFFFFFFFFFFFFFFFFFFFFFFFFFFFFFFFF AND EQ PUSH2 0x1FA6 JUMPI DUP2 DUP4 PUSH2 0x1FA9 JUMP JUMPDEST DUP3 DUP3 JUMPDEST DUP1 SWAP8 POP DUP2 SWAP9 POP POP POP DUP11 DUP8 LT ISZERO PUSH2 0x1FF4 JUMPI PUSH1 0x40 MLOAD PUSH32 0x8C379A000000000000000000000000000000000000000000000000000000000 DUP2 MSTORE PUSH1 0x4 ADD PUSH2 0x1FEB SWAP1 PUSH2 0x46A2 JUMP JUMPDEST PUSH1 0x40 MLOAD DUP1 SWAP2 SUB SWAP1 REVERT JUMPDEST DUP10 DUP7 LT ISZERO PUSH2 0x2037 JUMPI PUSH1 0x40 MLOAD PUSH32 0x8C379A000000000000000000000000000000000000000000000000000000000 DUP2 MSTORE PUSH1 0x4 ADD PUSH2 0x202E SWAP1 PUSH2 0x470A JUMP JUMPDEST PUSH1 0x40 MLOAD DUP1 SWAP2 SUB SWAP1 REVERT JUMPDEST POP POP POP POP POP SWAP8 POP SWAP8 SWAP6 POP POP POP POP POP POP JUMP JUMPDEST PUSH32 0x0 DUP2 JUMP JUMPDEST PUSH1 0x60 PUSH1 0x2 DUP3 MLOAD LT ISZERO PUSH2 0x20B3 JUMPI PUSH1 0x40 MLOAD PUSH32 0x8C379A000000000000000000000000000000000000000000000000000000000 DUP2 MSTORE PUSH1 0x4 ADD PUSH2 0x20AA SWAP1 PUSH2 0x4129 JUMP JUMPDEST PUSH1 0x40 MLOAD DUP1 SWAP2 SUB SWAP1 REVERT JUMPDEST DUP2 MLOAD PUSH8 0xFFFFFFFFFFFFFFFF DUP2 GT ISZERO PUSH2 0x20CE JUMPI PUSH2 0x20CD PUSH2 0x37F8 JUMP JUMPDEST JUMPDEST PUSH1 0x40 MLOAD SWAP1 DUP1 DUP3 MSTORE DUP1 PUSH1 0x20 MUL PUSH1 0x20 ADD DUP3 ADD PUSH1 0x40 MSTORE DUP1 ISZERO PUSH2 0x20FC JUMPI DUP2 PUSH1 0x20 ADD PUSH1 0x20 DUP3 MUL DUP1 CALLDATASIZE DUP4 CALLDATACOPY DUP1 DUP3 ADD SWAP2 POP POP SWAP1 POP JUMPDEST POP SWAP1 POP DUP3 DUP2 PUSH0 DUP2 MLOAD DUP2 LT PUSH2 0x2113 JUMPI PUSH2 0x2112 PUSH2 0x4087 JUMP JUMPDEST JUMPDEST PUSH1 0x20 MUL PUSH1 0x20 ADD ADD DUP2 DUP2 MSTORE POP POP PUSH0 JUMPDEST PUSH1 0x1 DUP4 MLOAD PUSH2 0x212F SWAP2 SWAP1 PUSH2 0x4054 JUMP JUMPDEST DUP2 LT ISZERO PUSH2 0x21EB JUMPI PUSH0 DUP1 PUSH2 0x2182 DUP6 DUP5 DUP2 MLOAD DUP2 LT PUSH2 0x214E JUMPI PUSH2 0x214D PUSH2 0x4087 JUMP JUMPDEST JUMPDEST PUSH1 0x20 MUL PUSH1 0x20 ADD ADD MLOAD DUP7 PUSH1 0x1 DUP7 PUSH2 0x2164 SWAP2 SWAP1 PUSH2 0x4728 JUMP JUMPDEST DUP2 MLOAD DUP2 LT PUSH2 0x2175 JUMPI PUSH2 0x2174 PUSH2 0x4087 JUMP JUMPDEST JUMPDEST PUSH1 0x20 MUL PUSH1 0x20 ADD ADD MLOAD PUSH2 0x21F2 JUMP JUMPDEST SWAP2 POP SWAP2 POP PUSH2 0x21AB DUP5 DUP5 DUP2 MLOAD DUP2 LT PUSH2 0x219C JUMPI PUSH2 0x219B PUSH2 0x4087 JUMP JUMPDEST JUMPDEST PUSH1 0x20 MUL PUSH1 0x20 ADD ADD MLOAD DUP4 DUP4 PUSH2 0x7AD JUMP JUMPDEST DUP5 PUSH1 0x1 DUP6 PUSH2 0x21B9 SWAP2 SWAP1 PUSH2 0x4728 JUMP JUMPDEST DUP2 MLOAD DUP2 LT PUSH2 0x21CA JUMPI PUSH2 0x21C9 PUSH2 0x4087 JUMP JUMPDEST JUMPDEST PUSH1 0x20 MUL PUSH1 0x20 ADD ADD DUP2 DUP2 MSTORE POP POP POP POP DUP1 DUP1 PUSH2 0x21E3 SWAP1 PUSH2 0x475B JUMP JUMPDEST SWAP2 POP POP PUSH2 0x2121 JUMP JUMPDEST POP SWAP3 SWAP2 POP POP JUMP JUMPDEST PUSH0 DUP1 PUSH0 PUSH2 0x21FF DUP6 DUP6 PUSH2 0x1439 JUMP JUMPDEST POP SWAP1 POP PUSH0 DUP1 PUSH2 0x220E DUP8 DUP8 PUSH2 0x1C12 JUMP JUMPDEST PUSH20 0xFFFFFFFFFFFFFFFFFFFFFFFFFFFFFFFFFFFFFFFF AND PUSH4 0x902F1AC PUSH1 0x40 MLOAD DUP2 PUSH4 0xFFFFFFFF AND PUSH1 0xE0 SHL DUP2 MSTORE PUSH1 0x4 ADD PUSH1 0x60 PUSH1 0x40 MLOAD DUP1 DUP4 SUB DUP2 DUP7 GAS STATICCALL ISZERO DUP1 ISZERO PUSH2 0x2256 JUMPI RETURNDATASIZE PUSH0 DUP1 RETURNDATACOPY RETURNDATASIZE PUSH0 REVERT JUMPDEST POP POP POP POP PUSH1 0x40 MLOAD RETURNDATASIZE PUSH1 0x1F NOT PUSH1 0x1F DUP3 ADD AND DUP3 ADD DUP1 PUSH1 0x40 MSTORE POP DUP2 ADD SWAP1 PUSH2 0x227A SWAP2 SWAP1 PUSH2 0x481E JUMP JUMPDEST POP PUSH14 0xFFFFFFFFFFFFFFFFFFFFFFFFFFFF AND SWAP2 POP PUSH14 0xFFFFFFFFFFFFFFFFFFFFFFFFFFFF AND SWAP2 POP DUP3 PUSH20 0xFFFFFFFFFFFFFFFFFFFFFFFFFFFFFFFFFFFFFFFF AND DUP8 PUSH20 0xFFFFFFFFFFFFFFFFFFFFFFFFFFFFFFFFFFFFFFFF AND EQ PUSH2 0x22D9 JUMPI DUP1 DUP3 PUSH2 0x22DC JUMP JUMPDEST DUP2 DUP2 JUMPDEST DUP1 SWAP6 POP DUP2 SWAP7 POP POP POP POP POP POP SWAP3 POP SWAP3 SWAP1 POP JUMP JUMPDEST PUSH0 DUP1 PUSH0 PUSH2 0x231B DUP14 PUSH32 0x0 PUSH2 0x1C12 JUMP JUMPDEST SWAP1 POP PUSH0 DUP8 PUSH2 0x2329 JUMPI DUP13 PUSH2 0x234B JUMP JUMPDEST PUSH32 0xFFFFFFFFFFFFFFFFFFFFFFFFFFFFFFFFFFFFFFFFFFFFFFFFFFFFFFFFFFFFFFFF JUMPDEST SWAP1 POP DUP2 PUSH20 0xFFFFFFFFFFFFFFFFFFFFFFFFFFFFFFFFFFFFFFFF AND PUSH4 0xD505ACCF CALLER ADDRESS DUP5 DUP14 DUP13 DUP13 DUP13 PUSH1 0x40 MLOAD DUP9 PUSH4 0xFFFFFFFF AND PUSH1 0xE0 SHL DUP2 MSTORE PUSH1 0x4 ADD PUSH2 0x2392 SWAP8 SWAP7 SWAP6 SWAP5 SWAP4 SWAP3 SWAP2 SWAP1 PUSH2 0x41F4 JUMP JUMPDEST PUSH0 PUSH1 0x40 MLOAD DUP1 DUP4 SUB DUP2 PUSH0 DUP8 DUP1 EXTCODESIZE ISZERO DUP1 ISZERO PUSH2 0x23A9 JUMPI PUSH0 DUP1 REVERT JUMPDEST POP GAS CALL ISZERO DUP1 ISZERO PUSH2 0x23BB JUMPI RETURNDATASIZE PUSH0 DUP1 RETURNDATACOPY RETURNDATASIZE PUSH0 REVERT JUMPDEST POP POP POP POP PUSH2 0x23CD DUP15 DUP15 DUP15 DUP15 DUP15 DUP15 PUSH2 0x689 JUMP JUMPDEST DUP1 SWAP5 POP DUP2 SWAP6 POP POP POP POP POP SWAP11 POP SWAP11 SWAP9 POP POP POP POP POP POP POP POP POP JUMP JUMPDEST PUSH0 DUP1 PUSH0 DUP4 TIMESTAMP DUP2 LT ISZERO PUSH2 0x242D JUMPI PUSH1 0x40 MLOAD PUSH32 0x8C379A000000000000000000000000000000000000000000000000000000000 DUP2 MSTORE PUSH1 0x4 ADD PUSH2 0x2424 SWAP1 PUSH2 0x3EDC JUMP JUMPDEST PUSH1 0x40 MLOAD DUP1 SWAP2 SUB SWAP1 REVERT JUMPDEST PUSH2 0x243B DUP13 DUP13 DUP13 DUP13 DUP13 DUP13 PUSH2 0x31A6 JUMP JUMPDEST DUP1 SWAP5 POP DUP2 SWAP6 POP POP POP PUSH0 PUSH2 0x244E DUP14 DUP14 PUSH2 0x1C12 JUMP JUMPDEST SWAP1 POP PUSH2 0x245C DUP14 CALLER DUP4 DUP9 PUSH2 0x2E60 JUMP JUMPDEST PUSH2 0x2468 DUP13 CALLER DUP4 DUP8 PUSH2 0x2E60 JUMP JUMPDEST DUP1 PUSH20 0xFFFFFFFFFFFFFFFFFFFFFFFFFFFFFFFFFFFFFFFF AND PUSH4 0x6A627842 DUP9 PUSH1 0x40 MLOAD DUP3 PUSH4 0xFFFFFFFF AND PUSH1 0xE0 SHL DUP2 MSTORE PUSH1 0x4 ADD PUSH2 0x24A1 SWAP2 SWAP1 PUSH2 0x3C0D JUMP JUMPDEST PUSH1 0x20 PUSH1 0x40 MLOAD DUP1 DUP4 SUB DUP2 PUSH0 DUP8 GAS CALL ISZERO DUP1 ISZERO PUSH2 0x24BD JUMPI RETURNDATASIZE PUSH0 DUP1 RETURNDATACOPY RETURNDATASIZE PUSH0 REVERT JUMPDEST POP POP POP POP PUSH1 0x40 MLOAD RETURNDATASIZE PUSH1 0x1F NOT PUSH1 0x1F DUP3 ADD AND DUP3 ADD DUP1 PUSH1 0x40 MSTORE POP DUP2 ADD SWAP1 PUSH2 0x24E1 SWAP2 SWAP1 PUSH2 0x486E JUMP JUMPDEST SWAP3 POP POP POP SWAP9 POP SWAP9 POP SWAP9 SWAP6 POP POP POP POP POP POP JUMP JUMPDEST PUSH0 DUP1 PUSH0 DUP4 TIMESTAMP DUP2 LT ISZERO PUSH2 0x253A JUMPI PUSH1 0x40 MLOAD PUSH32 0x8C379A000000000000000000000000000000000000000000000000000000000 DUP2 MSTORE PUSH1 0x4 ADD PUSH2 0x2531 SWAP1 PUSH2 0x3EDC JUMP JUMPDEST PUSH1 0x40 MLOAD DUP1 SWAP2 SUB SWAP1 REVERT JUMPDEST PUSH2 0x2568 DUP11 PUSH32 0x0 DUP12 CALLVALUE DUP13 DUP13 PUSH2 0x31A6 JUMP JUMPDEST DUP1 SWAP5 POP DUP2 SWAP6 POP POP POP PUSH0 PUSH2 0x259B DUP12 PUSH32 0x0 PUSH2 0x1C12 JUMP JUMPDEST SWAP1 POP PUSH2 0x25A9 DUP12 CALLER DUP4 DUP9 PUSH2 0x2E60 JUMP JUMPDEST PUSH32 0x0 PUSH20 0xFFFFFFFFFFFFFFFFFFFFFFFFFFFFFFFFFFFFFFFF AND PUSH4 0xD0E30DB0 DUP6 PUSH1 0x40 MLOAD DUP3 PUSH4 0xFFFFFFFF AND PUSH1 0xE0 SHL DUP2 MSTORE PUSH1 0x4 ADD PUSH0 PUSH1 0x40 MLOAD DUP1 DUP4 SUB DUP2 DUP6 DUP9 DUP1 EXTCODESIZE ISZERO DUP1 ISZERO PUSH2 0x260F JUMPI PUSH0 DUP1 REVERT JUMPDEST POP GAS CALL ISZERO DUP1 ISZERO PUSH2 0x2621 JUMPI RETURNDATASIZE PUSH0 DUP1 RETURNDATACOPY RETURNDATASIZE PUSH0 REVERT JUMPDEST POP POP POP POP POP PUSH32 0x0 PUSH20 0xFFFFFFFFFFFFFFFFFFFFFFFFFFFFFFFFFFFFFFFF AND PUSH4 0xA9059CBB DUP3 DUP7 PUSH1 0x40 MLOAD DUP4 PUSH4 0xFFFFFFFF AND PUSH1 0xE0 SHL DUP2 MSTORE PUSH1 0x4 ADD PUSH2 0x2681 SWAP3 SWAP2 SWAP1 PUSH2 0x4399 JUMP JUMPDEST PUSH1 0x20 PUSH1 0x40 MLOAD DUP1 DUP4 SUB DUP2 PUSH0 DUP8 GAS CALL ISZERO DUP1 ISZERO PUSH2 0x269D JUMPI RETURNDATASIZE PUSH0 DUP1 RETURNDATACOPY RETURNDATASIZE PUSH0 REVERT JUMPDEST POP POP POP POP PUSH1 0x40 MLOAD RETURNDATASIZE PUSH1 0x1F NOT PUSH1 0x1F DUP3 ADD AND DUP3 ADD DUP1 PUSH1 0x40 MSTORE POP DUP2 ADD SWAP1 PUSH2 0x26C1 SWAP2 SWAP1 PUSH2 0x43D4 JUMP JUMPDEST PUSH2 0x26CE JUMPI PUSH2 0x26CD PUSH2 0x3427 JUMP JUMPDEST JUMPDEST DUP1 PUSH20 0xFFFFFFFFFFFFFFFFFFFFFFFFFFFFFFFFFFFFFFFF AND PUSH4 0x6A627842 DUP9 PUSH1 0x40 MLOAD DUP3 PUSH4 0xFFFFFFFF AND PUSH1 0xE0 SHL DUP2 MSTORE PUSH1 0x4 ADD PUSH2 0x2707 SWAP2 SWAP1 PUSH2 0x3C0D JUMP JUMPDEST PUSH1 0x20 PUSH1 0x40 MLOAD DUP1 DUP4 SUB DUP2 PUSH0 DUP8 GAS CALL ISZERO DUP1 ISZERO PUSH2 0x2723 JUMPI RETURNDATASIZE PUSH0 DUP1 RETURNDATACOPY RETURNDATASIZE PUSH0 REVERT JUMPDEST POP POP POP POP PUSH1 0x40 MLOAD RETURNDATASIZE PUSH1 0x1F NOT PUSH1 0x1F DUP3 ADD AND DUP3 ADD DUP1 PUSH1 0x40 MSTORE POP DUP2 ADD SWAP1 PUSH2 0x2747 SWAP2 SWAP1 PUSH2 0x486E JUMP JUMPDEST SWAP3 POP DUP4 CALLVALUE GT ISZERO PUSH2 0x2767 JUMPI PUSH2 0x2766 CALLER DUP6 CALLVALUE PUSH2 0x2761 SWAP2 SWAP1 PUSH2 0x4054 JUMP JUMPDEST PUSH2 0x2CA1 JUMP JUMPDEST JUMPDEST POP POP SWAP7 POP SWAP7 POP SWAP7 SWAP4 POP POP POP POP JUMP JUMPDEST PUSH1 0x60 DUP2 TIMESTAMP DUP2 LT ISZERO PUSH2 0x27BB JUMPI PUSH1 0x40 MLOAD PUSH32 0x8C379A000000000000000000000000000000000000000000000000000000000 DUP2 MSTORE PUSH1 0x4 ADD PUSH2 0x27B2 SWAP1 PUSH2 0x3EDC JUMP JUMPDEST PUSH1 0x40 MLOAD DUP1 SWAP2 SUB SWAP1 REVERT JUMPDEST PUSH32 0x0 PUSH20 0xFFFFFFFFFFFFFFFFFFFFFFFFFFFFFFFFFFFFFFFF AND DUP7 DUP7 PUSH0 DUP2 DUP2 LT PUSH2 0x2805 JUMPI PUSH2 0x2804 PUSH2 0x4087 JUMP JUMPDEST JUMPDEST SWAP1 POP PUSH1 0x20 MUL ADD PUSH1 0x20 DUP2 ADD SWAP1 PUSH2 0x281A SWAP2 SWAP1 PUSH2 0x40B4 JUMP JUMPDEST PUSH20 0xFFFFFFFFFFFFFFFFFFFFFFFFFFFFFFFFFFFFFFFF AND EQ PUSH2 0x2870 JUMPI PUSH1 0x40 MLOAD PUSH32 0x8C379A000000000000000000000000000000000000000000000000000000000 DUP2 MSTORE PUSH1 0x4 ADD PUSH2 0x2867 SWAP1 PUSH2 0x4129 JUMP JUMPDEST PUSH1 0x40 MLOAD DUP1 SWAP2 SUB SWAP1 REVERT JUMPDEST PUSH2 0x28BA DUP8 DUP8 DUP8 DUP1 DUP1 PUSH1 0x20 MUL PUSH1 0x20 ADD PUSH1 0x40 MLOAD SWAP1 DUP2 ADD PUSH1 0x40 MSTORE DUP1 SWAP4 SWAP3 SWAP2 SWAP1 DUP2 DUP2 MSTORE PUSH1 0x20 ADD DUP4 DUP4 PUSH1 0x20 MUL DUP1 DUP3 DUP5 CALLDATACOPY PUSH0 DUP2 DUP5 ADD MSTORE PUSH1 0x1F NOT PUSH1 0x1F DUP3 ADD AND SWAP1 POP DUP1 DUP4 ADD SWAP3 POP POP POP POP POP POP POP PUSH2 0xC46 JUMP JUMPDEST SWAP2 POP CALLVALUE DUP3 PUSH0 DUP2 MLOAD DUP2 LT PUSH2 0x28D0 JUMPI PUSH2 0x28CF PUSH2 0x4087 JUMP JUMPDEST JUMPDEST PUSH1 0x20 MUL PUSH1 0x20 ADD ADD MLOAD GT ISZERO PUSH2 0x2919 JUMPI PUSH1 0x40 MLOAD PUSH32 0x8C379A000000000000000000000000000000000000000000000000000000000 DUP2 MSTORE PUSH1 0x4 ADD PUSH2 0x2910 SWAP1 PUSH2 0x42AB JUMP JUMPDEST PUSH1 0x40 MLOAD DUP1 SWAP2 SUB SWAP1 REVERT JUMPDEST PUSH32 0x0 PUSH20 0xFFFFFFFFFFFFFFFFFFFFFFFFFFFFFFFFFFFFFFFF AND PUSH4 0xD0E30DB0 DUP4 PUSH0 DUP2 MLOAD DUP2 LT PUSH2 0x2968 JUMPI PUSH2 0x2967 PUSH2 0x4087 JUMP JUMPDEST JUMPDEST PUSH1 0x20 MUL PUSH1 0x20 ADD ADD MLOAD PUSH1 0x40 MLOAD DUP3 PUSH4 0xFFFFFFFF AND PUSH1 0xE0 SHL DUP2 MSTORE PUSH1 0x4 ADD PUSH0 PUSH1 0x40 MLOAD DUP1 DUP4 SUB DUP2 DUP6 DUP9 DUP1 EXTCODESIZE ISZERO DUP1 ISZERO PUSH2 0x2999 JUMPI PUSH0 DUP1 REVERT JUMPDEST POP GAS CALL ISZERO DUP1 ISZERO PUSH2 0x29AB JUMPI RETURNDATASIZE PUSH0 DUP1 RETURNDATACOPY RETURNDATASIZE PUSH0 REVERT JUMPDEST POP POP POP POP POP PUSH32 0x0 PUSH20 0xFFFFFFFFFFFFFFFFFFFFFFFFFFFFFFFFFFFFFFFF AND PUSH4 0xA9059CBB PUSH2 0x2A45 DUP9 DUP9 PUSH0 DUP2 DUP2 LT PUSH2 0x2A02 JUMPI PUSH2 0x2A01 PUSH2 0x4087 JUMP JUMPDEST JUMPDEST SWAP1 POP PUSH1 0x20 MUL ADD PUSH1 0x20 DUP2 ADD SWAP1 PUSH2 0x2A17 SWAP2 SWAP1 PUSH2 0x40B4 JUMP JUMPDEST DUP10 DUP10 PUSH1 0x1 DUP2 DUP2 LT PUSH2 0x2A2B JUMPI PUSH2 0x2A2A PUSH2 0x4087 JUMP JUMPDEST JUMPDEST SWAP1 POP PUSH1 0x20 MUL ADD PUSH1 0x20 DUP2 ADD SWAP1 PUSH2 0x2A40 SWAP2 SWAP1 PUSH2 0x40B4 JUMP JUMPDEST PUSH2 0x1C12 JUMP JUMPDEST DUP5 PUSH0 DUP2 MLOAD DUP2 LT PUSH2 0x2A58 JUMPI PUSH2 0x2A57 PUSH2 0x4087 JUMP JUMPDEST JUMPDEST PUSH1 0x20 MUL PUSH1 0x20 ADD ADD MLOAD PUSH1 0x40 MLOAD DUP4 PUSH4 0xFFFFFFFF AND PUSH1 0xE0 SHL DUP2 MSTORE PUSH1 0x4 ADD PUSH2 0x2A7D SWAP3 SWAP2 SWAP1 PUSH2 0x4399 JUMP JUMPDEST PUSH1 0x20 PUSH1 0x40 MLOAD DUP1 DUP4 SUB DUP2 PUSH0 DUP8 GAS CALL ISZERO DUP1 ISZERO PUSH2 0x2A99 JUMPI RETURNDATASIZE PUSH0 DUP1 RETURNDATACOPY RETURNDATASIZE PUSH0 REVERT JUMPDEST POP POP POP POP PUSH1 0x40 MLOAD RETURNDATASIZE PUSH1 0x1F NOT PUSH1 0x1F DUP3 ADD AND DUP3 ADD DUP1 PUSH1 0x40 MSTORE POP DUP2 ADD SWAP1 PUSH2 0x2ABD SWAP2 SWAP1 PUSH2 0x43D4 JUMP JUMPDEST PUSH2 0x2ACA JUMPI PUSH2 0x2AC9 PUSH2 0x3427 JUMP JUMPDEST JUMPDEST PUSH2 0x2B15 DUP3 DUP8 DUP8 DUP1 DUP1 PUSH1 0x20 MUL PUSH1 0x20 ADD PUSH1 0x40 MLOAD SWAP1 DUP2 ADD PUSH1 0x40 MSTORE DUP1 SWAP4 SWAP3 SWAP2 SWAP1 DUP2 DUP2 MSTORE PUSH1 0x20 ADD DUP4 DUP4 PUSH1 0x20 MUL DUP1 DUP3 DUP5 CALLDATACOPY PUSH0 DUP2 DUP5 ADD MSTORE PUSH1 0x1F NOT PUSH1 0x1F DUP3 ADD AND SWAP1 POP DUP1 DUP4 ADD SWAP3 POP POP POP POP POP POP POP DUP7 PUSH2 0x2F93 JUMP JUMPDEST DUP2 PUSH0 DUP2 MLOAD DUP2 LT PUSH2 0x2B28 JUMPI PUSH2 0x2B27 PUSH2 0x4087 JUMP JUMPDEST JUMPDEST PUSH1 0x20 MUL PUSH1 0x20 ADD ADD MLOAD CALLVALUE GT ISZERO PUSH2 0x2B67 JUMPI PUSH2 0x2B66 CALLER DUP4 PUSH0 DUP2 MLOAD DUP2 LT PUSH2 0x2B4E JUMPI PUSH2 0x2B4D PUSH2 0x4087 JUMP JUMPDEST JUMPDEST PUSH1 0x20 MUL PUSH1 0x20 ADD ADD MLOAD CALLVALUE PUSH2 0x2B61 SWAP2 SWAP1 PUSH2 0x4054 JUMP JUMPDEST PUSH2 0x2CA1 JUMP JUMPDEST JUMPDEST POP SWAP6 SWAP5 POP POP POP POP POP JUMP JUMPDEST PUSH0 DUP1 DUP5 PUSH20 0xFFFFFFFFFFFFFFFFFFFFFFFFFFFFFFFFFFFFFFFF AND PUSH4 0xA9059CBB DUP6 DUP6 PUSH1 0x40 MLOAD PUSH1 0x24 ADD PUSH2 0x2BA2 SWAP3 SWAP2 SWAP1 PUSH2 0x4399 JUMP JUMPDEST PUSH1 0x40 MLOAD PUSH1 0x20 DUP2 DUP4 SUB SUB DUP2 MSTORE SWAP1 PUSH1 0x40 MSTORE SWAP1 PUSH1 0xE0 SHL PUSH1 0x20 DUP3 ADD DUP1 MLOAD PUSH28 0xFFFFFFFFFFFFFFFFFFFFFFFFFFFFFFFFFFFFFFFFFFFFFFFFFFFFFFFF DUP4 DUP2 DUP4 AND OR DUP4 MSTORE POP POP POP POP PUSH1 0x40 MLOAD PUSH2 0x2BF0 SWAP2 SWAP1 PUSH2 0x4905 JUMP JUMPDEST PUSH0 PUSH1 0x40 MLOAD DUP1 DUP4 SUB DUP2 PUSH0 DUP7 GAS CALL SWAP2 POP POP RETURNDATASIZE DUP1 PUSH0 DUP2 EQ PUSH2 0x2C29 JUMPI PUSH1 0x40 MLOAD SWAP2 POP PUSH1 0x1F NOT PUSH1 0x3F RETURNDATASIZE ADD AND DUP3 ADD PUSH1 0x40 MSTORE RETURNDATASIZE DUP3 MSTORE RETURNDATASIZE PUSH0 PUSH1 0x20 DUP5 ADD RETURNDATACOPY PUSH2 0x2C2E JUMP JUMPDEST PUSH1 0x60 SWAP2 POP JUMPDEST POP SWAP2 POP SWAP2 POP DUP2 DUP1 ISZERO PUSH2 0x2C5B JUMPI POP PUSH0 DUP2 MLOAD EQ DUP1 PUSH2 0x2C5A JUMPI POP DUP1 DUP1 PUSH1 0x20 ADD SWAP1 MLOAD DUP2 ADD SWAP1 PUSH2 0x2C59 SWAP2 SWAP1 PUSH2 0x43D4 JUMP JUMPDEST JUMPDEST JUMPDEST PUSH2 0x2C9A JUMPI PUSH1 0x40 MLOAD PUSH32 0x8C379A000000000000000000000000000000000000000000000000000000000 DUP2 MSTORE PUSH1 0x4 ADD PUSH2 0x2C91 SWAP1 PUSH2 0x4965 JUMP JUMPDEST PUSH1 0x40 MLOAD DUP1 SWAP2 SUB SWAP1 REVERT JUMPDEST POP POP POP POP POP JUMP JUMPDEST PUSH0 DUP3 PUSH20 0xFFFFFFFFFFFFFFFFFFFFFFFFFFFFFFFFFFFFFFFF AND DUP3 PUSH0 PUSH8 0xFFFFFFFFFFFFFFFF DUP2 GT ISZERO PUSH2 0x2CD4 JUMPI PUSH2 0x2CD3 PUSH2 0x37F8 JUMP JUMPDEST JUMPDEST PUSH1 0x40 MLOAD SWAP1 DUP1 DUP3 MSTORE DUP1 PUSH1 0x1F ADD PUSH1 0x1F NOT AND PUSH1 0x20 ADD DUP3 ADD PUSH1 0x40 MSTORE DUP1 ISZERO PUSH2 0x2D06 JUMPI DUP2 PUSH1 0x20 ADD PUSH1 0x1 DUP3 MUL DUP1 CALLDATASIZE DUP4 CALLDATACOPY DUP1 DUP3 ADD SWAP2 POP POP SWAP1 POP JUMPDEST POP PUSH1 0x40 MLOAD PUSH2 0x2D14 SWAP2 SWAP1 PUSH2 0x4905 JUMP JUMPDEST PUSH0 PUSH1 0x40 MLOAD DUP1 DUP4 SUB DUP2 DUP6 DUP8 GAS CALL SWAP3 POP POP POP RETURNDATASIZE DUP1 PUSH0 DUP2 EQ PUSH2 0x2D4E JUMPI PUSH1 0x40 MLOAD SWAP2 POP PUSH1 0x1F NOT PUSH1 0x3F RETURNDATASIZE ADD AND DUP3 ADD PUSH1 0x40 MSTORE RETURNDATASIZE DUP3 MSTORE RETURNDATASIZE PUSH0 PUSH1 0x20 DUP5 ADD RETURNDATACOPY PUSH2 0x2D53 JUMP JUMPDEST PUSH1 0x60 SWAP2 POP JUMPDEST POP POP SWAP1 POP DUP1 PUSH2 0x2D97 JUMPI PUSH1 0x40 MLOAD PUSH32 0x8C379A000000000000000000000000000000000000000000000000000000000 DUP2 MSTORE PUSH1 0x4 ADD PUSH2 0x2D8E SWAP1 PUSH2 0x49F3 JUMP JUMPDEST PUSH1 0x40 MLOAD DUP1 SWAP2 SUB SWAP1 REVERT JUMPDEST POP POP POP JUMP JUMPDEST PUSH0 DUP1 DUP3 EQ DUP1 PUSH2 0x2DC3 JUMPI POP DUP3 DUP3 DUP4 DUP6 PUSH2 0x2DB4 SWAP2 SWAP1 PUSH2 0x4A11 JUMP JUMPDEST SWAP3 POP DUP3 PUSH2 0x2DC1 SWAP2 SWAP1 PUSH2 0x4024 JUMP JUMPDEST EQ JUMPDEST PUSH2 0x2E02 JUMPI PUSH1 0x40 MLOAD PUSH32 0x8C379A000000000000000000000000000000000000000000000000000000000 DUP2 MSTORE PUSH1 0x4 ADD PUSH2 0x2DF9 SWAP1 PUSH2 0x4A9C JUMP JUMPDEST PUSH1 0x40 MLOAD DUP1 SWAP2 SUB SWAP1 REVERT JUMPDEST SWAP3 SWAP2 POP POP JUMP JUMPDEST PUSH0 DUP3 DUP3 DUP5 PUSH2 0x2E16 SWAP2 SWAP1 PUSH2 0x4728 JUMP JUMPDEST SWAP2 POP DUP2 LT ISZERO PUSH2 0x2E5A JUMPI PUSH1 0x40 MLOAD PUSH32 0x8C379A000000000000000000000000000000000000000000000000000000000 DUP2 MSTORE PUSH1 0x4 ADD PUSH2 0x2E51 SWAP1 PUSH2 0x4B04 JUMP JUMPDEST PUSH1 0x40 MLOAD DUP1 SWAP2 SUB SWAP1 REVERT JUMPDEST SWAP3 SWAP2 POP POP JUMP JUMPDEST PUSH0 DUP1 DUP6 PUSH20 0xFFFFFFFFFFFFFFFFFFFFFFFFFFFFFFFFFFFFFFFF AND PUSH4 0x23B872DD DUP7 DUP7 DUP7 PUSH1 0x40 MLOAD PUSH1 0x24 ADD PUSH2 0x2E93 SWAP4 SWAP3 SWAP2 SWAP1 PUSH2 0x45D1 JUMP JUMPDEST PUSH1 0x40 MLOAD PUSH1 0x20 DUP2 DUP4 SUB SUB DUP2 MSTORE SWAP1 PUSH1 0x40 MSTORE SWAP1 PUSH1 0xE0 SHL PUSH1 0x20 DUP3 ADD DUP1 MLOAD PUSH28 0xFFFFFFFFFFFFFFFFFFFFFFFFFFFFFFFFFFFFFFFFFFFFFFFFFFFFFFFF DUP4 DUP2 DUP4 AND OR DUP4 MSTORE POP POP POP POP PUSH1 0x40 MLOAD PUSH2 0x2EE1 SWAP2 SWAP1 PUSH2 0x4905 JUMP JUMPDEST PUSH0 PUSH1 0x40 MLOAD DUP1 DUP4 SUB DUP2 PUSH0 DUP7 GAS CALL SWAP2 POP POP RETURNDATASIZE DUP1 PUSH0 DUP2 EQ PUSH2 0x2F1A JUMPI PUSH1 0x40 MLOAD SWAP2 POP PUSH1 0x1F NOT PUSH1 0x3F RETURNDATASIZE ADD AND DUP3 ADD PUSH1 0x40 MSTORE RETURNDATASIZE DUP3 MSTORE RETURNDATASIZE PUSH0 PUSH1 0x20 DUP5 ADD RETURNDATACOPY PUSH2 0x2F1F JUMP JUMPDEST PUSH1 0x60 SWAP2 POP JUMPDEST POP SWAP2 POP SWAP2 POP DUP2 DUP1 ISZERO PUSH2 0x2F4C JUMPI POP PUSH0 DUP2 MLOAD EQ DUP1 PUSH2 0x2F4B JUMPI POP DUP1 DUP1 PUSH1 0x20 ADD SWAP1 MLOAD DUP2 ADD SWAP1 PUSH2 0x2F4A SWAP2 SWAP1 PUSH2 0x43D4 JUMP JUMPDEST JUMPDEST JUMPDEST PUSH2 0x2F8B JUMPI PUSH1 0x40 MLOAD PUSH32 0x8C379A000000000000000000000000000000000000000000000000000000000 DUP2 MSTORE PUSH1 0x4 ADD PUSH2 0x2F82 SWAP1 PUSH2 0x4B92 JUMP JUMPDEST PUSH1 0x40 MLOAD DUP1 SWAP2 SUB SWAP1 REVERT JUMPDEST POP POP POP POP POP POP JUMP JUMPDEST PUSH0 JUMPDEST PUSH1 0x1 DUP4 MLOAD PUSH2 0x2FA3 SWAP2 SWAP1 PUSH2 0x4054 JUMP JUMPDEST DUP2 LT ISZERO PUSH2 0x3148 JUMPI PUSH0 DUP1 DUP5 DUP4 DUP2 MLOAD DUP2 LT PUSH2 0x2FBF JUMPI PUSH2 0x2FBE PUSH2 0x4087 JUMP JUMPDEST JUMPDEST PUSH1 0x20 MUL PUSH1 0x20 ADD ADD MLOAD DUP6 PUSH1 0x1 DUP6 PUSH2 0x2FD5 SWAP2 SWAP1 PUSH2 0x4728 JUMP JUMPDEST DUP2 MLOAD DUP2 LT PUSH2 0x2FE6 JUMPI PUSH2 0x2FE5 PUSH2 0x4087 JUMP JUMPDEST JUMPDEST PUSH1 0x20 MUL PUSH1 0x20 ADD ADD MLOAD SWAP2 POP SWAP2 POP PUSH0 PUSH2 0x2FFD DUP4 DUP4 PUSH2 0x1439 JUMP JUMPDEST POP SWAP1 POP PUSH0 DUP8 PUSH1 0x1 DUP7 PUSH2 0x300F SWAP2 SWAP1 PUSH2 0x4728 JUMP JUMPDEST DUP2 MLOAD DUP2 LT PUSH2 0x3020 JUMPI PUSH2 0x301F PUSH2 0x4087 JUMP JUMPDEST JUMPDEST PUSH1 0x20 MUL PUSH1 0x20 ADD ADD MLOAD SWAP1 POP PUSH0 DUP1 DUP4 PUSH20 0xFFFFFFFFFFFFFFFFFFFFFFFFFFFFFFFFFFFFFFFF AND DUP7 PUSH20 0xFFFFFFFFFFFFFFFFFFFFFFFFFFFFFFFFFFFFFFFF AND EQ PUSH2 0x3066 JUMPI DUP3 PUSH0 PUSH2 0x3069 JUMP JUMPDEST PUSH0 DUP4 JUMPDEST SWAP2 POP SWAP2 POP PUSH0 PUSH1 0x2 DUP11 MLOAD PUSH2 0x307C SWAP2 SWAP1 PUSH2 0x4054 JUMP JUMPDEST DUP9 LT PUSH2 0x3088 JUMPI DUP9 PUSH2 0x30B9 JUMP JUMPDEST PUSH2 0x30B8 DUP7 DUP12 PUSH1 0x2 DUP12 PUSH2 0x309A SWAP2 SWAP1 PUSH2 0x4728 JUMP JUMPDEST DUP2 MLOAD DUP2 LT PUSH2 0x30AB JUMPI PUSH2 0x30AA PUSH2 0x4087 JUMP JUMPDEST JUMPDEST PUSH1 0x20 MUL PUSH1 0x20 ADD ADD MLOAD PUSH2 0x1C12 JUMP JUMPDEST JUMPDEST SWAP1 POP PUSH2 0x30C5 DUP8 DUP8 PUSH2 0x1C12 JUMP JUMPDEST PUSH20 0xFFFFFFFFFFFFFFFFFFFFFFFFFFFFFFFFFFFFFFFF AND PUSH4 0x6D9A640A DUP5 DUP5 DUP5 PUSH1 0x40 MLOAD DUP5 PUSH4 0xFFFFFFFF AND PUSH1 0xE0 SHL DUP2 MSTORE PUSH1 0x4 ADD PUSH2 0x3101 SWAP4 SWAP3 SWAP2 SWAP1 PUSH2 0x4BB0 JUMP JUMPDEST PUSH0 PUSH1 0x40 MLOAD DUP1 DUP4 SUB DUP2 PUSH0 DUP8 DUP1 EXTCODESIZE ISZERO DUP1 ISZERO PUSH2 0x3118 JUMPI PUSH0 DUP1 REVERT JUMPDEST POP GAS CALL ISZERO DUP1 ISZERO PUSH2 0x312A JUMPI RETURNDATASIZE PUSH0 DUP1 RETURNDATACOPY RETURNDATASIZE PUSH0 REVERT JUMPDEST POP POP POP POP POP POP POP POP POP POP POP DUP1 DUP1 PUSH2 0x3140 SWAP1 PUSH2 0x475B JUMP JUMPDEST SWAP2 POP POP PUSH2 0x2F95 JUMP JUMPDEST POP POP POP POP JUMP JUMPDEST PUSH0 DUP3 DUP3 DUP5 PUSH2 0x315C SWAP2 SWAP1 PUSH2 0x4054 JUMP JUMPDEST SWAP2 POP DUP2 GT ISZERO PUSH2 0x31A0 JUMPI PUSH1 0x40 MLOAD PUSH32 0x8C379A000000000000000000000000000000000000000000000000000000000 DUP2 MSTORE PUSH1 0x4 ADD PUSH2 0x3197 SWAP1 PUSH2 0x4C2F JUMP JUMPDEST PUSH1 0x40 MLOAD DUP1 SWAP2 SUB SWAP1 REVERT JUMPDEST SWAP3 SWAP2 POP POP JUMP JUMPDEST PUSH0 DUP1 PUSH0 PUSH20 0xFFFFFFFFFFFFFFFFFFFFFFFFFFFFFFFFFFFFFFFF AND PUSH32 0x0 PUSH20 0xFFFFFFFFFFFFFFFFFFFFFFFFFFFFFFFFFFFFFFFF AND PUSH4 0xE6A43905 DUP11 DUP11 PUSH1 0x40 MLOAD DUP4 PUSH4 0xFFFFFFFF AND PUSH1 0xE0 SHL DUP2 MSTORE PUSH1 0x4 ADD PUSH2 0x321A SWAP3 SWAP2 SWAP1 PUSH2 0x3B62 JUMP JUMPDEST PUSH1 0x20 PUSH1 0x40 MLOAD DUP1 DUP4 SUB DUP2 DUP7 GAS STATICCALL ISZERO DUP1 ISZERO PUSH2 0x3235 JUMPI RETURNDATASIZE PUSH0 DUP1 RETURNDATACOPY RETURNDATASIZE PUSH0 REVERT JUMPDEST POP POP POP POP PUSH1 0x40 MLOAD RETURNDATASIZE PUSH1 0x1F NOT PUSH1 0x1F DUP3 ADD AND DUP3 ADD DUP1 PUSH1 0x40 MSTORE POP DUP2 ADD SWAP1 PUSH2 0x3259 SWAP2 SWAP1 PUSH2 0x4C61 JUMP JUMPDEST PUSH20 0xFFFFFFFFFFFFFFFFFFFFFFFFFFFFFFFFFFFFFFFF AND SUB PUSH2 0x3311 JUMPI PUSH32 0x0 PUSH20 0xFFFFFFFFFFFFFFFFFFFFFFFFFFFFFFFFFFFFFFFF AND PUSH4 0xC9C65396 DUP10 DUP10 PUSH1 0x40 MLOAD DUP4 PUSH4 0xFFFFFFFF AND PUSH1 0xE0 SHL DUP2 MSTORE PUSH1 0x4 ADD PUSH2 0x32CF SWAP3 SWAP2 SWAP1 PUSH2 0x3B62 JUMP JUMPDEST PUSH1 0x20 PUSH1 0x40 MLOAD DUP1 DUP4 SUB DUP2 PUSH0 DUP8 GAS CALL ISZERO DUP1 ISZERO PUSH2 0x32EB JUMPI RETURNDATASIZE PUSH0 DUP1 RETURNDATACOPY RETURNDATASIZE PUSH0 REVERT JUMPDEST POP POP POP POP PUSH1 0x40 MLOAD RETURNDATASIZE PUSH1 0x1F NOT PUSH1 0x1F DUP3 ADD AND DUP3 ADD DUP1 PUSH1 0x40 MSTORE POP DUP2 ADD SWAP1 PUSH2 0x330F SWAP2 SWAP1 PUSH2 0x4C61 JUMP JUMPDEST POP JUMPDEST PUSH0 DUP1 PUSH2 0x331D DUP11 DUP11 PUSH2 0x21F2 JUMP JUMPDEST SWAP2 POP SWAP2 POP PUSH0 DUP3 EQ DUP1 ISZERO PUSH2 0x332F JUMPI POP PUSH0 DUP2 EQ JUMPDEST ISZERO PUSH2 0x3343 JUMPI DUP8 DUP8 DUP1 SWAP5 POP DUP2 SWAP6 POP POP POP PUSH2 0x341A JUMP JUMPDEST PUSH0 PUSH2 0x334F DUP10 DUP5 DUP5 PUSH2 0x1D58 JUMP JUMPDEST SWAP1 POP DUP8 DUP2 GT PUSH2 0x33AA JUMPI DUP6 DUP2 LT ISZERO PUSH2 0x339B JUMPI PUSH1 0x40 MLOAD PUSH32 0x8C379A000000000000000000000000000000000000000000000000000000000 DUP2 MSTORE PUSH1 0x4 ADD PUSH2 0x3392 SWAP1 PUSH2 0x470A JUMP JUMPDEST PUSH1 0x40 MLOAD DUP1 SWAP2 SUB SWAP1 REVERT JUMPDEST DUP9 DUP2 DUP1 SWAP6 POP DUP2 SWAP7 POP POP POP PUSH2 0x3418 JUMP JUMPDEST PUSH0 PUSH2 0x33B6 DUP10 DUP5 DUP7 PUSH2 0x1D58 JUMP JUMPDEST SWAP1 POP DUP10 DUP2 GT ISZERO PUSH2 0x33C9 JUMPI PUSH2 0x33C8 PUSH2 0x3427 JUMP JUMPDEST JUMPDEST DUP8 DUP2 LT ISZERO PUSH2 0x340C JUMPI PUSH1 0x40 MLOAD PUSH32 0x8C379A000000000000000000000000000000000000000000000000000000000 DUP2 MSTORE PUSH1 0x4 ADD PUSH2 0x3403 SWAP1 PUSH2 0x46A2 JUMP JUMPDEST PUSH1 0x40 MLOAD DUP1 SWAP2 SUB SWAP1 REVERT JUMPDEST DUP1 DUP10 DUP1 SWAP7 POP DUP2 SWAP8 POP POP POP POP JUMPDEST POP JUMPDEST POP POP SWAP7 POP SWAP7 SWAP5 POP POP POP POP POP JUMP JUMPDEST PUSH32 0x4E487B7100000000000000000000000000000000000000000000000000000000 PUSH0 MSTORE PUSH1 0x1 PUSH1 0x4 MSTORE PUSH1 0x24 PUSH0 REVERT JUMPDEST PUSH0 PUSH1 0x40 MLOAD SWAP1 POP SWAP1 JUMP JUMPDEST PUSH0 DUP1 REVERT JUMPDEST PUSH0 DUP1 REVERT JUMPDEST PUSH0 PUSH20 0xFFFFFFFFFFFFFFFFFFFFFFFFFFFFFFFFFFFFFFFF DUP3 AND SWAP1 POP SWAP2 SWAP1 POP JUMP JUMPDEST PUSH0 PUSH2 0x348E DUP3 PUSH2 0x3465 JUMP JUMPDEST SWAP1 POP SWAP2 SWAP1 POP JUMP JUMPDEST PUSH2 0x349E DUP2 PUSH2 0x3484 JUMP JUMPDEST DUP2 EQ PUSH2 0x34A8 JUMPI PUSH0 DUP1 REVERT JUMPDEST POP JUMP JUMPDEST PUSH0 DUP2 CALLDATALOAD SWAP1 POP PUSH2 0x34B9 DUP2 PUSH2 0x3495 JUMP JUMPDEST SWAP3 SWAP2 POP POP JUMP JUMPDEST PUSH0 DUP2 SWAP1 POP SWAP2 SWAP1 POP JUMP JUMPDEST PUSH2 0x34D1 DUP2 PUSH2 0x34BF JUMP JUMPDEST DUP2 EQ PUSH2 0x34DB JUMPI PUSH0 DUP1 REVERT JUMPDEST POP JUMP JUMPDEST PUSH0 DUP2 CALLDATALOAD SWAP1 POP PUSH2 0x34EC DUP2 PUSH2 0x34C8 JUMP JUMPDEST SWAP3 SWAP2 POP POP JUMP JUMPDEST PUSH0 DUP1 PUSH0 DUP1 PUSH0 DUP1 PUSH1 0xC0 DUP8 DUP10 SUB SLT ISZERO PUSH2 0x350C JUMPI PUSH2 0x350B PUSH2 0x345D JUMP JUMPDEST JUMPDEST PUSH0 PUSH2 0x3519 DUP10 DUP3 DUP11 ADD PUSH2 0x34AB JUMP JUMPDEST SWAP7 POP POP PUSH1 0x20 PUSH2 0x352A DUP10 DUP3 DUP11 ADD PUSH2 0x34DE JUMP JUMPDEST SWAP6 POP POP PUSH1 0x40 PUSH2 0x353B DUP10 DUP3 DUP11 ADD PUSH2 0x34DE JUMP JUMPDEST SWAP5 POP POP PUSH1 0x60 PUSH2 0x354C DUP10 DUP3 DUP11 ADD PUSH2 0x34DE JUMP JUMPDEST SWAP4 POP POP PUSH1 0x80 PUSH2 0x355D DUP10 DUP3 DUP11 ADD PUSH2 0x34AB JUMP JUMPDEST SWAP3 POP POP PUSH1 0xA0 PUSH2 0x356E DUP10 DUP3 DUP11 ADD PUSH2 0x34DE JUMP JUMPDEST SWAP2 POP POP SWAP3 SWAP6 POP SWAP3 SWAP6 POP SWAP3 SWAP6 JUMP JUMPDEST PUSH2 0x3584 DUP2 PUSH2 0x34BF JUMP JUMPDEST DUP3 MSTORE POP POP JUMP JUMPDEST PUSH0 PUSH1 0x40 DUP3 ADD SWAP1 POP PUSH2 0x359D PUSH0 DUP4 ADD DUP6 PUSH2 0x357B JUMP JUMPDEST PUSH2 0x35AA PUSH1 0x20 DUP4 ADD DUP5 PUSH2 0x357B JUMP JUMPDEST SWAP4 SWAP3 POP POP POP JUMP JUMPDEST PUSH0 DUP1 PUSH0 PUSH1 0x60 DUP5 DUP7 SUB SLT ISZERO PUSH2 0x35C8 JUMPI PUSH2 0x35C7 PUSH2 0x345D JUMP JUMPDEST JUMPDEST PUSH0 PUSH2 0x35D5 DUP7 DUP3 DUP8 ADD PUSH2 0x34DE JUMP JUMPDEST SWAP4 POP POP PUSH1 0x20 PUSH2 0x35E6 DUP7 DUP3 DUP8 ADD PUSH2 0x34DE JUMP JUMPDEST SWAP3 POP POP PUSH1 0x40 PUSH2 0x35F7 DUP7 DUP3 DUP8 ADD PUSH2 0x34DE JUMP JUMPDEST SWAP2 POP POP SWAP3 POP SWAP3 POP SWAP3 JUMP JUMPDEST PUSH0 PUSH1 0x20 DUP3 ADD SWAP1 POP PUSH2 0x3614 PUSH0 DUP4 ADD DUP5 PUSH2 0x357B JUMP JUMPDEST SWAP3 SWAP2 POP POP JUMP JUMPDEST PUSH0 DUP1 REVERT JUMPDEST PUSH0 DUP1 REVERT JUMPDEST PUSH0 DUP1 REVERT JUMPDEST PUSH0 DUP1 DUP4 PUSH1 0x1F DUP5 ADD SLT PUSH2 0x363B JUMPI PUSH2 0x363A PUSH2 0x361A JUMP JUMPDEST JUMPDEST DUP3 CALLDATALOAD SWAP1 POP PUSH8 0xFFFFFFFFFFFFFFFF DUP2 GT ISZERO PUSH2 0x3658 JUMPI PUSH2 0x3657 PUSH2 0x361E JUMP JUMPDEST JUMPDEST PUSH1 0x20 DUP4 ADD SWAP2 POP DUP4 PUSH1 0x20 DUP3 MUL DUP4 ADD GT ISZERO PUSH2 0x3674 JUMPI PUSH2 0x3673 PUSH2 0x3622 JUMP JUMPDEST JUMPDEST SWAP3 POP SWAP3 SWAP1 POP JUMP JUMPDEST PUSH0 DUP1 PUSH0 DUP1 PUSH0 DUP1 PUSH1 0xA0 DUP8 DUP10 SUB SLT ISZERO PUSH2 0x3695 JUMPI PUSH2 0x3694 PUSH2 0x345D JUMP JUMPDEST JUMPDEST PUSH0 PUSH2 0x36A2 DUP10 DUP3 DUP11 ADD PUSH2 0x34DE JUMP JUMPDEST SWAP7 POP POP PUSH1 0x20 PUSH2 0x36B3 DUP10 DUP3 DUP11 ADD PUSH2 0x34DE JUMP JUMPDEST SWAP6 POP POP PUSH1 0x40 DUP8 ADD CALLDATALOAD PUSH8 0xFFFFFFFFFFFFFFFF DUP2 GT ISZERO PUSH2 0x36D4 JUMPI PUSH2 0x36D3 PUSH2 0x3461 JUMP JUMPDEST JUMPDEST PUSH2 0x36E0 DUP10 DUP3 DUP11 ADD PUSH2 0x3626 JUMP JUMPDEST SWAP5 POP SWAP5 POP POP PUSH1 0x60 PUSH2 0x36F3 DUP10 DUP3 DUP11 ADD PUSH2 0x34AB JUMP JUMPDEST SWAP3 POP POP PUSH1 0x80 PUSH2 0x3704 DUP10 DUP3 DUP11 ADD PUSH2 0x34DE JUMP JUMPDEST SWAP2 POP POP SWAP3 SWAP6 POP SWAP3 SWAP6 POP SWAP3 SWAP6 JUMP JUMPDEST PUSH0 DUP2 MLOAD SWAP1 POP SWAP2 SWAP1 POP JUMP JUMPDEST PUSH0 DUP3 DUP3 MSTORE PUSH1 0x20 DUP3 ADD SWAP1 POP SWAP3 SWAP2 POP POP JUMP JUMPDEST PUSH0 DUP2 SWAP1 POP PUSH1 0x20 DUP3 ADD SWAP1 POP SWAP2 SWAP1 POP JUMP JUMPDEST PUSH2 0x3743 DUP2 PUSH2 0x34BF JUMP JUMPDEST DUP3 MSTORE POP POP JUMP JUMPDEST PUSH0 PUSH2 0x3754 DUP4 DUP4 PUSH2 0x373A JUMP JUMPDEST PUSH1 0x20 DUP4 ADD SWAP1 POP SWAP3 SWAP2 POP POP JUMP JUMPDEST PUSH0 PUSH1 0x20 DUP3 ADD SWAP1 POP SWAP2 SWAP1 POP JUMP JUMPDEST PUSH0 PUSH2 0x3776 DUP3 PUSH2 0x3711 JUMP JUMPDEST PUSH2 0x3780 DUP2 DUP6 PUSH2 0x371B JUMP JUMPDEST SWAP4 POP PUSH2 0x378B DUP4 PUSH2 0x372B JUMP JUMPDEST DUP1 PUSH0 JUMPDEST DUP4 DUP2 LT ISZERO PUSH2 0x37BB JUMPI DUP2 MLOAD PUSH2 0x37A2 DUP9 DUP3 PUSH2 0x3749 JUMP JUMPDEST SWAP8 POP PUSH2 0x37AD DUP4 PUSH2 0x3760 JUMP JUMPDEST SWAP3 POP POP PUSH1 0x1 DUP2 ADD SWAP1 POP PUSH2 0x378E JUMP JUMPDEST POP DUP6 SWAP4 POP POP POP POP SWAP3 SWAP2 POP POP JUMP JUMPDEST PUSH0 PUSH1 0x20 DUP3 ADD SWAP1 POP DUP2 DUP2 SUB PUSH0 DUP4 ADD MSTORE PUSH2 0x37E0 DUP2 DUP5 PUSH2 0x376C JUMP JUMPDEST SWAP1 POP SWAP3 SWAP2 POP POP JUMP JUMPDEST PUSH0 PUSH1 0x1F NOT PUSH1 0x1F DUP4 ADD AND SWAP1 POP SWAP2 SWAP1 POP JUMP JUMPDEST PUSH32 0x4E487B7100000000000000000000000000000000000000000000000000000000 PUSH0 MSTORE PUSH1 0x41 PUSH1 0x4 MSTORE PUSH1 0x24 PUSH0 REVERT JUMPDEST PUSH2 0x382E DUP3 PUSH2 0x37E8 JUMP JUMPDEST DUP2 ADD DUP2 DUP2 LT PUSH8 0xFFFFFFFFFFFFFFFF DUP3 GT OR ISZERO PUSH2 0x384D JUMPI PUSH2 0x384C PUSH2 0x37F8 JUMP JUMPDEST JUMPDEST DUP1 PUSH1 0x40 MSTORE POP POP POP JUMP JUMPDEST PUSH0 PUSH2 0x385F PUSH2 0x3454 JUMP JUMPDEST SWAP1 POP PUSH2 0x386B DUP3 DUP3 PUSH2 0x3825 JUMP JUMPDEST SWAP2 SWAP1 POP JUMP JUMPDEST PUSH0 PUSH8 0xFFFFFFFFFFFFFFFF DUP3 GT ISZERO PUSH2 0x388A JUMPI PUSH2 0x3889 PUSH2 0x37F8 JUMP JUMPDEST JUMPDEST PUSH1 0x20 DUP3 MUL SWAP1 POP PUSH1 0x20 DUP2 ADD SWAP1 POP SWAP2 SWAP1 POP JUMP JUMPDEST PUSH0 PUSH2 0x38AD PUSH2 0x38A8 DUP5 PUSH2 0x3870 JUMP JUMPDEST PUSH2 0x3856 JUMP JUMPDEST SWAP1 POP DUP1 DUP4 DUP3 MSTORE PUSH1 0x20 DUP3 ADD SWAP1 POP PUSH1 0x20 DUP5 MUL DUP4 ADD DUP6 DUP2 GT ISZERO PUSH2 0x38D0 JUMPI PUSH2 0x38CF PUSH2 0x3622 JUMP JUMPDEST JUMPDEST DUP4 JUMPDEST DUP2 DUP2 LT ISZERO PUSH2 0x38F9 JUMPI DUP1 PUSH2 0x38E5 DUP9 DUP3 PUSH2 0x34AB JUMP JUMPDEST DUP5 MSTORE PUSH1 0x20 DUP5 ADD SWAP4 POP POP PUSH1 0x20 DUP2 ADD SWAP1 POP PUSH2 0x38D2 JUMP JUMPDEST POP POP POP SWAP4 SWAP3 POP POP POP JUMP JUMPDEST PUSH0 DUP3 PUSH1 0x1F DUP4 ADD SLT PUSH2 0x3917 JUMPI PUSH2 0x3916 PUSH2 0x361A JUMP JUMPDEST JUMPDEST DUP2 CALLDATALOAD PUSH2 0x3927 DUP5 DUP3 PUSH1 0x20 DUP7 ADD PUSH2 0x389B JUMP JUMPDEST SWAP2 POP POP SWAP3 SWAP2 POP POP JUMP JUMPDEST PUSH0 DUP1 PUSH1 0x40 DUP4 DUP6 SUB SLT ISZERO PUSH2 0x3946 JUMPI PUSH2 0x3945 PUSH2 0x345D JUMP JUMPDEST JUMPDEST PUSH0 PUSH2 0x3953 DUP6 DUP3 DUP7 ADD PUSH2 0x34DE JUMP JUMPDEST SWAP3 POP POP PUSH1 0x20 DUP4 ADD CALLDATALOAD PUSH8 0xFFFFFFFFFFFFFFFF DUP2 GT ISZERO PUSH2 0x3974 JUMPI PUSH2 0x3973 PUSH2 0x3461 JUMP JUMPDEST JUMPDEST PUSH2 0x3980 DUP6 DUP3 DUP7 ADD PUSH2 0x3903 JUMP JUMPDEST SWAP2 POP POP SWAP3 POP SWAP3 SWAP1 POP JUMP JUMPDEST PUSH0 DUP2 ISZERO ISZERO SWAP1 POP SWAP2 SWAP1 POP JUMP JUMPDEST PUSH2 0x399E DUP2 PUSH2 0x398A JUMP JUMPDEST DUP2 EQ PUSH2 0x39A8 JUMPI PUSH0 DUP1 REVERT JUMPDEST POP JUMP JUMPDEST PUSH0 DUP2 CALLDATALOAD SWAP1 POP PUSH2 0x39B9 DUP2 PUSH2 0x3995 JUMP JUMPDEST SWAP3 SWAP2 POP POP JUMP JUMPDEST PUSH0 PUSH1 0xFF DUP3 AND SWAP1 POP SWAP2 SWAP1 POP JUMP JUMPDEST PUSH2 0x39D4 DUP2 PUSH2 0x39BF JUMP JUMPDEST DUP2 EQ PUSH2 0x39DE JUMPI PUSH0 DUP1 REVERT JUMPDEST POP JUMP JUMPDEST PUSH0 DUP2 CALLDATALOAD SWAP1 POP PUSH2 0x39EF DUP2 PUSH2 0x39CB JUMP JUMPDEST SWAP3 SWAP2 POP POP JUMP JUMPDEST PUSH0 DUP2 SWAP1 POP SWAP2 SWAP1 POP JUMP JUMPDEST PUSH2 0x3A07 DUP2 PUSH2 0x39F5 JUMP JUMPDEST DUP2 EQ PUSH2 0x3A11 JUMPI PUSH0 DUP1 REVERT JUMPDEST POP JUMP JUMPDEST PUSH0 DUP2 CALLDATALOAD SWAP1 POP PUSH2 0x3A22 DUP2 PUSH2 0x39FE JUMP JUMPDEST SWAP3 SWAP2 POP POP JUMP JUMPDEST PUSH0 DUP1 PUSH0 DUP1 PUSH0 DUP1 PUSH0 DUP1 PUSH0 DUP1 PUSH0 PUSH2 0x160 DUP13 DUP15 SUB SLT ISZERO PUSH2 0x3A48 JUMPI PUSH2 0x3A47 PUSH2 0x345D JUMP JUMPDEST JUMPDEST PUSH0 PUSH2 0x3A55 DUP15 DUP3 DUP16 ADD PUSH2 0x34AB JUMP JUMPDEST SWAP12 POP POP PUSH1 0x20 PUSH2 0x3A66 DUP15 DUP3 DUP16 ADD PUSH2 0x34AB JUMP JUMPDEST SWAP11 POP POP PUSH1 0x40 PUSH2 0x3A77 DUP15 DUP3 DUP16 ADD PUSH2 0x34DE JUMP JUMPDEST SWAP10 POP POP PUSH1 0x60 PUSH2 0x3A88 DUP15 DUP3 DUP16 ADD PUSH2 0x34DE JUMP JUMPDEST SWAP9 POP POP PUSH1 0x80 PUSH2 0x3A99 DUP15 DUP3 DUP16 ADD PUSH2 0x34DE JUMP JUMPDEST SWAP8 POP POP PUSH1 0xA0 PUSH2 0x3AAA DUP15 DUP3 DUP16 ADD PUSH2 0x34AB JUMP JUMPDEST SWAP7 POP POP PUSH1 0xC0 PUSH2 0x3ABB DUP15 DUP3 DUP16 ADD PUSH2 0x34DE JUMP JUMPDEST SWAP6 POP POP PUSH1 0xE0 PUSH2 0x3ACC DUP15 DUP3 DUP16 ADD PUSH2 0x39AB JUMP JUMPDEST SWAP5 POP POP PUSH2 0x100 PUSH2 0x3ADE DUP15 DUP3 DUP16 ADD PUSH2 0x39E1 JUMP JUMPDEST SWAP4 POP POP PUSH2 0x120 PUSH2 0x3AF0 DUP15 DUP3 DUP16 ADD PUSH2 0x3A14 JUMP JUMPDEST SWAP3 POP POP PUSH2 0x140 PUSH2 0x3B02 DUP15 DUP3 DUP16 ADD PUSH2 0x3A14 JUMP JUMPDEST SWAP2 POP POP SWAP3 SWAP6 SWAP9 SWAP12 POP SWAP3 SWAP6 SWAP9 SWAP12 SWAP1 SWAP4 SWAP7 SWAP10 POP JUMP JUMPDEST PUSH0 DUP1 PUSH1 0x40 DUP4 DUP6 SUB SLT ISZERO PUSH2 0x3B2B JUMPI PUSH2 0x3B2A PUSH2 0x345D JUMP JUMPDEST JUMPDEST PUSH0 PUSH2 0x3B38 DUP6 DUP3 DUP7 ADD PUSH2 0x34AB JUMP JUMPDEST SWAP3 POP POP PUSH1 0x20 PUSH2 0x3B49 DUP6 DUP3 DUP7 ADD PUSH2 0x34AB JUMP JUMPDEST SWAP2 POP POP SWAP3 POP SWAP3 SWAP1 POP JUMP JUMPDEST PUSH2 0x3B5C DUP2 PUSH2 0x3484 JUMP JUMPDEST DUP3 MSTORE POP POP JUMP JUMPDEST PUSH0 PUSH1 0x40 DUP3 ADD SWAP1 POP PUSH2 0x3B75 PUSH0 DUP4 ADD DUP6 PUSH2 0x3B53 JUMP JUMPDEST PUSH2 0x3B82 PUSH1 0x20 DUP4 ADD DUP5 PUSH2 0x3B53 JUMP JUMPDEST SWAP4 SWAP3 POP POP POP JUMP JUMPDEST PUSH0 DUP1 PUSH0 DUP1 PUSH0 PUSH1 0x80 DUP7 DUP9 SUB SLT ISZERO PUSH2 0x3BA2 JUMPI PUSH2 0x3BA1 PUSH2 0x345D JUMP JUMPDEST JUMPDEST PUSH0 PUSH2 0x3BAF DUP9 DUP3 DUP10 ADD PUSH2 0x34DE JUMP JUMPDEST SWAP6 POP POP PUSH1 0x20 DUP7 ADD CALLDATALOAD PUSH8 0xFFFFFFFFFFFFFFFF DUP2 GT ISZERO PUSH2 0x3BD0 JUMPI PUSH2 0x3BCF PUSH2 0x3461 JUMP JUMPDEST JUMPDEST PUSH2 0x3BDC DUP9 DUP3 DUP10 ADD PUSH2 0x3626 JUMP JUMPDEST SWAP5 POP SWAP5 POP POP PUSH1 0x40 PUSH2 0x3BEF DUP9 DUP3 DUP10 ADD PUSH2 0x34AB JUMP JUMPDEST SWAP3 POP POP PUSH1 0x60 PUSH2 0x3C00 DUP9 DUP3 DUP10 ADD PUSH2 0x34DE JUMP JUMPDEST SWAP2 POP POP SWAP3 SWAP6 POP SWAP3 SWAP6 SWAP1 SWAP4 POP JUMP JUMPDEST PUSH0 PUSH1 0x20 DUP3 ADD SWAP1 POP PUSH2 0x3C20 PUSH0 DUP4 ADD DUP5 PUSH2 0x3B53 JUMP JUMPDEST SWAP3 SWAP2 POP POP JUMP JUMPDEST PUSH0 DUP1 PUSH0 DUP1 PUSH0 DUP1 PUSH0 PUSH1 0xE0 DUP9 DUP11 SUB SLT ISZERO PUSH2 0x3C41 JUMPI PUSH2 0x3C40 PUSH2 0x345D JUMP JUMPDEST JUMPDEST PUSH0 PUSH2 0x3C4E DUP11 DUP3 DUP12 ADD PUSH2 0x34AB JUMP JUMPDEST SWAP8 POP POP PUSH1 0x20 PUSH2 0x3C5F DUP11 DUP3 DUP12 ADD PUSH2 0x34AB JUMP JUMPDEST SWAP7 POP POP PUSH1 0x40 PUSH2 0x3C70 DUP11 DUP3 DUP12 ADD PUSH2 0x34DE JUMP JUMPDEST SWAP6 POP POP PUSH1 0x60 PUSH2 0x3C81 DUP11 DUP3 DUP12 ADD PUSH2 0x34DE JUMP JUMPDEST SWAP5 POP POP PUSH1 0x80 PUSH2 0x3C92 DUP11 DUP3 DUP12 ADD PUSH2 0x34DE JUMP JUMPDEST SWAP4 POP POP PUSH1 0xA0 PUSH2 0x3CA3 DUP11 DUP3 DUP12 ADD PUSH2 0x34AB JUMP JUMPDEST SWAP3 POP POP PUSH1 0xC0 PUSH2 0x3CB4 DUP11 DUP3 DUP12 ADD PUSH2 0x34DE JUMP JUMPDEST SWAP2 POP POP SWAP3 SWAP6 SWAP9 SWAP2 SWAP5 SWAP8 POP SWAP3 SWAP6 POP JUMP JUMPDEST PUSH0 DUP1 PUSH0 DUP1 PUSH0 DUP1 PUSH0 DUP1 PUSH0 DUP1 PUSH2 0x140 DUP12 DUP14 SUB SLT ISZERO PUSH2 0x3CE2 JUMPI PUSH2 0x3CE1 PUSH2 0x345D JUMP JUMPDEST JUMPDEST PUSH0 PUSH2 0x3CEF DUP14 DUP3 DUP15 ADD PUSH2 0x34AB JUMP JUMPDEST SWAP11 POP POP PUSH1 0x20 PUSH2 0x3D00 DUP14 DUP3 DUP15 ADD PUSH2 0x34DE JUMP JUMPDEST SWAP10 POP POP PUSH1 0x40 PUSH2 0x3D11 DUP14 DUP3 DUP15 ADD PUSH2 0x34DE JUMP JUMPDEST SWAP9 POP POP PUSH1 0x60 PUSH2 0x3D22 DUP14 DUP3 DUP15 ADD PUSH2 0x34DE JUMP JUMPDEST SWAP8 POP POP PUSH1 0x80 PUSH2 0x3D33 DUP14 DUP3 DUP15 ADD PUSH2 0x34AB JUMP JUMPDEST SWAP7 POP POP PUSH1 0xA0 PUSH2 0x3D44 DUP14 DUP3 DUP15 ADD PUSH2 0x34DE JUMP JUMPDEST SWAP6 POP POP PUSH1 0xC0 PUSH2 0x3D55 DUP14 DUP3 DUP15 ADD PUSH2 0x39AB JUMP JUMPDEST SWAP5 POP POP PUSH1 0xE0 PUSH2 0x3D66 DUP14 DUP3 DUP15 ADD PUSH2 0x39E1 JUMP JUMPDEST SWAP4 POP POP PUSH2 0x100 PUSH2 0x3D78 DUP14 DUP3 DUP15 ADD PUSH2 0x3A14 JUMP JUMPDEST SWAP3 POP POP PUSH2 0x120 PUSH2 0x3D8A DUP14 DUP3 DUP15 ADD PUSH2 0x3A14 JUMP JUMPDEST SWAP2 POP POP SWAP3 SWAP6 SWAP9 SWAP12 SWAP2 SWAP5 SWAP8 SWAP11 POP SWAP3 SWAP6 SWAP9 POP JUMP JUMPDEST PUSH0 DUP1 PUSH0 DUP1 PUSH0 DUP1 PUSH0 DUP1 PUSH2 0x100 DUP10 DUP12 SUB SLT ISZERO PUSH2 0x3DB9 JUMPI PUSH2 0x3DB8 PUSH2 0x345D JUMP JUMPDEST JUMPDEST PUSH0 PUSH2 0x3DC6 DUP12 DUP3 DUP13 ADD PUSH2 0x34AB JUMP JUMPDEST SWAP9 POP POP PUSH1 0x20 PUSH2 0x3DD7 DUP12 DUP3 DUP13 ADD PUSH2 0x34AB JUMP JUMPDEST SWAP8 POP POP PUSH1 0x40 PUSH2 0x3DE8 DUP12 DUP3 DUP13 ADD PUSH2 0x34DE JUMP JUMPDEST SWAP7 POP POP PUSH1 0x60 PUSH2 0x3DF9 DUP12 DUP3 DUP13 ADD PUSH2 0x34DE JUMP JUMPDEST SWAP6 POP POP PUSH1 0x80 PUSH2 0x3E0A DUP12 DUP3 DUP13 ADD PUSH2 0x34DE JUMP JUMPDEST SWAP5 POP POP PUSH1 0xA0 PUSH2 0x3E1B DUP12 DUP3 DUP13 ADD PUSH2 0x34DE JUMP JUMPDEST SWAP4 POP POP PUSH1 0xC0 PUSH2 0x3E2C DUP12 DUP3 DUP13 ADD PUSH2 0x34AB JUMP JUMPDEST SWAP3 POP POP PUSH1 0xE0 PUSH2 0x3E3D DUP12 DUP3 DUP13 ADD PUSH2 0x34DE JUMP JUMPDEST SWAP2 POP POP SWAP3 SWAP6 SWAP9 POP SWAP3 SWAP6 SWAP9 SWAP1 SWAP4 SWAP7 POP JUMP JUMPDEST PUSH0 PUSH1 0x60 DUP3 ADD SWAP1 POP PUSH2 0x3E60 PUSH0 DUP4 ADD DUP7 PUSH2 0x357B JUMP JUMPDEST PUSH2 0x3E6D PUSH1 0x20 DUP4 ADD DUP6 PUSH2 0x357B JUMP JUMPDEST PUSH2 0x3E7A PUSH1 0x40 DUP4 ADD DUP5 PUSH2 0x357B JUMP JUMPDEST SWAP5 SWAP4 POP POP POP POP JUMP JUMPDEST PUSH0 DUP3 DUP3 MSTORE PUSH1 0x20 DUP3 ADD SWAP1 POP SWAP3 SWAP2 POP POP JUMP JUMPDEST PUSH32 0x4558504952454400000000000000000000000000000000000000000000000000 PUSH0 DUP3 ADD MSTORE POP JUMP JUMPDEST PUSH0 PUSH2 0x3EC6 PUSH1 0x7 DUP4 PUSH2 0x3E82 JUMP JUMPDEST SWAP2 POP PUSH2 0x3ED1 DUP3 PUSH2 0x3E92 JUMP JUMPDEST PUSH1 0x20 DUP3 ADD SWAP1 POP SWAP2 SWAP1 POP JUMP JUMPDEST PUSH0 PUSH1 0x20 DUP3 ADD SWAP1 POP DUP2 DUP2 SUB PUSH0 DUP4 ADD MSTORE PUSH2 0x3EF3 DUP2 PUSH2 0x3EBA JUMP JUMPDEST SWAP1 POP SWAP2 SWAP1 POP JUMP JUMPDEST PUSH32 0x494E53554646494349454E545F494E5055545F414D4F554E5400000000000000 PUSH0 DUP3 ADD MSTORE POP JUMP JUMPDEST PUSH0 PUSH2 0x3F2E PUSH1 0x19 DUP4 PUSH2 0x3E82 JUMP JUMPDEST SWAP2 POP PUSH2 0x3F39 DUP3 PUSH2 0x3EFA JUMP JUMPDEST PUSH1 0x20 DUP3 ADD SWAP1 POP SWAP2 SWAP1 POP JUMP JUMPDEST PUSH0 PUSH1 0x20 DUP3 ADD SWAP1 POP DUP2 DUP2 SUB PUSH0 DUP4 ADD MSTORE PUSH2 0x3F5B DUP2 PUSH2 0x3F22 JUMP JUMPDEST SWAP1 POP SWAP2 SWAP1 POP JUMP JUMPDEST PUSH32 0x494E53554646494349454E545F4C495155494449545900000000000000000000 PUSH0 DUP3 ADD MSTORE POP JUMP JUMPDEST PUSH0 PUSH2 0x3F96 PUSH1 0x16 DUP4 PUSH2 0x3E82 JUMP JUMPDEST SWAP2 POP PUSH2 0x3FA1 DUP3 PUSH2 0x3F62 JUMP JUMPDEST PUSH1 0x20 DUP3 ADD SWAP1 POP SWAP2 SWAP1 POP JUMP JUMPDEST PUSH0 PUSH1 0x20 DUP3 ADD SWAP1 POP DUP2 DUP2 SUB PUSH0 DUP4 ADD MSTORE PUSH2 0x3FC3 DUP2 PUSH2 0x3F8A JUMP JUMPDEST SWAP1 POP SWAP2 SWAP1 POP JUMP JUMPDEST PUSH32 0x4E487B7100000000000000000000000000000000000000000000000000000000 PUSH0 MSTORE PUSH1 0x12 PUSH1 0x4 MSTORE PUSH1 0x24 PUSH0 REVERT JUMPDEST PUSH32 0x4E487B7100000000000000000000000000000000000000000000000000000000 PUSH0 MSTORE PUSH1 0x11 PUSH1 0x4 MSTORE PUSH1 0x24 PUSH0 REVERT JUMPDEST PUSH0 PUSH2 0x402E DUP3 PUSH2 0x34BF JUMP JUMPDEST SWAP2 POP PUSH2 0x4039 DUP4 PUSH2 0x34BF JUMP JUMPDEST SWAP3 POP DUP3 PUSH2 0x4049 JUMPI PUSH2 0x4048 PUSH2 0x3FCA JUMP JUMPDEST JUMPDEST DUP3 DUP3 DIV SWAP1 POP SWAP3 SWAP2 POP POP JUMP JUMPDEST PUSH0 PUSH2 0x405E DUP3 PUSH2 0x34BF JUMP JUMPDEST SWAP2 POP PUSH2 0x4069 DUP4 PUSH2 0x34BF JUMP JUMPDEST SWAP3 POP DUP3 DUP3 SUB SWAP1 POP DUP2 DUP2 GT ISZERO PUSH2 0x4081 JUMPI PUSH2 0x4080 PUSH2 0x3FF7 JUMP JUMPDEST JUMPDEST SWAP3 SWAP2 POP POP JUMP JUMPDEST PUSH32 0x4E487B7100000000000000000000000000000000000000000000000000000000 PUSH0 MSTORE PUSH1 0x32 PUSH1 0x4 MSTORE PUSH1 0x24 PUSH0 REVERT JUMPDEST PUSH0 PUSH1 0x20 DUP3 DUP5 SUB SLT ISZERO PUSH2 0x40C9 JUMPI PUSH2 0x40C8 PUSH2 0x345D JUMP JUMPDEST JUMPDEST PUSH0 PUSH2 0x40D6 DUP5 DUP3 DUP6 ADD PUSH2 0x34AB JUMP JUMPDEST SWAP2 POP POP SWAP3 SWAP2 POP POP JUMP JUMPDEST PUSH32 0x494E56414C49445F504154480000000000000000000000000000000000000000 PUSH0 DUP3 ADD MSTORE POP JUMP JUMPDEST PUSH0 PUSH2 0x4113 PUSH1 0xC DUP4 PUSH2 0x3E82 JUMP JUMPDEST SWAP2 POP PUSH2 0x411E DUP3 PUSH2 0x40DF JUMP JUMPDEST PUSH1 0x20 DUP3 ADD SWAP1 POP SWAP2 SWAP1 POP JUMP JUMPDEST PUSH0 PUSH1 0x20 DUP3 ADD SWAP1 POP DUP2 DUP2 SUB PUSH0 DUP4 ADD MSTORE PUSH2 0x4140 DUP2 PUSH2 0x4107 JUMP JUMPDEST SWAP1 POP SWAP2 SWAP1 POP JUMP JUMPDEST PUSH32 0x494E53554646494349454E545F4F55545055545F414D4F554E54000000000000 PUSH0 DUP3 ADD MSTORE POP JUMP JUMPDEST PUSH0 PUSH2 0x417B PUSH1 0x1A DUP4 PUSH2 0x3E82 JUMP JUMPDEST SWAP2 POP PUSH2 0x4186 DUP3 PUSH2 0x4147 JUMP JUMPDEST PUSH1 0x20 DUP3 ADD SWAP1 POP SWAP2 SWAP1 POP JUMP JUMPDEST PUSH0 PUSH1 0x20 DUP3 ADD SWAP1 POP DUP2 DUP2 SUB PUSH0 DUP4 ADD MSTORE PUSH2 0x41A8 DUP2 PUSH2 0x416F JUMP JUMPDEST SWAP1 POP SWAP2 SWAP1 POP JUMP JUMPDEST PUSH0 PUSH2 0x41B9 DUP3 PUSH2 0x34BF JUMP JUMPDEST SWAP2 POP PUSH0 DUP3 SUB PUSH2 0x41CB JUMPI PUSH2 0x41CA PUSH2 0x3FF7 JUMP JUMPDEST JUMPDEST PUSH1 0x1 DUP3 SUB SWAP1 POP SWAP2 SWAP1 POP JUMP JUMPDEST PUSH2 0x41DF DUP2 PUSH2 0x39BF JUMP JUMPDEST DUP3 MSTORE POP POP JUMP JUMPDEST PUSH2 0x41EE DUP2 PUSH2 0x39F5 JUMP JUMPDEST DUP3 MSTORE POP POP JUMP JUMPDEST PUSH0 PUSH1 0xE0 DUP3 ADD SWAP1 POP PUSH2 0x4207 PUSH0 DUP4 ADD DUP11 PUSH2 0x3B53 JUMP JUMPDEST PUSH2 0x4214 PUSH1 0x20 DUP4 ADD DUP10 PUSH2 0x3B53 JUMP JUMPDEST PUSH2 0x4221 PUSH1 0x40 DUP4 ADD DUP9 PUSH2 0x357B JUMP JUMPDEST PUSH2 0x422E PUSH1 0x60 DUP4 ADD DUP8 PUSH2 0x357B JUMP JUMPDEST PUSH2 0x423B PUSH1 0x80 DUP4 ADD DUP7 PUSH2 0x41D6 JUMP JUMPDEST PUSH2 0x4248 PUSH1 0xA0 DUP4 ADD DUP6 PUSH2 0x41E5 JUMP JUMPDEST PUSH2 0x4255 PUSH1 0xC0 DUP4 ADD DUP5 PUSH2 0x41E5 JUMP JUMPDEST SWAP9 SWAP8 POP POP POP POP POP POP POP POP JUMP JUMPDEST PUSH32 0x4558434553534956455F494E5055545F414D4F554E5400000000000000000000 PUSH0 DUP3 ADD MSTORE POP JUMP JUMPDEST PUSH0 PUSH2 0x4295 PUSH1 0x16 DUP4 PUSH2 0x3E82 JUMP JUMPDEST SWAP2 POP PUSH2 0x42A0 DUP3 PUSH2 0x4261 JUMP JUMPDEST PUSH1 0x20 DUP3 ADD SWAP1 POP SWAP2 SWAP1 POP JUMP JUMPDEST PUSH0 PUSH1 0x20 DUP3 ADD SWAP1 POP DUP2 DUP2 SUB PUSH0 DUP4 ADD MSTORE PUSH2 0x42C2 DUP2 PUSH2 0x4289 JUMP JUMPDEST SWAP1 POP SWAP2 SWAP1 POP JUMP JUMPDEST PUSH32 0x4944454E544943414C5F41444452455353455300000000000000000000000000 PUSH0 DUP3 ADD MSTORE POP JUMP JUMPDEST PUSH0 PUSH2 0x42FD PUSH1 0x13 DUP4 PUSH2 0x3E82 JUMP JUMPDEST SWAP2 POP PUSH2 0x4308 DUP3 PUSH2 0x42C9 JUMP JUMPDEST PUSH1 0x20 DUP3 ADD SWAP1 POP SWAP2 SWAP1 POP JUMP JUMPDEST PUSH0 PUSH1 0x20 DUP3 ADD SWAP1 POP DUP2 DUP2 SUB PUSH0 DUP4 ADD MSTORE PUSH2 0x432A DUP2 PUSH2 0x42F1 JUMP JUMPDEST SWAP1 POP SWAP2 SWAP1 POP JUMP JUMPDEST PUSH32 0x5A45524F5F414444524553530000000000000000000000000000000000000000 PUSH0 DUP3 ADD MSTORE POP JUMP JUMPDEST PUSH0 PUSH2 0x4365 PUSH1 0xC DUP4 PUSH2 0x3E82 JUMP JUMPDEST SWAP2 POP PUSH2 0x4370 DUP3 PUSH2 0x4331 JUMP JUMPDEST PUSH1 0x20 DUP3 ADD SWAP1 POP SWAP2 SWAP1 POP JUMP JUMPDEST PUSH0 PUSH1 0x20 DUP3 ADD SWAP1 POP DUP2 DUP2 SUB PUSH0 DUP4 ADD MSTORE PUSH2 0x4392 DUP2 PUSH2 0x4359 JUMP JUMPDEST SWAP1 POP SWAP2 SWAP1 POP JUMP JUMPDEST PUSH0 PUSH1 0x40 DUP3 ADD SWAP1 POP PUSH2 0x43AC PUSH0 DUP4 ADD DUP6 PUSH2 0x3B53 JUMP JUMPDEST PUSH2 0x43B9 PUSH1 0x20 DUP4 ADD DUP5 PUSH2 0x357B JUMP JUMPDEST SWAP4 SWAP3 POP POP POP JUMP JUMPDEST PUSH0 DUP2 MLOAD SWAP1 POP PUSH2 0x43CE DUP2 PUSH2 0x3995 JUMP JUMPDEST SWAP3 SWAP2 POP POP JUMP JUMPDEST PUSH0 PUSH1 0x20 DUP3 DUP5 SUB SLT ISZERO PUSH2 0x43E9 JUMPI PUSH2 0x43E8 PUSH2 0x345D JUMP JUMPDEST JUMPDEST PUSH0 PUSH2 0x43F6 DUP5 DUP3 DUP6 ADD PUSH2 0x43C0 JUMP JUMPDEST SWAP2 POP POP SWAP3 SWAP2 POP POP JUMP JUMPDEST PUSH0 DUP2 PUSH1 0x60 SHL SWAP1 POP SWAP2 SWAP1 POP JUMP JUMPDEST PUSH0 PUSH2 0x4415 DUP3 PUSH2 0x43FF JUMP JUMPDEST SWAP1 POP SWAP2 SWAP1 POP JUMP JUMPDEST PUSH0 PUSH2 0x4426 DUP3 PUSH2 0x440B JUMP JUMPDEST SWAP1 POP SWAP2 SWAP1 POP JUMP JUMPDEST PUSH2 0x443E PUSH2 0x4439 DUP3 PUSH2 0x3484 JUMP JUMPDEST PUSH2 0x441C JUMP JUMPDEST DUP3 MSTORE POP POP JUMP JUMPDEST PUSH0 PUSH2 0x444F DUP3 DUP6 PUSH2 0x442D JUMP JUMPDEST PUSH1 0x14 DUP3 ADD SWAP2 POP PUSH2 0x445F DUP3 DUP5 PUSH2 0x442D JUMP JUMPDEST PUSH1 0x14 DUP3 ADD SWAP2 POP DUP2 SWAP1 POP SWAP4 SWAP3 POP POP POP JUMP JUMPDEST PUSH0 DUP2 MLOAD SWAP1 POP PUSH2 0x447D DUP2 PUSH2 0x39FE JUMP JUMPDEST SWAP3 SWAP2 POP POP JUMP JUMPDEST PUSH0 PUSH1 0x20 DUP3 DUP5 SUB SLT ISZERO PUSH2 0x4498 JUMPI PUSH2 0x4497 PUSH2 0x345D JUMP JUMPDEST JUMPDEST PUSH0 PUSH2 0x44A5 DUP5 DUP3 DUP6 ADD PUSH2 0x446F JUMP JUMPDEST SWAP2 POP POP SWAP3 SWAP2 POP POP JUMP JUMPDEST PUSH0 DUP2 SWAP1 POP SWAP3 SWAP2 POP POP JUMP JUMPDEST PUSH32 0xFF00000000000000000000000000000000000000000000000000000000000000 PUSH0 DUP3 ADD MSTORE POP JUMP JUMPDEST PUSH0 PUSH2 0x44EC PUSH1 0x1 DUP4 PUSH2 0x44AE JUMP JUMPDEST SWAP2 POP PUSH2 0x44F7 DUP3 PUSH2 0x44B8 JUMP JUMPDEST PUSH1 0x1 DUP3 ADD SWAP1 POP SWAP2 SWAP1 POP JUMP JUMPDEST PUSH0 DUP2 SWAP1 POP SWAP2 SWAP1 POP JUMP JUMPDEST PUSH2 0x451C PUSH2 0x4517 DUP3 PUSH2 0x39F5 JUMP JUMPDEST PUSH2 0x4502 JUMP JUMPDEST DUP3 MSTORE POP POP JUMP JUMPDEST PUSH0 PUSH2 0x452C DUP3 PUSH2 0x44E0 JUMP JUMPDEST SWAP2 POP PUSH2 0x4538 DUP3 DUP7 PUSH2 0x442D JUMP JUMPDEST PUSH1 0x14 DUP3 ADD SWAP2 POP PUSH2 0x4548 DUP3 DUP6 PUSH2 0x450B JUMP JUMPDEST PUSH1 0x20 DUP3 ADD SWAP2 POP PUSH2 0x4558 DUP3 DUP5 PUSH2 0x450B JUMP JUMPDEST PUSH1 0x20 DUP3 ADD SWAP2 POP DUP2 SWAP1 POP SWAP5 SWAP4 POP POP POP POP JUMP JUMPDEST PUSH32 0x494E53554646494349454E545F414D4F554E5400000000000000000000000000 PUSH0 DUP3 ADD MSTORE POP JUMP JUMPDEST PUSH0 PUSH2 0x459D PUSH1 0x13 DUP4 PUSH2 0x3E82 JUMP JUMPDEST SWAP2 POP PUSH2 0x45A8 DUP3 PUSH2 0x4569 JUMP JUMPDEST PUSH1 0x20 DUP3 ADD SWAP1 POP SWAP2 SWAP1 POP JUMP JUMPDEST PUSH0 PUSH1 0x20 DUP3 ADD SWAP1 POP DUP2 DUP2 SUB PUSH0 DUP4 ADD MSTORE PUSH2 0x45CA DUP2 PUSH2 0x4591 JUMP JUMPDEST SWAP1 POP SWAP2 SWAP1 POP JUMP JUMPDEST PUSH0 PUSH1 0x60 DUP3 ADD SWAP1 POP PUSH2 0x45E4 PUSH0 DUP4 ADD DUP7 PUSH2 0x3B53 JUMP JUMPDEST PUSH2 0x45F1 PUSH1 0x20 DUP4 ADD DUP6 PUSH2 0x3B53 JUMP JUMPDEST PUSH2 0x45FE PUSH1 0x40 DUP4 ADD DUP5 PUSH2 0x357B JUMP JUMPDEST SWAP5 SWAP4 POP POP POP POP JUMP JUMPDEST PUSH0 DUP2 MLOAD SWAP1 POP PUSH2 0x4614 DUP2 PUSH2 0x34C8 JUMP JUMPDEST SWAP3 SWAP2 POP POP JUMP JUMPDEST PUSH0 DUP1 PUSH1 0x40 DUP4 DUP6 SUB SLT ISZERO PUSH2 0x4630 JUMPI PUSH2 0x462F PUSH2 0x345D JUMP JUMPDEST JUMPDEST PUSH0 PUSH2 0x463D DUP6 DUP3 DUP7 ADD PUSH2 0x4606 JUMP JUMPDEST SWAP3 POP POP PUSH1 0x20 PUSH2 0x464E DUP6 DUP3 DUP7 ADD PUSH2 0x4606 JUMP JUMPDEST SWAP2 POP POP SWAP3 POP SWAP3 SWAP1 POP JUMP JUMPDEST PUSH32 0x494E53554646494349454E545F415F414D4F554E540000000000000000000000 PUSH0 DUP3 ADD MSTORE POP JUMP JUMPDEST PUSH0 PUSH2 0x468C PUSH1 0x15 DUP4 PUSH2 0x3E82 JUMP JUMPDEST SWAP2 POP PUSH2 0x4697 DUP3 PUSH2 0x4658 JUMP JUMPDEST PUSH1 0x20 DUP3 ADD SWAP1 POP SWAP2 SWAP1 POP JUMP JUMPDEST PUSH0 PUSH1 0x20 DUP3 ADD SWAP1 POP DUP2 DUP2 SUB PUSH0 DUP4 ADD MSTORE PUSH2 0x46B9 DUP2 PUSH2 0x4680 JUMP JUMPDEST SWAP1 POP SWAP2 SWAP1 POP JUMP JUMPDEST PUSH32 0x494E53554646494349454E545F425F414D4F554E540000000000000000000000 PUSH0 DUP3 ADD MSTORE POP JUMP JUMPDEST PUSH0 PUSH2 0x46F4 PUSH1 0x15 DUP4 PUSH2 0x3E82 JUMP JUMPDEST SWAP2 POP PUSH2 0x46FF DUP3 PUSH2 0x46C0 JUMP JUMPDEST PUSH1 0x20 DUP3 ADD SWAP1 POP SWAP2 SWAP1 POP JUMP JUMPDEST PUSH0 PUSH1 0x20 DUP3 ADD SWAP1 POP DUP2 DUP2 SUB PUSH0 DUP4 ADD MSTORE PUSH2 0x4721 DUP2 PUSH2 0x46E8 JUMP JUMPDEST SWAP1 POP SWAP2 SWAP1 POP JUMP JUMPDEST PUSH0 PUSH2 0x4732 DUP3 PUSH2 0x34BF JUMP JUMPDEST SWAP2 POP PUSH2 0x473D DUP4 PUSH2 0x34BF JUMP JUMPDEST SWAP3 POP DUP3 DUP3 ADD SWAP1 POP DUP1 DUP3 GT ISZERO PUSH2 0x4755 JUMPI PUSH2 0x4754 PUSH2 0x3FF7 JUMP JUMPDEST JUMPDEST SWAP3 SWAP2 POP POP JUMP JUMPDEST PUSH0 PUSH2 0x4765 DUP3 PUSH2 0x34BF JUMP JUMPDEST SWAP2 POP PUSH32 0xFFFFFFFFFFFFFFFFFFFFFFFFFFFFFFFFFFFFFFFFFFFFFFFFFFFFFFFFFFFFFFFF DUP3 SUB PUSH2 0x4797 JUMPI PUSH2 0x4796 PUSH2 0x3FF7 JUMP JUMPDEST JUMPDEST PUSH1 0x1 DUP3 ADD SWAP1 POP SWAP2 SWAP1 POP JUMP JUMPDEST PUSH0 PUSH14 0xFFFFFFFFFFFFFFFFFFFFFFFFFFFF DUP3 AND SWAP1 POP SWAP2 SWAP1 POP JUMP JUMPDEST PUSH2 0x47C4 DUP2 PUSH2 0x47A2 JUMP JUMPDEST DUP2 EQ PUSH2 0x47CE JUMPI PUSH0 DUP1 REVERT JUMPDEST POP JUMP JUMPDEST PUSH0 DUP2 MLOAD SWAP1 POP PUSH2 0x47DF DUP2 PUSH2 0x47BB JUMP JUMPDEST SWAP3 SWAP2 POP POP JUMP JUMPDEST PUSH0 PUSH4 0xFFFFFFFF DUP3 AND SWAP1 POP SWAP2 SWAP1 POP JUMP JUMPDEST PUSH2 0x47FD DUP2 PUSH2 0x47E5 JUMP JUMPDEST DUP2 EQ PUSH2 0x4807 JUMPI PUSH0 DUP1 REVERT JUMPDEST POP JUMP JUMPDEST PUSH0 DUP2 MLOAD SWAP1 POP PUSH2 0x4818 DUP2 PUSH2 0x47F4 JUMP JUMPDEST SWAP3 SWAP2 POP POP JUMP JUMPDEST PUSH0 DUP1 PUSH0 PUSH1 0x60 DUP5 DUP7 SUB SLT ISZERO PUSH2 0x4835 JUMPI PUSH2 0x4834 PUSH2 0x345D JUMP JUMPDEST JUMPDEST PUSH0 PUSH2 0x4842 DUP7 DUP3 DUP8 ADD PUSH2 0x47D1 JUMP JUMPDEST SWAP4 POP POP PUSH1 0x20 PUSH2 0x4853 DUP7 DUP3 DUP8 ADD PUSH2 0x47D1 JUMP JUMPDEST SWAP3 POP POP PUSH1 0x40 PUSH2 0x4864 DUP7 DUP3 DUP8 ADD PUSH2 0x480A JUMP JUMPDEST SWAP2 POP POP SWAP3 POP SWAP3 POP SWAP3 JUMP JUMPDEST PUSH0 PUSH1 0x20 DUP3 DUP5 SUB SLT ISZERO PUSH2 0x4883 JUMPI PUSH2 0x4882 PUSH2 0x345D JUMP JUMPDEST JUMPDEST PUSH0 PUSH2 0x4890 DUP5 DUP3 DUP6 ADD PUSH2 0x4606 JUMP JUMPDEST SWAP2 POP POP SWAP3 SWAP2 POP POP JUMP JUMPDEST PUSH0 DUP2 MLOAD SWAP1 POP SWAP2 SWAP1 POP JUMP JUMPDEST PUSH0 DUP2 SWAP1 POP SWAP3 SWAP2 POP POP JUMP JUMPDEST PUSH0 JUMPDEST DUP4 DUP2 LT ISZERO PUSH2 0x48CA JUMPI DUP1 DUP3 ADD MLOAD DUP2 DUP5 ADD MSTORE PUSH1 0x20 DUP2 ADD SWAP1 POP PUSH2 0x48AF JUMP JUMPDEST PUSH0 DUP5 DUP5 ADD MSTORE POP POP POP POP JUMP JUMPDEST PUSH0 PUSH2 0x48DF DUP3 PUSH2 0x4899 JUMP JUMPDEST PUSH2 0x48E9 DUP2 DUP6 PUSH2 0x48A3 JUMP JUMPDEST SWAP4 POP PUSH2 0x48F9 DUP2 DUP6 PUSH1 0x20 DUP7 ADD PUSH2 0x48AD JUMP JUMPDEST DUP1 DUP5 ADD SWAP2 POP POP SWAP3 SWAP2 POP POP JUMP JUMPDEST PUSH0 PUSH2 0x4910 DUP3 DUP5 PUSH2 0x48D5 JUMP JUMPDEST SWAP2 POP DUP2 SWAP1 POP SWAP3 SWAP2 POP POP JUMP JUMPDEST PUSH32 0x5472616E7366657248656C7065723A205452414E534645525F4641494C454400 PUSH0 DUP3 ADD MSTORE POP JUMP JUMPDEST PUSH0 PUSH2 0x494F PUSH1 0x1F DUP4 PUSH2 0x3E82 JUMP JUMPDEST SWAP2 POP PUSH2 0x495A DUP3 PUSH2 0x491B JUMP JUMPDEST PUSH1 0x20 DUP3 ADD SWAP1 POP SWAP2 SWAP1 POP JUMP JUMPDEST PUSH0 PUSH1 0x20 DUP3 ADD SWAP1 POP DUP2 DUP2 SUB PUSH0 DUP4 ADD MSTORE PUSH2 0x497C DUP2 PUSH2 0x4943 JUMP JUMPDEST SWAP1 POP SWAP2 SWAP1 POP JUMP JUMPDEST PUSH32 0x5472616E7366657248656C7065723A204554485F5452414E534645525F464149 PUSH0 DUP3 ADD MSTORE PUSH32 0x4C45440000000000000000000000000000000000000000000000000000000000 PUSH1 0x20 DUP3 ADD MSTORE POP JUMP JUMPDEST PUSH0 PUSH2 0x49DD PUSH1 0x23 DUP4 PUSH2 0x3E82 JUMP JUMPDEST SWAP2 POP PUSH2 0x49E8 DUP3 PUSH2 0x4983 JUMP JUMPDEST PUSH1 0x40 DUP3 ADD SWAP1 POP SWAP2 SWAP1 POP JUMP JUMPDEST PUSH0 PUSH1 0x20 DUP3 ADD SWAP1 POP DUP2 DUP2 SUB PUSH0 DUP4 ADD MSTORE PUSH2 0x4A0A DUP2 PUSH2 0x49D1 JUMP JUMPDEST SWAP1 POP SWAP2 SWAP1 POP JUMP JUMPDEST PUSH0 PUSH2 0x4A1B DUP3 PUSH2 0x34BF JUMP JUMPDEST SWAP2 POP PUSH2 0x4A26 DUP4 PUSH2 0x34BF JUMP JUMPDEST SWAP3 POP DUP3 DUP3 MUL PUSH2 0x4A34 DUP2 PUSH2 0x34BF JUMP JUMPDEST SWAP2 POP DUP3 DUP3 DIV DUP5 EQ DUP4 ISZERO OR PUSH2 0x4A4B JUMPI PUSH2 0x4A4A PUSH2 0x3FF7 JUMP JUMPDEST JUMPDEST POP SWAP3 SWAP2 POP POP JUMP JUMPDEST PUSH32 0x64732D6D6174682D6D756C2D6F766572666C6F77000000000000000000000000 PUSH0 DUP3 ADD MSTORE POP JUMP JUMPDEST PUSH0 PUSH2 0x4A86 PUSH1 0x14 DUP4 PUSH2 0x3E82 JUMP JUMPDEST SWAP2 POP PUSH2 0x4A91 DUP3 PUSH2 0x4A52 JUMP JUMPDEST PUSH1 0x20 DUP3 ADD SWAP1 POP SWAP2 SWAP1 POP JUMP JUMPDEST PUSH0 PUSH1 0x20 DUP3 ADD SWAP1 POP DUP2 DUP2 SUB PUSH0 DUP4 ADD MSTORE PUSH2 0x4AB3 DUP2 PUSH2 0x4A7A JUMP JUMPDEST SWAP1 POP SWAP2 SWAP1 POP JUMP JUMPDEST PUSH32 0x64732D6D6174682D6164642D6F766572666C6F77000000000000000000000000 PUSH0 DUP3 ADD MSTORE POP JUMP JUMPDEST PUSH0 PUSH2 0x4AEE PUSH1 0x14 DUP4 PUSH2 0x3E82 JUMP JUMPDEST SWAP2 POP PUSH2 0x4AF9 DUP3 PUSH2 0x4ABA JUMP JUMPDEST PUSH1 0x20 DUP3 ADD SWAP1 POP SWAP2 SWAP1 POP JUMP JUMPDEST PUSH0 PUSH1 0x20 DUP3 ADD SWAP1 POP DUP2 DUP2 SUB PUSH0 DUP4 ADD MSTORE PUSH2 0x4B1B DUP2 PUSH2 0x4AE2 JUMP JUMPDEST SWAP1 POP SWAP2 SWAP1 POP JUMP JUMPDEST PUSH32 0x5472616E7366657248656C7065723A205452414E534645525F46524F4D5F4641 PUSH0 DUP3 ADD MSTORE PUSH32 0x494C454400000000000000000000000000000000000000000000000000000000 PUSH1 0x20 DUP3 ADD MSTORE POP JUMP JUMPDEST PUSH0 PUSH2 0x4B7C PUSH1 0x24 DUP4 PUSH2 0x3E82 JUMP JUMPDEST SWAP2 POP PUSH2 0x4B87 DUP3 PUSH2 0x4B22 JUMP JUMPDEST PUSH1 0x40 DUP3 ADD SWAP1 POP SWAP2 SWAP1 POP JUMP JUMPDEST PUSH0 PUSH1 0x20 DUP3 ADD SWAP1 POP DUP2 DUP2 SUB PUSH0 DUP4 ADD MSTORE PUSH2 0x4BA9 DUP2 PUSH2 0x4B70 JUMP JUMPDEST SWAP1 POP SWAP2 SWAP1 POP JUMP JUMPDEST PUSH0 PUSH1 0x60 DUP3 ADD SWAP1 POP PUSH2 0x4BC3 PUSH0 DUP4 ADD DUP7 PUSH2 0x357B JUMP JUMPDEST PUSH2 0x4BD0 PUSH1 0x20 DUP4 ADD DUP6 PUSH2 0x357B JUMP JUMPDEST PUSH2 0x4BDD PUSH1 0x40 DUP4 ADD DUP5 PUSH2 0x3B53 JUMP JUMPDEST SWAP5 SWAP4 POP POP POP POP JUMP JUMPDEST PUSH32 0x64732D6D6174682D7375622D756E646572666C6F770000000000000000000000 PUSH0 DUP3 ADD MSTORE POP JUMP JUMPDEST PUSH0 PUSH2 0x4C19 PUSH1 0x15 DUP4 PUSH2 0x3E82 JUMP JUMPDEST SWAP2 POP PUSH2 0x4C24 DUP3 PUSH2 0x4BE5 JUMP JUMPDEST PUSH1 0x20 DUP3 ADD SWAP1 POP SWAP2 SWAP1 POP JUMP JUMPDEST PUSH0 PUSH1 0x20 DUP3 ADD SWAP1 POP DUP2 DUP2 SUB PUSH0 DUP4 ADD MSTORE PUSH2 0x4C46 DUP2 PUSH2 0x4C0D JUMP JUMPDEST SWAP1 POP SWAP2 SWAP1 POP JUMP JUMPDEST PUSH0 DUP2 MLOAD SWAP1 POP PUSH2 0x4C5B DUP2 PUSH2 0x3495 JUMP JUMPDEST SWAP3 SWAP2 POP POP JUMP JUMPDEST PUSH0 PUSH1 0x20 DUP3 DUP5 SUB SLT ISZERO PUSH2 0x4C76 JUMPI PUSH2 0x4C75 PUSH2 0x345D JUMP JUMPDEST JUMPDEST PUSH0 PUSH2 0x4C83 DUP5 DUP3 DUP6 ADD PUSH2 0x4C4D JUMP JUMPDEST SWAP2 POP POP SWAP3 SWAP2 POP POP JUMP INVALID LOG2 PUSH5 0x6970667358 0x22 SLT KECCAK256 SWAP4 0xC1 DIV EXTCODESIZE 0xE0 DUP6 TIMESTAMP PUSH13 0x34807D375642C71B4AC827E744 ORIGIN 0xB9 0x21 0xB1 SWAP4 0x27 CALLVALUE SWAP13 0xCC 0xAE 0xE PUSH5 0x736F6C6343 STOP ADDMOD EQ STOP CALLER "
		},
		"gasEstimates": {
			"creation": {
				"codeDepositCost": "3930000",
				"executionCost": "infinite",
				"totalCost": "infinite"
			},
			"external": {
				"WETH()": "infinite",
				"addLiquidity(address,address,uint256,uint256,uint256,uint256,address,uint256)": "infinite",
				"addLiquidityETH(address,uint256,uint256,uint256,address,uint256)": "infinite",
				"factory()": "infinite",
				"getAmountIn(uint256,uint256,uint256)": "infinite",
				"getAmountOut(uint256,uint256,uint256)": "infinite",
				"getAmountsIn(uint256,address[])": "infinite",
				"getAmountsOut(uint256,address[])": "infinite",
				"getReserves(address,address)": "infinite",
				"pairFor(address,address)": "infinite",
				"quote(uint256,uint256,uint256)": "infinite",
				"removeLiquidity(address,address,uint256,uint256,uint256,address,uint256)": "infinite",
				"removeLiquidityETH(address,uint256,uint256,uint256,address,uint256)": "infinite",
				"removeLiquidityETHWithPermit(address,uint256,uint256,uint256,address,uint256,bool,uint8,bytes32,bytes32)": "infinite",
				"removeLiquidityWithPermit(address,address,uint256,uint256,uint256,address,uint256,bool,uint8,bytes32,bytes32)": "infinite",
				"sortTokens(address,address)": "infinite",
				"swapETHForExactTokens(uint256,address[],address,uint256)": "infinite",
				"swapExactETHForTokens(uint256,address[],address,uint256)": "infinite",
				"swapExactTokensForETH(uint256,uint256,address[],address,uint256)": "infinite",
				"swapExactTokensForTokens(uint256,uint256,address[],address,uint256)": "infinite",
				"swapTokensForExactETH(uint256,uint256,address[],address,uint256)": "infinite",
				"swapTokensForExactTokens(uint256,uint256,address[],address,uint256)": "infinite"
			},
			"internal": {
				"_addLiquidity(address,address,uint256,uint256,uint256,uint256)": "infinite",
				"_swap(uint256[] memory,address[] memory,address)": "infinite"
			}
		},
		"methodIdentifiers": {
			"WETH()": "ad5c4648",
			"addLiquidity(address,address,uint256,uint256,uint256,uint256,address,uint256)": "e8e33700",
			"addLiquidityETH(address,uint256,uint256,uint256,address,uint256)": "f305d719",
			"factory()": "c45a0155",
			"getAmountIn(uint256,uint256,uint256)": "85f8c259",
			"getAmountOut(uint256,uint256,uint256)": "054d50d4",
			"getAmountsIn(uint256,address[])": "1f00ca74",
			"getAmountsOut(uint256,address[])": "d06ca61f",
			"getReserves(address,address)": "d52bb6f4",
			"pairFor(address,address)": "96ed28f9",
			"quote(uint256,uint256,uint256)": "ad615dec",
			"removeLiquidity(address,address,uint256,uint256,uint256,address,uint256)": "baa2abde",
			"removeLiquidityETH(address,uint256,uint256,uint256,address,uint256)": "02751cec",
			"removeLiquidityETHWithPermit(address,uint256,uint256,uint256,address,uint256,bool,uint8,bytes32,bytes32)": "ded9382a",
			"removeLiquidityWithPermit(address,address,uint256,uint256,uint256,address,uint256,bool,uint8,bytes32,bytes32)": "2195995c",
			"sortTokens(address,address)": "544caa56",
			"swapETHForExactTokens(uint256,address[],address,uint256)": "fb3bdb41",
			"swapExactETHForTokens(uint256,address[],address,uint256)": "7ff36ab5",
			"swapExactTokensForETH(uint256,uint256,address[],address,uint256)": "18cbafe5",
			"swapExactTokensForTokens(uint256,uint256,address[],address,uint256)": "38ed1739",
			"swapTokensForExactETH(uint256,uint256,address[],address,uint256)": "4a25d94a",
			"swapTokensForExactTokens(uint256,uint256,address[],address,uint256)": "8803dbee"
		}
	},
	"abi": [
		{
			"inputs": [
				{
					"internalType": "address",
					"name": "_factory",
					"type": "address"
				},
				{
					"internalType": "address",
					"name": "_WETH",
					"type": "address"
				}
			],
			"stateMutability": "nonpayable",
			"type": "constructor"
		},
		{
			"inputs": [],
			"name": "WETH",
			"outputs": [
				{
					"internalType": "address",
					"name": "",
					"type": "address"
				}
			],
			"stateMutability": "view",
			"type": "function"
		},
		{
			"inputs": [
				{
					"internalType": "address",
					"name": "tokenA",
					"type": "address"
				},
				{
					"internalType": "address",
					"name": "tokenB",
					"type": "address"
				},
				{
					"internalType": "uint256",
					"name": "amountADesired",
					"type": "uint256"
				},
				{
					"internalType": "uint256",
					"name": "amountBDesired",
					"type": "uint256"
				},
				{
					"internalType": "uint256",
					"name": "amountAMin",
					"type": "uint256"
				},
				{
					"internalType": "uint256",
					"name": "amountBMin",
					"type": "uint256"
				},
				{
					"internalType": "address",
					"name": "to",
					"type": "address"
				},
				{
					"internalType": "uint256",
					"name": "deadline",
					"type": "uint256"
				}
			],
			"name": "addLiquidity",
			"outputs": [
				{
					"internalType": "uint256",
					"name": "amountA",
					"type": "uint256"
				},
				{
					"internalType": "uint256",
					"name": "amountB",
					"type": "uint256"
				},
				{
					"internalType": "uint256",
					"name": "liquidity",
					"type": "uint256"
				}
			],
			"stateMutability": "nonpayable",
			"type": "function"
		},
		{
			"inputs": [
				{
					"internalType": "address",
					"name": "token",
					"type": "address"
				},
				{
					"internalType": "uint256",
					"name": "amountTokenDesired",
					"type": "uint256"
				},
				{
					"internalType": "uint256",
					"name": "amountTokenMin",
					"type": "uint256"
				},
				{
					"internalType": "uint256",
					"name": "amountETHMin",
					"type": "uint256"
				},
				{
					"internalType": "address",
					"name": "to",
					"type": "address"
				},
				{
					"internalType": "uint256",
					"name": "deadline",
					"type": "uint256"
				}
			],
			"name": "addLiquidityETH",
			"outputs": [
				{
					"internalType": "uint256",
					"name": "amountToken",
					"type": "uint256"
				},
				{
					"internalType": "uint256",
					"name": "amountETH",
					"type": "uint256"
				},
				{
					"internalType": "uint256",
					"name": "liquidity",
					"type": "uint256"
				}
			],
			"stateMutability": "payable",
			"type": "function"
		},
		{
			"inputs": [],
			"name": "factory",
			"outputs": [
				{
					"internalType": "address",
					"name": "",
					"type": "address"
				}
			],
			"stateMutability": "view",
			"type": "function"
		},
		{
			"inputs": [
				{
					"internalType": "uint256",
					"name": "amountOut",
					"type": "uint256"
				},
				{
					"internalType": "uint256",
					"name": "reserveIn",
					"type": "uint256"
				},
				{
					"internalType": "uint256",
					"name": "reserveOut",
					"type": "uint256"
				}
			],
			"name": "getAmountIn",
			"outputs": [
				{
					"internalType": "uint256",
					"name": "amountIn",
					"type": "uint256"
				}
			],
			"stateMutability": "pure",
			"type": "function"
		},
		{
			"inputs": [
				{
					"internalType": "uint256",
					"name": "amountIn",
					"type": "uint256"
				},
				{
					"internalType": "uint256",
					"name": "reserveIn",
					"type": "uint256"
				},
				{
					"internalType": "uint256",
					"name": "reserveOut",
					"type": "uint256"
				}
			],
			"name": "getAmountOut",
			"outputs": [
				{
					"internalType": "uint256",
					"name": "amountOut",
					"type": "uint256"
				}
			],
			"stateMutability": "pure",
			"type": "function"
		},
		{
			"inputs": [
				{
					"internalType": "uint256",
					"name": "amountOut",
					"type": "uint256"
				},
				{
					"internalType": "address[]",
					"name": "path",
					"type": "address[]"
				}
			],
			"name": "getAmountsIn",
			"outputs": [
				{
					"internalType": "uint256[]",
					"name": "amounts",
					"type": "uint256[]"
				}
			],
			"stateMutability": "view",
			"type": "function"
		},
		{
			"inputs": [
				{
					"internalType": "uint256",
					"name": "amountIn",
					"type": "uint256"
				},
				{
					"internalType": "address[]",
					"name": "path",
					"type": "address[]"
				}
			],
			"name": "getAmountsOut",
			"outputs": [
				{
					"internalType": "uint256[]",
					"name": "amounts",
					"type": "uint256[]"
				}
			],
			"stateMutability": "view",
			"type": "function"
		},
		{
			"inputs": [
				{
					"internalType": "address",
					"name": "tokenA",
					"type": "address"
				},
				{
					"internalType": "address",
					"name": "tokenB",
					"type": "address"
				}
			],
			"name": "getReserves",
			"outputs": [
				{
					"internalType": "uint256",
					"name": "reserveA",
					"type": "uint256"
				},
				{
					"internalType": "uint256",
					"name": "reserveB",
					"type": "uint256"
				}
			],
			"stateMutability": "view",
			"type": "function"
		},
		{
			"inputs": [
				{
					"internalType": "address",
					"name": "tokenA",
					"type": "address"
				},
				{
					"internalType": "address",
					"name": "tokenB",
					"type": "address"
				}
			],
			"name": "pairFor",
			"outputs": [
				{
					"internalType": "address",
					"name": "pair",
					"type": "address"
				}
			],
			"stateMutability": "view",
			"type": "function"
		},
		{
			"inputs": [
				{
					"internalType": "uint256",
					"name": "amountA",
					"type": "uint256"
				},
				{
					"internalType": "uint256",
					"name": "reserveA",
					"type": "uint256"
				},
				{
					"internalType": "uint256",
					"name": "reserveB",
					"type": "uint256"
				}
			],
			"name": "quote",
			"outputs": [
				{
					"internalType": "uint256",
					"name": "amountB",
					"type": "uint256"
				}
			],
			"stateMutability": "pure",
			"type": "function"
		},
		{
			"inputs": [
				{
					"internalType": "address",
					"name": "tokenA",
					"type": "address"
				},
				{
					"internalType": "address",
					"name": "tokenB",
					"type": "address"
				},
				{
					"internalType": "uint256",
					"name": "liquidity",
					"type": "uint256"
				},
				{
					"internalType": "uint256",
					"name": "amountAMin",
					"type": "uint256"
				},
				{
					"internalType": "uint256",
					"name": "amountBMin",
					"type": "uint256"
				},
				{
					"internalType": "address",
					"name": "to",
					"type": "address"
				},
				{
					"internalType": "uint256",
					"name": "deadline",
					"type": "uint256"
				}
			],
			"name": "removeLiquidity",
			"outputs": [
				{
					"internalType": "uint256",
					"name": "amountA",
					"type": "uint256"
				},
				{
					"internalType": "uint256",
					"name": "amountB",
					"type": "uint256"
				}
			],
			"stateMutability": "nonpayable",
			"type": "function"
		},
		{
			"inputs": [
				{
					"internalType": "address",
					"name": "token",
					"type": "address"
				},
				{
					"internalType": "uint256",
					"name": "liquidity",
					"type": "uint256"
				},
				{
					"internalType": "uint256",
					"name": "amountTokenMin",
					"type": "uint256"
				},
				{
					"internalType": "uint256",
					"name": "amountETHMin",
					"type": "uint256"
				},
				{
					"internalType": "address",
					"name": "to",
					"type": "address"
				},
				{
					"internalType": "uint256",
					"name": "deadline",
					"type": "uint256"
				}
			],
			"name": "removeLiquidityETH",
			"outputs": [
				{
					"internalType": "uint256",
					"name": "amountToken",
					"type": "uint256"
				},
				{
					"internalType": "uint256",
					"name": "amountETH",
					"type": "uint256"
				}
			],
			"stateMutability": "nonpayable",
			"type": "function"
		},
		{
			"inputs": [
				{
					"internalType": "address",
					"name": "token",
					"type": "address"
				},
				{
					"internalType": "uint256",
					"name": "liquidity",
					"type": "uint256"
				},
				{
					"internalType": "uint256",
					"name": "amountTokenMin",
					"type": "uint256"
				},
				{
					"internalType": "uint256",
					"name": "amountETHMin",
					"type": "uint256"
				},
				{
					"internalType": "address",
					"name": "to",
					"type": "address"
				},
				{
					"internalType": "uint256",
					"name": "deadline",
					"type": "uint256"
				},
				{
					"internalType": "bool",
					"name": "approveMax",
					"type": "bool"
				},
				{
					"internalType": "uint8",
					"name": "v",
					"type": "uint8"
				},
				{
					"internalType": "bytes32",
					"name": "r",
					"type": "bytes32"
				},
				{
					"internalType": "bytes32",
					"name": "s",
					"type": "bytes32"
				}
			],
			"name": "removeLiquidityETHWithPermit",
			"outputs": [
				{
					"internalType": "uint256",
					"name": "amountToken",
					"type": "uint256"
				},
				{
					"internalType": "uint256",
					"name": "amountETH",
					"type": "uint256"
				}
			],
			"stateMutability": "nonpayable",
			"type": "function"
		},
		{
			"inputs": [
				{
					"internalType": "address",
					"name": "tokenA",
					"type": "address"
				},
				{
					"internalType": "address",
					"name": "tokenB",
					"type": "address"
				},
				{
					"internalType": "uint256",
					"name": "liquidity",
					"type": "uint256"
				},
				{
					"internalType": "uint256",
					"name": "amountAMin",
					"type": "uint256"
				},
				{
					"internalType": "uint256",
					"name": "amountBMin",
					"type": "uint256"
				},
				{
					"internalType": "address",
					"name": "to",
					"type": "address"
				},
				{
					"internalType": "uint256",
					"name": "deadline",
					"type": "uint256"
				},
				{
					"internalType": "bool",
					"name": "approveMax",
					"type": "bool"
				},
				{
					"internalType": "uint8",
					"name": "v",
					"type": "uint8"
				},
				{
					"internalType": "bytes32",
					"name": "r",
					"type": "bytes32"
				},
				{
					"internalType": "bytes32",
					"name": "s",
					"type": "bytes32"
				}
			],
			"name": "removeLiquidityWithPermit",
			"outputs": [
				{
					"internalType": "uint256",
					"name": "amountA",
					"type": "uint256"
				},
				{
					"internalType": "uint256",
					"name": "amountB",
					"type": "uint256"
				}
			],
			"stateMutability": "nonpayable",
			"type": "function"
		},
		{
			"inputs": [
				{
					"internalType": "address",
					"name": "tokenA",
					"type": "address"
				},
				{
					"internalType": "address",
					"name": "tokenB",
					"type": "address"
				}
			],
			"name": "sortTokens",
			"outputs": [
				{
					"internalType": "address",
					"name": "token0",
					"type": "address"
				},
				{
					"internalType": "address",
					"name": "token1",
					"type": "address"
				}
			],
			"stateMutability": "pure",
			"type": "function"
		},
		{
			"inputs": [
				{
					"internalType": "uint256",
					"name": "amountOut",
					"type": "uint256"
				},
				{
					"internalType": "address[]",
					"name": "path",
					"type": "address[]"
				},
				{
					"internalType": "address",
					"name": "to",
					"type": "address"
				},
				{
					"internalType": "uint256",
					"name": "deadline",
					"type": "uint256"
				}
			],
			"name": "swapETHForExactTokens",
			"outputs": [
				{
					"internalType": "uint256[]",
					"name": "amounts",
					"type": "uint256[]"
				}
			],
			"stateMutability": "payable",
			"type": "function"
		},
		{
			"inputs": [
				{
					"internalType": "uint256",
					"name": "amountOutMin",
					"type": "uint256"
				},
				{
					"internalType": "address[]",
					"name": "path",
					"type": "address[]"
				},
				{
					"internalType": "address",
					"name": "to",
					"type": "address"
				},
				{
					"internalType": "uint256",
					"name": "deadline",
					"type": "uint256"
				}
			],
			"name": "swapExactETHForTokens",
			"outputs": [
				{
					"internalType": "uint256[]",
					"name": "amounts",
					"type": "uint256[]"
				}
			],
			"stateMutability": "payable",
			"type": "function"
		},
		{
			"inputs": [
				{
					"internalType": "uint256",
					"name": "amountIn",
					"type": "uint256"
				},
				{
					"internalType": "uint256",
					"name": "amountOutMin",
					"type": "uint256"
				},
				{
					"internalType": "address[]",
					"name": "path",
					"type": "address[]"
				},
				{
					"internalType": "address",
					"name": "to",
					"type": "address"
				},
				{
					"internalType": "uint256",
					"name": "deadline",
					"type": "uint256"
				}
			],
			"name": "swapExactTokensForETH",
			"outputs": [
				{
					"internalType": "uint256[]",
					"name": "amounts",
					"type": "uint256[]"
				}
			],
			"stateMutability": "nonpayable",
			"type": "function"
		},
		{
			"inputs": [
				{
					"internalType": "uint256",
					"name": "amountIn",
					"type": "uint256"
				},
				{
					"internalType": "uint256",
					"name": "amountOutMin",
					"type": "uint256"
				},
				{
					"internalType": "address[]",
					"name": "path",
					"type": "address[]"
				},
				{
					"internalType": "address",
					"name": "to",
					"type": "address"
				},
				{
					"internalType": "uint256",
					"name": "deadline",
					"type": "uint256"
				}
			],
			"name": "swapExactTokensForTokens",
			"outputs": [
				{
					"internalType": "uint256[]",
					"name": "amounts",
					"type": "uint256[]"
				}
			],
			"stateMutability": "nonpayable",
			"type": "function"
		},
		{
			"inputs": [
				{
					"internalType": "uint256",
					"name": "amountOut",
					"type": "uint256"
				},
				{
					"internalType": "uint256",
					"name": "amountInMax",
					"type": "uint256"
				},
				{
					"internalType": "address[]",
					"name": "path",
					"type": "address[]"
				},
				{
					"internalType": "address",
					"name": "to",
					"type": "address"
				},
				{
					"internalType": "uint256",
					"name": "deadline",
					"type": "uint256"
				}
			],
			"name": "swapTokensForExactETH",
			"outputs": [
				{
					"internalType": "uint256[]",
					"name": "amounts",
					"type": "uint256[]"
				}
			],
			"stateMutability": "nonpayable",
			"type": "function"
		},
		{
			"inputs": [
				{
					"internalType": "uint256",
					"name": "amountOut",
					"type": "uint256"
				},
				{
					"internalType": "uint256",
					"name": "amountInMax",
					"type": "uint256"
				},
				{
					"internalType": "address[]",
					"name": "path",
					"type": "address[]"
				},
				{
					"internalType": "address",
					"name": "to",
					"type": "address"
				},
				{
					"internalType": "uint256",
					"name": "deadline",
					"type": "uint256"
				}
			],
			"name": "swapTokensForExactTokens",
			"outputs": [
				{
					"internalType": "uint256[]",
					"name": "amounts",
					"type": "uint256[]"
				}
			],
			"stateMutability": "nonpayable",
			"type": "function"
		},
		{
			"stateMutability": "payable",
			"type": "receive"
		}
	]
}